{
	"sibig_learning/first prog.sol": {
		"TestContract": {
			"abi": [
				{
					"inputs": [],
					"name": "getNumber",
					"outputs": [
						{
							"internalType": "uint256",
							"name": "",
							"type": "uint256"
						}
					],
					"stateMutability": "view",
					"type": "function"
				},
				{
					"inputs": [],
					"name": "getNumber1",
					"outputs": [
						{
							"internalType": "int256",
							"name": "",
							"type": "int256"
						}
					],
					"stateMutability": "view",
					"type": "function"
				},
				{
					"inputs": [],
					"name": "num",
					"outputs": [
						{
							"internalType": "uint256",
							"name": "",
							"type": "uint256"
						}
					],
					"stateMutability": "view",
					"type": "function"
				},
				{
					"inputs": [],
					"name": "num1",
					"outputs": [
						{
							"internalType": "int256",
							"name": "",
							"type": "int256"
						}
					],
					"stateMutability": "view",
					"type": "function"
				},
				{
					"inputs": [],
					"name": "num2",
					"outputs": [
						{
							"internalType": "uint256",
							"name": "",
							"type": "uint256"
						}
					],
					"stateMutability": "view",
					"type": "function"
				},
				{
					"inputs": [
						{
							"internalType": "uint256",
							"name": "_num",
							"type": "uint256"
						}
					],
					"name": "setNumber",
					"outputs": [],
					"stateMutability": "nonpayable",
					"type": "function"
				},
				{
					"inputs": [
						{
							"internalType": "int256",
							"name": "_num1",
							"type": "int256"
						}
					],
					"name": "setNumber1",
					"outputs": [],
					"stateMutability": "nonpayable",
					"type": "function"
				},
				{
					"inputs": [
						{
							"internalType": "uint256",
							"name": "_num2",
							"type": "uint256"
						}
					],
					"name": "setNumber2",
					"outputs": [],
					"stateMutability": "nonpayable",
					"type": "function"
				}
			],
			"devdoc": {
				"kind": "dev",
				"methods": {},
				"version": 1
			},
			"evm": {
				"assembly": "    /* \"sibig_learning/first prog.sol\":56:572  contract TestContract {... */\n  mstore(0x40, 0x80)\n  callvalue\n  dup1\n  iszero\n  tag_1\n  jumpi\n  0x00\n  dup1\n  revert\ntag_1:\n  pop\n  dataSize(sub_0)\n  dup1\n  dataOffset(sub_0)\n  0x00\n  codecopy\n  0x00\n  return\nstop\n\nsub_0: assembly {\n        /* \"sibig_learning/first prog.sol\":56:572  contract TestContract {... */\n      mstore(0x40, 0x80)\n      callvalue\n      dup1\n      iszero\n      tag_1\n      jumpi\n      0x00\n      dup1\n      revert\n    tag_1:\n      pop\n      jumpi(tag_2, lt(calldatasize, 0x04))\n      shr(0xe0, calldataload(0x00))\n      dup1\n      0x92b051d7\n      gt\n      tag_11\n      jumpi\n      dup1\n      0x92b051d7\n      eq\n      tag_7\n      jumpi\n      dup1\n      0x9e911f4c\n      eq\n      tag_8\n      jumpi\n      dup1\n      0xce29371b\n      eq\n      tag_9\n      jumpi\n      dup1\n      0xf2c9ecd8\n      eq\n      tag_10\n      jumpi\n      jump(tag_2)\n    tag_11:\n      dup1\n      0x15d4266c\n      eq\n      tag_3\n      jumpi\n      dup1\n      0x3b9eac4b\n      eq\n      tag_4\n      jumpi\n      dup1\n      0x3fb5c1cb\n      eq\n      tag_5\n      jumpi\n      dup1\n      0x4e70b1dc\n      eq\n      tag_6\n      jumpi\n    tag_2:\n      0x00\n      dup1\n      revert\n        /* \"sibig_learning/first prog.sol\":130:146  uint public num2 */\n    tag_3:\n      tag_12\n      tag_13\n      jump\t// in\n    tag_12:\n      mload(0x40)\n      tag_14\n      swap2\n      swap1\n      tag_15\n      jump\t// in\n    tag_14:\n      mload(0x40)\n      dup1\n      swap2\n      sub\n      swap1\n      return\n        /* \"sibig_learning/first prog.sol\":107:122  int public num1 */\n    tag_4:\n      tag_16\n      tag_17\n      jump\t// in\n    tag_16:\n      mload(0x40)\n      tag_18\n      swap2\n      swap1\n      tag_19\n      jump\t// in\n    tag_18:\n      mload(0x40)\n      dup1\n      swap2\n      sub\n      swap1\n      return\n        /* \"sibig_learning/first prog.sol\":156:227  function setNumber ( uint _num) public ... */\n    tag_5:\n      tag_20\n      0x04\n      dup1\n      calldatasize\n      sub\n      dup2\n      add\n      swap1\n      tag_21\n      swap2\n      swap1\n      tag_22\n      jump\t// in\n    tag_21:\n      tag_23\n      jump\t// in\n    tag_20:\n      stop\n        /* \"sibig_learning/first prog.sol\":85:100  uint public num */\n    tag_6:\n      tag_24\n      tag_25\n      jump\t// in\n    tag_24:\n      mload(0x40)\n      tag_26\n      swap2\n      swap1\n      tag_15\n      jump\t// in\n    tag_26:\n      mload(0x40)\n      dup1\n      swap2\n      sub\n      swap1\n      return\n        /* \"sibig_learning/first prog.sol\":409:483  function setNumber1 ( int _num1) public ... */\n    tag_7:\n      tag_27\n      0x04\n      dup1\n      calldatasize\n      sub\n      dup2\n      add\n      swap1\n      tag_28\n      swap2\n      swap1\n      tag_29\n      jump\t// in\n    tag_28:\n      tag_30\n      jump\t// in\n    tag_27:\n      stop\n        /* \"sibig_learning/first prog.sol\":491:570  function getNumber1() public view returns(int)... */\n    tag_8:\n      tag_31\n      tag_32\n      jump\t// in\n    tag_31:\n      mload(0x40)\n      tag_33\n      swap2\n      swap1\n      tag_19\n      jump\t// in\n    tag_33:\n      mload(0x40)\n      dup1\n      swap2\n      sub\n      swap1\n      return\n        /* \"sibig_learning/first prog.sol\":237:312  function setNumber2 ( uint _num2) public ... */\n    tag_9:\n      tag_34\n      0x04\n      dup1\n      calldatasize\n      sub\n      dup2\n      add\n      swap1\n      tag_35\n      swap2\n      swap1\n      tag_22\n      jump\t// in\n    tag_35:\n      tag_36\n      jump\t// in\n    tag_34:\n      stop\n        /* \"sibig_learning/first prog.sol\":318:402  function getNumber() public view returns(uint)... */\n    tag_10:\n      tag_37\n      tag_38\n      jump\t// in\n    tag_37:\n      mload(0x40)\n      tag_39\n      swap2\n      swap1\n      tag_15\n      jump\t// in\n    tag_39:\n      mload(0x40)\n      dup1\n      swap2\n      sub\n      swap1\n      return\n        /* \"sibig_learning/first prog.sol\":130:146  uint public num2 */\n    tag_13:\n      sload(0x02)\n      dup2\n      jump\t// out\n        /* \"sibig_learning/first prog.sol\":107:122  int public num1 */\n    tag_17:\n      sload(0x01)\n      dup2\n      jump\t// out\n        /* \"sibig_learning/first prog.sol\":156:227  function setNumber ( uint _num) public ... */\n    tag_23:\n        /* \"sibig_learning/first prog.sol\":216:220  _num */\n      dup1\n        /* \"sibig_learning/first prog.sol\":210:213  num */\n      0x00\n        /* \"sibig_learning/first prog.sol\":210:220  num = _num */\n      dup2\n      swap1\n      sstore\n      pop\n        /* \"sibig_learning/first prog.sol\":156:227  function setNumber ( uint _num) public ... */\n      pop\n      jump\t// out\n        /* \"sibig_learning/first prog.sol\":85:100  uint public num */\n    tag_25:\n      sload(0x00)\n      dup2\n      jump\t// out\n        /* \"sibig_learning/first prog.sol\":409:483  function setNumber1 ( int _num1) public ... */\n    tag_30:\n        /* \"sibig_learning/first prog.sol\":471:476  _num1 */\n      dup1\n        /* \"sibig_learning/first prog.sol\":464:468  num1 */\n      0x01\n        /* \"sibig_learning/first prog.sol\":464:476  num1 = _num1 */\n      dup2\n      swap1\n      sstore\n      pop\n        /* \"sibig_learning/first prog.sol\":409:483  function setNumber1 ( int _num1) public ... */\n      pop\n      jump\t// out\n        /* \"sibig_learning/first prog.sol\":491:570  function getNumber1() public view returns(int)... */\n    tag_32:\n        /* \"sibig_learning/first prog.sol\":533:536  int */\n      0x00\n        /* \"sibig_learning/first prog.sol\":559:563  num1 */\n      sload(0x01)\n        /* \"sibig_learning/first prog.sol\":552:563  return num1 */\n      swap1\n      pop\n        /* \"sibig_learning/first prog.sol\":491:570  function getNumber1() public view returns(int)... */\n      swap1\n      jump\t// out\n        /* \"sibig_learning/first prog.sol\":237:312  function setNumber2 ( uint _num2) public ... */\n    tag_36:\n        /* \"sibig_learning/first prog.sol\":300:305  _num2 */\n      dup1\n        /* \"sibig_learning/first prog.sol\":293:297  num2 */\n      0x02\n        /* \"sibig_learning/first prog.sol\":293:305  num2 = _num2 */\n      dup2\n      swap1\n      sstore\n      pop\n        /* \"sibig_learning/first prog.sol\":237:312  function setNumber2 ( uint _num2) public ... */\n      pop\n      jump\t// out\n        /* \"sibig_learning/first prog.sol\":318:402  function getNumber() public view returns(uint)... */\n    tag_38:\n        /* \"sibig_learning/first prog.sol\":359:363  uint */\n      0x00\n        /* \"sibig_learning/first prog.sol\":392:395  num */\n      dup1\n      sload\n        /* \"sibig_learning/first prog.sol\":386:389  num */\n      sload(0x00)\n        /* \"sibig_learning/first prog.sol\":386:395  num / num */\n      tag_45\n      swap2\n      swap1\n      tag_46\n      jump\t// in\n    tag_45:\n        /* \"sibig_learning/first prog.sol\":379:395  return num / num */\n      swap1\n      pop\n        /* \"sibig_learning/first prog.sol\":318:402  function getNumber() public view returns(uint)... */\n      swap1\n      jump\t// out\n        /* \"#utility.yul\":7:144   */\n    tag_48:\n        /* \"#utility.yul\":52:57   */\n      0x00\n        /* \"#utility.yul\":90:96   */\n      dup2\n        /* \"#utility.yul\":77:97   */\n      calldataload\n        /* \"#utility.yul\":68:97   */\n      swap1\n      pop\n        /* \"#utility.yul\":106:138   */\n      tag_50\n        /* \"#utility.yul\":132:137   */\n      dup2\n        /* \"#utility.yul\":106:138   */\n      tag_51\n      jump\t// in\n    tag_50:\n        /* \"#utility.yul\":7:144   */\n      swap3\n      swap2\n      pop\n      pop\n      jump\t// out\n        /* \"#utility.yul\":150:289   */\n    tag_52:\n        /* \"#utility.yul\":196:201   */\n      0x00\n        /* \"#utility.yul\":234:240   */\n      dup2\n        /* \"#utility.yul\":221:241   */\n      calldataload\n        /* \"#utility.yul\":212:241   */\n      swap1\n      pop\n        /* \"#utility.yul\":250:283   */\n      tag_54\n        /* \"#utility.yul\":277:282   */\n      dup2\n        /* \"#utility.yul\":250:283   */\n      tag_55\n      jump\t// in\n    tag_54:\n        /* \"#utility.yul\":150:289   */\n      swap3\n      swap2\n      pop\n      pop\n      jump\t// out\n        /* \"#utility.yul\":295:622   */\n    tag_29:\n        /* \"#utility.yul\":353:359   */\n      0x00\n        /* \"#utility.yul\":402:404   */\n      0x20\n        /* \"#utility.yul\":390:399   */\n      dup3\n        /* \"#utility.yul\":381:388   */\n      dup5\n        /* \"#utility.yul\":377:400   */\n      sub\n        /* \"#utility.yul\":373:405   */\n      slt\n        /* \"#utility.yul\":370:489   */\n      iszero\n      tag_57\n      jumpi\n        /* \"#utility.yul\":408:487   */\n      tag_58\n      tag_59\n      jump\t// in\n    tag_58:\n        /* \"#utility.yul\":370:489   */\n    tag_57:\n        /* \"#utility.yul\":528:529   */\n      0x00\n        /* \"#utility.yul\":553:605   */\n      tag_60\n        /* \"#utility.yul\":597:604   */\n      dup5\n        /* \"#utility.yul\":588:594   */\n      dup3\n        /* \"#utility.yul\":577:586   */\n      dup6\n        /* \"#utility.yul\":573:595   */\n      add\n        /* \"#utility.yul\":553:605   */\n      tag_48\n      jump\t// in\n    tag_60:\n        /* \"#utility.yul\":543:605   */\n      swap2\n      pop\n        /* \"#utility.yul\":499:615   */\n      pop\n        /* \"#utility.yul\":295:622   */\n      swap3\n      swap2\n      pop\n      pop\n      jump\t// out\n        /* \"#utility.yul\":628:957   */\n    tag_22:\n        /* \"#utility.yul\":687:693   */\n      0x00\n        /* \"#utility.yul\":736:738   */\n      0x20\n        /* \"#utility.yul\":724:733   */\n      dup3\n        /* \"#utility.yul\":715:722   */\n      dup5\n        /* \"#utility.yul\":711:734   */\n      sub\n        /* \"#utility.yul\":707:739   */\n      slt\n        /* \"#utility.yul\":704:823   */\n      iszero\n      tag_62\n      jumpi\n        /* \"#utility.yul\":742:821   */\n      tag_63\n      tag_59\n      jump\t// in\n    tag_63:\n        /* \"#utility.yul\":704:823   */\n    tag_62:\n        /* \"#utility.yul\":862:863   */\n      0x00\n        /* \"#utility.yul\":887:940   */\n      tag_64\n        /* \"#utility.yul\":932:939   */\n      dup5\n        /* \"#utility.yul\":923:929   */\n      dup3\n        /* \"#utility.yul\":912:921   */\n      dup6\n        /* \"#utility.yul\":908:930   */\n      add\n        /* \"#utility.yul\":887:940   */\n      tag_52\n      jump\t// in\n    tag_64:\n        /* \"#utility.yul\":877:940   */\n      swap2\n      pop\n        /* \"#utility.yul\":833:950   */\n      pop\n        /* \"#utility.yul\":628:957   */\n      swap3\n      swap2\n      pop\n      pop\n      jump\t// out\n        /* \"#utility.yul\":963:1078   */\n    tag_65:\n        /* \"#utility.yul\":1048:1071   */\n      tag_67\n        /* \"#utility.yul\":1065:1070   */\n      dup2\n        /* \"#utility.yul\":1048:1071   */\n      tag_68\n      jump\t// in\n    tag_67:\n        /* \"#utility.yul\":1043:1046   */\n      dup3\n        /* \"#utility.yul\":1036:1072   */\n      mstore\n        /* \"#utility.yul\":963:1078   */\n      pop\n      pop\n      jump\t// out\n        /* \"#utility.yul\":1084:1202   */\n    tag_69:\n        /* \"#utility.yul\":1171:1195   */\n      tag_71\n        /* \"#utility.yul\":1189:1194   */\n      dup2\n        /* \"#utility.yul\":1171:1195   */\n      tag_72\n      jump\t// in\n    tag_71:\n        /* \"#utility.yul\":1166:1169   */\n      dup3\n        /* \"#utility.yul\":1159:1196   */\n      mstore\n        /* \"#utility.yul\":1084:1202   */\n      pop\n      pop\n      jump\t// out\n        /* \"#utility.yul\":1208:1426   */\n    tag_19:\n        /* \"#utility.yul\":1299:1303   */\n      0x00\n        /* \"#utility.yul\":1337:1339   */\n      0x20\n        /* \"#utility.yul\":1326:1335   */\n      dup3\n        /* \"#utility.yul\":1322:1340   */\n      add\n        /* \"#utility.yul\":1314:1340   */\n      swap1\n      pop\n        /* \"#utility.yul\":1350:1419   */\n      tag_74\n        /* \"#utility.yul\":1416:1417   */\n      0x00\n        /* \"#utility.yul\":1405:1414   */\n      dup4\n        /* \"#utility.yul\":1401:1418   */\n      add\n        /* \"#utility.yul\":1392:1398   */\n      dup5\n        /* \"#utility.yul\":1350:1419   */\n      tag_65\n      jump\t// in\n    tag_74:\n        /* \"#utility.yul\":1208:1426   */\n      swap3\n      swap2\n      pop\n      pop\n      jump\t// out\n        /* \"#utility.yul\":1432:1654   */\n    tag_15:\n        /* \"#utility.yul\":1525:1529   */\n      0x00\n        /* \"#utility.yul\":1563:1565   */\n      0x20\n        /* \"#utility.yul\":1552:1561   */\n      dup3\n        /* \"#utility.yul\":1548:1566   */\n      add\n        /* \"#utility.yul\":1540:1566   */\n      swap1\n      pop\n        /* \"#utility.yul\":1576:1647   */\n      tag_76\n        /* \"#utility.yul\":1644:1645   */\n      0x00\n        /* \"#utility.yul\":1633:1642   */\n      dup4\n        /* \"#utility.yul\":1629:1646   */\n      add\n        /* \"#utility.yul\":1620:1626   */\n      dup5\n        /* \"#utility.yul\":1576:1647   */\n      tag_69\n      jump\t// in\n    tag_76:\n        /* \"#utility.yul\":1432:1654   */\n      swap3\n      swap2\n      pop\n      pop\n      jump\t// out\n        /* \"#utility.yul\":1741:1926   */\n    tag_46:\n        /* \"#utility.yul\":1781:1782   */\n      0x00\n        /* \"#utility.yul\":1798:1818   */\n      tag_80\n        /* \"#utility.yul\":1816:1817   */\n      dup3\n        /* \"#utility.yul\":1798:1818   */\n      tag_72\n      jump\t// in\n    tag_80:\n        /* \"#utility.yul\":1793:1818   */\n      swap2\n      pop\n        /* \"#utility.yul\":1832:1852   */\n      tag_81\n        /* \"#utility.yul\":1850:1851   */\n      dup4\n        /* \"#utility.yul\":1832:1852   */\n      tag_72\n      jump\t// in\n    tag_81:\n        /* \"#utility.yul\":1827:1852   */\n      swap3\n      pop\n        /* \"#utility.yul\":1871:1872   */\n      dup3\n        /* \"#utility.yul\":1861:1896   */\n      tag_82\n      jumpi\n        /* \"#utility.yul\":1876:1894   */\n      tag_83\n      tag_84\n      jump\t// in\n    tag_83:\n        /* \"#utility.yul\":1861:1896   */\n    tag_82:\n        /* \"#utility.yul\":1918:1919   */\n      dup3\n        /* \"#utility.yul\":1915:1916   */\n      dup3\n        /* \"#utility.yul\":1911:1920   */\n      div\n        /* \"#utility.yul\":1906:1920   */\n      swap1\n      pop\n        /* \"#utility.yul\":1741:1926   */\n      swap3\n      swap2\n      pop\n      pop\n      jump\t// out\n        /* \"#utility.yul\":1932:2008   */\n    tag_68:\n        /* \"#utility.yul\":1968:1975   */\n      0x00\n        /* \"#utility.yul\":1997:2002   */\n      dup2\n        /* \"#utility.yul\":1986:2002   */\n      swap1\n      pop\n        /* \"#utility.yul\":1932:2008   */\n      swap2\n      swap1\n      pop\n      jump\t// out\n        /* \"#utility.yul\":2014:2091   */\n    tag_72:\n        /* \"#utility.yul\":2051:2058   */\n      0x00\n        /* \"#utility.yul\":2080:2085   */\n      dup2\n        /* \"#utility.yul\":2069:2085   */\n      swap1\n      pop\n        /* \"#utility.yul\":2014:2091   */\n      swap2\n      swap1\n      pop\n      jump\t// out\n        /* \"#utility.yul\":2283:2463   */\n    tag_84:\n        /* \"#utility.yul\":2331:2408   */\n      0x4e487b7100000000000000000000000000000000000000000000000000000000\n        /* \"#utility.yul\":2328:2329   */\n      0x00\n        /* \"#utility.yul\":2321:2409   */\n      mstore\n        /* \"#utility.yul\":2428:2432   */\n      0x12\n        /* \"#utility.yul\":2425:2426   */\n      0x04\n        /* \"#utility.yul\":2418:2433   */\n      mstore\n        /* \"#utility.yul\":2452:2456   */\n      0x24\n        /* \"#utility.yul\":2449:2450   */\n      0x00\n        /* \"#utility.yul\":2442:2457   */\n      revert\n        /* \"#utility.yul\":2592:2709   */\n    tag_59:\n        /* \"#utility.yul\":2701:2702   */\n      0x00\n        /* \"#utility.yul\":2698:2699   */\n      dup1\n        /* \"#utility.yul\":2691:2703   */\n      revert\n        /* \"#utility.yul\":2715:2835   */\n    tag_51:\n        /* \"#utility.yul\":2787:2810   */\n      tag_94\n        /* \"#utility.yul\":2804:2809   */\n      dup2\n        /* \"#utility.yul\":2787:2810   */\n      tag_68\n      jump\t// in\n    tag_94:\n        /* \"#utility.yul\":2780:2785   */\n      dup2\n        /* \"#utility.yul\":2777:2811   */\n      eq\n        /* \"#utility.yul\":2767:2829   */\n      tag_95\n      jumpi\n        /* \"#utility.yul\":2825:2826   */\n      0x00\n        /* \"#utility.yul\":2822:2823   */\n      dup1\n        /* \"#utility.yul\":2815:2827   */\n      revert\n        /* \"#utility.yul\":2767:2829   */\n    tag_95:\n        /* \"#utility.yul\":2715:2835   */\n      pop\n      jump\t// out\n        /* \"#utility.yul\":2841:2963   */\n    tag_55:\n        /* \"#utility.yul\":2914:2938   */\n      tag_97\n        /* \"#utility.yul\":2932:2937   */\n      dup2\n        /* \"#utility.yul\":2914:2938   */\n      tag_72\n      jump\t// in\n    tag_97:\n        /* \"#utility.yul\":2907:2912   */\n      dup2\n        /* \"#utility.yul\":2904:2939   */\n      eq\n        /* \"#utility.yul\":2894:2957   */\n      tag_98\n      jumpi\n        /* \"#utility.yul\":2953:2954   */\n      0x00\n        /* \"#utility.yul\":2950:2951   */\n      dup1\n        /* \"#utility.yul\":2943:2955   */\n      revert\n        /* \"#utility.yul\":2894:2957   */\n    tag_98:\n        /* \"#utility.yul\":2841:2963   */\n      pop\n      jump\t// out\n\n    auxdata: 0xa26469706673582212205675f320aa3f3be240cb889c62204b41e08fa6d525a043478e21bb3fbea9407064736f6c63430008070033\n}\n",
				"bytecode": {
					"linkReferences": {},
					"object": "608060405234801561001057600080fd5b5061037c806100206000396000f3fe608060405234801561001057600080fd5b50600436106100885760003560e01c806392b051d71161005b57806392b051d7146101035780639e911f4c1461011f578063ce29371b1461013d578063f2c9ecd81461015957610088565b806315d4266c1461008d5780633b9eac4b146100ab5780633fb5c1cb146100c95780634e70b1dc146100e5575b600080fd5b610095610177565b6040516100a29190610284565b60405180910390f35b6100b361017d565b6040516100c09190610269565b60405180910390f35b6100e360048036038101906100de919061021e565b610183565b005b6100ed61018d565b6040516100fa9190610284565b60405180910390f35b61011d600480360381019061011891906101f1565b610193565b005b61012761019d565b6040516101349190610269565b60405180910390f35b6101576004803603810190610152919061021e565b6101a7565b005b6101616101b1565b60405161016e9190610284565b60405180910390f35b60025481565b60015481565b8060008190555050565b60005481565b8060018190555050565b6000600154905090565b8060028190555050565b600080546000546101c2919061029f565b905090565b6000813590506101d681610318565b92915050565b6000813590506101eb8161032f565b92915050565b60006020828403121561020757610206610313565b5b6000610215848285016101c7565b91505092915050565b60006020828403121561023457610233610313565b5b6000610242848285016101dc565b91505092915050565b610254816102d0565b82525050565b610263816102da565b82525050565b600060208201905061027e600083018461024b565b92915050565b6000602082019050610299600083018461025a565b92915050565b60006102aa826102da565b91506102b5836102da565b9250826102c5576102c46102e4565b5b828204905092915050565b6000819050919050565b6000819050919050565b7f4e487b7100000000000000000000000000000000000000000000000000000000600052601260045260246000fd5b600080fd5b610321816102d0565b811461032c57600080fd5b50565b610338816102da565b811461034357600080fd5b5056fea26469706673582212205675f320aa3f3be240cb889c62204b41e08fa6d525a043478e21bb3fbea9407064736f6c63430008070033",
					"opcodes": "PUSH1 0x80 PUSH1 0x40 MSTORE CALLVALUE DUP1 ISZERO PUSH2 0x10 JUMPI PUSH1 0x0 DUP1 REVERT JUMPDEST POP PUSH2 0x37C DUP1 PUSH2 0x20 PUSH1 0x0 CODECOPY PUSH1 0x0 RETURN INVALID PUSH1 0x80 PUSH1 0x40 MSTORE CALLVALUE DUP1 ISZERO PUSH2 0x10 JUMPI PUSH1 0x0 DUP1 REVERT JUMPDEST POP PUSH1 0x4 CALLDATASIZE LT PUSH2 0x88 JUMPI PUSH1 0x0 CALLDATALOAD PUSH1 0xE0 SHR DUP1 PUSH4 0x92B051D7 GT PUSH2 0x5B JUMPI DUP1 PUSH4 0x92B051D7 EQ PUSH2 0x103 JUMPI DUP1 PUSH4 0x9E911F4C EQ PUSH2 0x11F JUMPI DUP1 PUSH4 0xCE29371B EQ PUSH2 0x13D JUMPI DUP1 PUSH4 0xF2C9ECD8 EQ PUSH2 0x159 JUMPI PUSH2 0x88 JUMP JUMPDEST DUP1 PUSH4 0x15D4266C EQ PUSH2 0x8D JUMPI DUP1 PUSH4 0x3B9EAC4B EQ PUSH2 0xAB JUMPI DUP1 PUSH4 0x3FB5C1CB EQ PUSH2 0xC9 JUMPI DUP1 PUSH4 0x4E70B1DC EQ PUSH2 0xE5 JUMPI JUMPDEST PUSH1 0x0 DUP1 REVERT JUMPDEST PUSH2 0x95 PUSH2 0x177 JUMP JUMPDEST PUSH1 0x40 MLOAD PUSH2 0xA2 SWAP2 SWAP1 PUSH2 0x284 JUMP JUMPDEST PUSH1 0x40 MLOAD DUP1 SWAP2 SUB SWAP1 RETURN JUMPDEST PUSH2 0xB3 PUSH2 0x17D JUMP JUMPDEST PUSH1 0x40 MLOAD PUSH2 0xC0 SWAP2 SWAP1 PUSH2 0x269 JUMP JUMPDEST PUSH1 0x40 MLOAD DUP1 SWAP2 SUB SWAP1 RETURN JUMPDEST PUSH2 0xE3 PUSH1 0x4 DUP1 CALLDATASIZE SUB DUP2 ADD SWAP1 PUSH2 0xDE SWAP2 SWAP1 PUSH2 0x21E JUMP JUMPDEST PUSH2 0x183 JUMP JUMPDEST STOP JUMPDEST PUSH2 0xED PUSH2 0x18D JUMP JUMPDEST PUSH1 0x40 MLOAD PUSH2 0xFA SWAP2 SWAP1 PUSH2 0x284 JUMP JUMPDEST PUSH1 0x40 MLOAD DUP1 SWAP2 SUB SWAP1 RETURN JUMPDEST PUSH2 0x11D PUSH1 0x4 DUP1 CALLDATASIZE SUB DUP2 ADD SWAP1 PUSH2 0x118 SWAP2 SWAP1 PUSH2 0x1F1 JUMP JUMPDEST PUSH2 0x193 JUMP JUMPDEST STOP JUMPDEST PUSH2 0x127 PUSH2 0x19D JUMP JUMPDEST PUSH1 0x40 MLOAD PUSH2 0x134 SWAP2 SWAP1 PUSH2 0x269 JUMP JUMPDEST PUSH1 0x40 MLOAD DUP1 SWAP2 SUB SWAP1 RETURN JUMPDEST PUSH2 0x157 PUSH1 0x4 DUP1 CALLDATASIZE SUB DUP2 ADD SWAP1 PUSH2 0x152 SWAP2 SWAP1 PUSH2 0x21E JUMP JUMPDEST PUSH2 0x1A7 JUMP JUMPDEST STOP JUMPDEST PUSH2 0x161 PUSH2 0x1B1 JUMP JUMPDEST PUSH1 0x40 MLOAD PUSH2 0x16E SWAP2 SWAP1 PUSH2 0x284 JUMP JUMPDEST PUSH1 0x40 MLOAD DUP1 SWAP2 SUB SWAP1 RETURN JUMPDEST PUSH1 0x2 SLOAD DUP2 JUMP JUMPDEST PUSH1 0x1 SLOAD DUP2 JUMP JUMPDEST DUP1 PUSH1 0x0 DUP2 SWAP1 SSTORE POP POP JUMP JUMPDEST PUSH1 0x0 SLOAD DUP2 JUMP JUMPDEST DUP1 PUSH1 0x1 DUP2 SWAP1 SSTORE POP POP JUMP JUMPDEST PUSH1 0x0 PUSH1 0x1 SLOAD SWAP1 POP SWAP1 JUMP JUMPDEST DUP1 PUSH1 0x2 DUP2 SWAP1 SSTORE POP POP JUMP JUMPDEST PUSH1 0x0 DUP1 SLOAD PUSH1 0x0 SLOAD PUSH2 0x1C2 SWAP2 SWAP1 PUSH2 0x29F JUMP JUMPDEST SWAP1 POP SWAP1 JUMP JUMPDEST PUSH1 0x0 DUP2 CALLDATALOAD SWAP1 POP PUSH2 0x1D6 DUP2 PUSH2 0x318 JUMP JUMPDEST SWAP3 SWAP2 POP POP JUMP JUMPDEST PUSH1 0x0 DUP2 CALLDATALOAD SWAP1 POP PUSH2 0x1EB DUP2 PUSH2 0x32F JUMP JUMPDEST SWAP3 SWAP2 POP POP JUMP JUMPDEST PUSH1 0x0 PUSH1 0x20 DUP3 DUP5 SUB SLT ISZERO PUSH2 0x207 JUMPI PUSH2 0x206 PUSH2 0x313 JUMP JUMPDEST JUMPDEST PUSH1 0x0 PUSH2 0x215 DUP5 DUP3 DUP6 ADD PUSH2 0x1C7 JUMP JUMPDEST SWAP2 POP POP SWAP3 SWAP2 POP POP JUMP JUMPDEST PUSH1 0x0 PUSH1 0x20 DUP3 DUP5 SUB SLT ISZERO PUSH2 0x234 JUMPI PUSH2 0x233 PUSH2 0x313 JUMP JUMPDEST JUMPDEST PUSH1 0x0 PUSH2 0x242 DUP5 DUP3 DUP6 ADD PUSH2 0x1DC JUMP JUMPDEST SWAP2 POP POP SWAP3 SWAP2 POP POP JUMP JUMPDEST PUSH2 0x254 DUP2 PUSH2 0x2D0 JUMP JUMPDEST DUP3 MSTORE POP POP JUMP JUMPDEST PUSH2 0x263 DUP2 PUSH2 0x2DA JUMP JUMPDEST DUP3 MSTORE POP POP JUMP JUMPDEST PUSH1 0x0 PUSH1 0x20 DUP3 ADD SWAP1 POP PUSH2 0x27E PUSH1 0x0 DUP4 ADD DUP5 PUSH2 0x24B JUMP JUMPDEST SWAP3 SWAP2 POP POP JUMP JUMPDEST PUSH1 0x0 PUSH1 0x20 DUP3 ADD SWAP1 POP PUSH2 0x299 PUSH1 0x0 DUP4 ADD DUP5 PUSH2 0x25A JUMP JUMPDEST SWAP3 SWAP2 POP POP JUMP JUMPDEST PUSH1 0x0 PUSH2 0x2AA DUP3 PUSH2 0x2DA JUMP JUMPDEST SWAP2 POP PUSH2 0x2B5 DUP4 PUSH2 0x2DA JUMP JUMPDEST SWAP3 POP DUP3 PUSH2 0x2C5 JUMPI PUSH2 0x2C4 PUSH2 0x2E4 JUMP JUMPDEST JUMPDEST DUP3 DUP3 DIV SWAP1 POP SWAP3 SWAP2 POP POP JUMP JUMPDEST PUSH1 0x0 DUP2 SWAP1 POP SWAP2 SWAP1 POP JUMP JUMPDEST PUSH1 0x0 DUP2 SWAP1 POP SWAP2 SWAP1 POP JUMP JUMPDEST PUSH32 0x4E487B7100000000000000000000000000000000000000000000000000000000 PUSH1 0x0 MSTORE PUSH1 0x12 PUSH1 0x4 MSTORE PUSH1 0x24 PUSH1 0x0 REVERT JUMPDEST PUSH1 0x0 DUP1 REVERT JUMPDEST PUSH2 0x321 DUP2 PUSH2 0x2D0 JUMP JUMPDEST DUP2 EQ PUSH2 0x32C JUMPI PUSH1 0x0 DUP1 REVERT JUMPDEST POP JUMP JUMPDEST PUSH2 0x338 DUP2 PUSH2 0x2DA JUMP JUMPDEST DUP2 EQ PUSH2 0x343 JUMPI PUSH1 0x0 DUP1 REVERT JUMPDEST POP JUMP INVALID LOG2 PUSH5 0x6970667358 0x22 SLT KECCAK256 JUMP PUSH22 0xF320AA3F3BE240CB889C62204B41E08FA6D525A04347 DUP15 0x21 0xBB EXTCODEHASH 0xBE 0xA9 BLOCKHASH PUSH17 0x64736F6C63430008070033000000000000 "
				},
				"gasEstimates": {
					"creation": {
						"codeDepositCost": "178400",
						"executionCost": "220",
						"totalCost": "178620"
					},
					"external": {
						"getNumber()": "infinite",
						"getNumber1()": "2459",
						"num()": "2496",
						"num1()": "2452",
						"num2()": "2430",
						"setNumber(uint256)": "22565",
						"setNumber1(int256)": "22520",
						"setNumber2(uint256)": "22564"
					}
				},
				"methodIdentifiers": {
					"getNumber()": "f2c9ecd8",
					"getNumber1()": "9e911f4c",
					"num()": "4e70b1dc",
					"num1()": "3b9eac4b",
					"num2()": "15d4266c",
					"setNumber(uint256)": "3fb5c1cb",
					"setNumber1(int256)": "92b051d7",
					"setNumber2(uint256)": "ce29371b"
				}
			},
			"storageLayout": {
				"storage": [
					{
						"astId": 3,
						"contract": "sibig_learning/first prog.sol:TestContract",
						"label": "num",
						"offset": 0,
						"slot": "0",
						"type": "t_uint256"
					},
					{
						"astId": 5,
						"contract": "sibig_learning/first prog.sol:TestContract",
						"label": "num1",
						"offset": 0,
						"slot": "1",
						"type": "t_int256"
					},
					{
						"astId": 7,
						"contract": "sibig_learning/first prog.sol:TestContract",
						"label": "num2",
						"offset": 0,
						"slot": "2",
						"type": "t_uint256"
					}
				],
				"types": {
					"t_int256": {
						"encoding": "inplace",
						"label": "int256",
						"numberOfBytes": "32"
					},
					"t_uint256": {
						"encoding": "inplace",
						"label": "uint256",
						"numberOfBytes": "32"
					}
				}
			},
			"userdoc": {
				"kind": "user",
				"methods": {},
				"version": 1
			}
		}
	}
}