{
	"sibig_learning/learnStruct.sol": {
		"learnStruct": {
			"abi": [
				{
					"inputs": [
						{
							"internalType": "string",
							"name": "_name",
							"type": "string"
						},
						{
							"internalType": "uint256",
							"name": "_number",
							"type": "uint256"
						}
					],
					"name": "addStudent",
					"outputs": [],
					"stateMutability": "nonpayable",
					"type": "function"
				},
				{
					"inputs": [],
					"name": "getStudent",
					"outputs": [
						{
							"internalType": "uint256",
							"name": "",
							"type": "uint256"
						}
					],
					"stateMutability": "view",
					"type": "function"
				},
				{
					"inputs": [],
					"name": "students",
					"outputs": [
						{
							"internalType": "string",
							"name": "name",
							"type": "string"
						},
						{
							"internalType": "uint256",
							"name": "number_1",
							"type": "uint256"
						}
					],
					"stateMutability": "view",
					"type": "function"
				}
			],
			"devdoc": {
				"kind": "dev",
				"methods": {},
				"version": 1
			},
			"evm": {
				"assembly": "    /* \"sibig_learning/learnStruct.sol\":56:391  contract learnStruct {... */\n  mstore(0x40, 0x80)\n  callvalue\n  dup1\n  iszero\n  tag_1\n  jumpi\n  0x00\n  dup1\n  revert\ntag_1:\n  pop\n  dataSize(sub_0)\n  dup1\n  dataOffset(sub_0)\n  0x00\n  codecopy\n  0x00\n  return\nstop\n\nsub_0: assembly {\n        /* \"sibig_learning/learnStruct.sol\":56:391  contract learnStruct {... */\n      mstore(0x40, 0x80)\n      callvalue\n      dup1\n      iszero\n      tag_1\n      jumpi\n      0x00\n      dup1\n      revert\n    tag_1:\n      pop\n      jumpi(tag_2, lt(calldatasize, 0x04))\n      shr(0xe0, calldataload(0x00))\n      dup1\n      0x0e5eeef7\n      eq\n      tag_3\n      jumpi\n      dup1\n      0xb439548d\n      eq\n      tag_4\n      jumpi\n      dup1\n      0xecf944f8\n      eq\n      tag_5\n      jumpi\n    tag_2:\n      0x00\n      dup1\n      revert\n        /* \"sibig_learning/learnStruct.sol\":162:299  function addStudent ( string calldata _name, uint _number) public {... */\n    tag_3:\n      tag_6\n      0x04\n      dup1\n      calldatasize\n      sub\n      dup2\n      add\n      swap1\n      tag_7\n      swap2\n      swap1\n      tag_8\n      jump\t// in\n    tag_7:\n      tag_9\n      jump\t// in\n    tag_6:\n      stop\n        /* \"sibig_learning/learnStruct.sol\":301:389  function getStudent () public view returns(uint) {... */\n    tag_4:\n      tag_10\n      tag_11\n      jump\t// in\n    tag_10:\n      mload(0x40)\n      tag_12\n      swap2\n      swap1\n      tag_13\n      jump\t// in\n    tag_12:\n      mload(0x40)\n      dup1\n      swap2\n      sub\n      swap1\n      return\n        /* \"sibig_learning/learnStruct.sol\":136:159  Student public students */\n    tag_5:\n      tag_14\n      tag_15\n      jump\t// in\n    tag_14:\n      mload(0x40)\n      tag_16\n      swap3\n      swap2\n      swap1\n      tag_17\n      jump\t// in\n    tag_16:\n      mload(0x40)\n      dup1\n      swap2\n      sub\n      swap1\n      return\n        /* \"sibig_learning/learnStruct.sol\":162:299  function addStudent ( string calldata _name, uint _number) public {... */\n    tag_9:\n        /* \"sibig_learning/learnStruct.sol\":256:261  _name */\n      dup3\n      dup3\n        /* \"sibig_learning/learnStruct.sol\":240:248  students */\n      0x00\n        /* \"sibig_learning/learnStruct.sol\":240:253  students.name */\n      dup1\n      add\n        /* \"sibig_learning/learnStruct.sol\":240:261  students.name = _name */\n      swap2\n      swap1\n      tag_19\n      swap3\n      swap2\n      swap1\n      tag_20\n      jump\t// in\n    tag_19:\n      pop\n        /* \"sibig_learning/learnStruct.sol\":288:295  _number */\n      dup1\n        /* \"sibig_learning/learnStruct.sol\":268:276  students */\n      0x00\n        /* \"sibig_learning/learnStruct.sol\":268:285  students.number_1 */\n      0x01\n      add\n        /* \"sibig_learning/learnStruct.sol\":268:295  students.number_1 = _number */\n      dup2\n      swap1\n      sstore\n      pop\n        /* \"sibig_learning/learnStruct.sol\":162:299  function addStudent ( string calldata _name, uint _number) public {... */\n      pop\n      pop\n      pop\n      jump\t// out\n        /* \"sibig_learning/learnStruct.sol\":301:389  function getStudent () public view returns(uint) {... */\n    tag_11:\n        /* \"sibig_learning/learnStruct.sol\":344:348  uint */\n      0x00\n        /* \"sibig_learning/learnStruct.sol\":368:376  students */\n      dup1\n        /* \"sibig_learning/learnStruct.sol\":368:385  students.number_1 */\n      0x01\n      add\n      sload\n        /* \"sibig_learning/learnStruct.sol\":361:385  return students.number_1 */\n      swap1\n      pop\n        /* \"sibig_learning/learnStruct.sol\":301:389  function getStudent () public view returns(uint) {... */\n      swap1\n      jump\t// out\n        /* \"sibig_learning/learnStruct.sol\":136:159  Student public students */\n    tag_15:\n      0x00\n      dup1\n      0x00\n      add\n      dup1\n      sload\n      tag_22\n      swap1\n      tag_23\n      jump\t// in\n    tag_22:\n      dup1\n      0x1f\n      add\n      0x20\n      dup1\n      swap2\n      div\n      mul\n      0x20\n      add\n      mload(0x40)\n      swap1\n      dup2\n      add\n      0x40\n      mstore\n      dup1\n      swap3\n      swap2\n      swap1\n      dup2\n      dup2\n      mstore\n      0x20\n      add\n      dup3\n      dup1\n      sload\n      tag_24\n      swap1\n      tag_23\n      jump\t// in\n    tag_24:\n      dup1\n      iszero\n      tag_25\n      jumpi\n      dup1\n      0x1f\n      lt\n      tag_26\n      jumpi\n      0x0100\n      dup1\n      dup4\n      sload\n      div\n      mul\n      dup4\n      mstore\n      swap2\n      0x20\n      add\n      swap2\n      jump(tag_25)\n    tag_26:\n      dup3\n      add\n      swap2\n      swap1\n      0x00\n      mstore\n      keccak256(0x00, 0x20)\n      swap1\n    tag_27:\n      dup2\n      sload\n      dup2\n      mstore\n      swap1\n      0x01\n      add\n      swap1\n      0x20\n      add\n      dup1\n      dup4\n      gt\n      tag_27\n      jumpi\n      dup3\n      swap1\n      sub\n      0x1f\n      and\n      dup3\n      add\n      swap2\n    tag_25:\n      pop\n      pop\n      pop\n      pop\n      pop\n      swap1\n      dup1\n      0x01\n      add\n      sload\n      swap1\n      pop\n      dup3\n      jump\t// out\n    tag_20:\n      dup3\n      dup1\n      sload\n      tag_28\n      swap1\n      tag_23\n      jump\t// in\n    tag_28:\n      swap1\n      0x00\n      mstore\n      keccak256(0x00, 0x20)\n      swap1\n      0x1f\n      add\n      0x20\n      swap1\n      div\n      dup2\n      add\n      swap3\n      dup3\n      tag_30\n      jumpi\n      0x00\n      dup6\n      sstore\n      jump(tag_29)\n    tag_30:\n      dup3\n      0x1f\n      lt\n      tag_31\n      jumpi\n      dup1\n      calldataload\n      not(0xff)\n      and\n      dup4\n      dup1\n      add\n      or\n      dup6\n      sstore\n      jump(tag_29)\n    tag_31:\n      dup3\n      dup1\n      add\n      0x01\n      add\n      dup6\n      sstore\n      dup3\n      iszero\n      tag_29\n      jumpi\n      swap2\n      dup3\n      add\n    tag_32:\n      dup3\n      dup2\n      gt\n      iszero\n      tag_33\n      jumpi\n      dup3\n      calldataload\n      dup3\n      sstore\n      swap2\n      0x20\n      add\n      swap2\n      swap1\n      0x01\n      add\n      swap1\n      jump(tag_32)\n    tag_33:\n    tag_29:\n      pop\n      swap1\n      pop\n      tag_34\n      swap2\n      swap1\n      tag_35\n      jump\t// in\n    tag_34:\n      pop\n      swap1\n      jump\t// out\n    tag_35:\n    tag_36:\n      dup1\n      dup3\n      gt\n      iszero\n      tag_37\n      jumpi\n      0x00\n      dup2\n      0x00\n      swap1\n      sstore\n      pop\n      0x01\n      add\n      jump(tag_36)\n    tag_37:\n      pop\n      swap1\n      jump\t// out\n        /* \"#utility.yul\":21:574   */\n    tag_39:\n        /* \"#utility.yul\":79:87   */\n      0x00\n        /* \"#utility.yul\":89:95   */\n      dup1\n        /* \"#utility.yul\":139:142   */\n      dup4\n        /* \"#utility.yul\":132:136   */\n      0x1f\n        /* \"#utility.yul\":124:130   */\n      dup5\n        /* \"#utility.yul\":120:137   */\n      add\n        /* \"#utility.yul\":116:143   */\n      slt\n        /* \"#utility.yul\":106:228   */\n      tag_41\n      jumpi\n        /* \"#utility.yul\":147:226   */\n      tag_42\n      tag_43\n      jump\t// in\n    tag_42:\n        /* \"#utility.yul\":106:228   */\n    tag_41:\n        /* \"#utility.yul\":260:266   */\n      dup3\n        /* \"#utility.yul\":247:267   */\n      calldataload\n        /* \"#utility.yul\":237:267   */\n      swap1\n      pop\n        /* \"#utility.yul\":290:308   */\n      0xffffffffffffffff\n        /* \"#utility.yul\":282:288   */\n      dup2\n        /* \"#utility.yul\":279:309   */\n      gt\n        /* \"#utility.yul\":276:393   */\n      iszero\n      tag_44\n      jumpi\n        /* \"#utility.yul\":312:391   */\n      tag_45\n      tag_46\n      jump\t// in\n    tag_45:\n        /* \"#utility.yul\":276:393   */\n    tag_44:\n        /* \"#utility.yul\":426:430   */\n      0x20\n        /* \"#utility.yul\":418:424   */\n      dup4\n        /* \"#utility.yul\":414:431   */\n      add\n        /* \"#utility.yul\":402:431   */\n      swap2\n      pop\n        /* \"#utility.yul\":480:483   */\n      dup4\n        /* \"#utility.yul\":472:476   */\n      0x01\n        /* \"#utility.yul\":464:470   */\n      dup3\n        /* \"#utility.yul\":460:477   */\n      mul\n        /* \"#utility.yul\":450:458   */\n      dup4\n        /* \"#utility.yul\":446:478   */\n      add\n        /* \"#utility.yul\":443:484   */\n      gt\n        /* \"#utility.yul\":440:568   */\n      iszero\n      tag_47\n      jumpi\n        /* \"#utility.yul\":487:566   */\n      tag_48\n      tag_49\n      jump\t// in\n    tag_48:\n        /* \"#utility.yul\":440:568   */\n    tag_47:\n        /* \"#utility.yul\":21:574   */\n      swap3\n      pop\n      swap3\n      swap1\n      pop\n      jump\t// out\n        /* \"#utility.yul\":580:719   */\n    tag_50:\n        /* \"#utility.yul\":626:631   */\n      0x00\n        /* \"#utility.yul\":664:670   */\n      dup2\n        /* \"#utility.yul\":651:671   */\n      calldataload\n        /* \"#utility.yul\":642:671   */\n      swap1\n      pop\n        /* \"#utility.yul\":680:713   */\n      tag_52\n        /* \"#utility.yul\":707:712   */\n      dup2\n        /* \"#utility.yul\":680:713   */\n      tag_53\n      jump\t// in\n    tag_52:\n        /* \"#utility.yul\":580:719   */\n      swap3\n      swap2\n      pop\n      pop\n      jump\t// out\n        /* \"#utility.yul\":725:1399   */\n    tag_8:\n        /* \"#utility.yul\":805:811   */\n      0x00\n        /* \"#utility.yul\":813:819   */\n      dup1\n        /* \"#utility.yul\":821:827   */\n      0x00\n        /* \"#utility.yul\":870:872   */\n      0x40\n        /* \"#utility.yul\":858:867   */\n      dup5\n        /* \"#utility.yul\":849:856   */\n      dup7\n        /* \"#utility.yul\":845:868   */\n      sub\n        /* \"#utility.yul\":841:873   */\n      slt\n        /* \"#utility.yul\":838:957   */\n      iszero\n      tag_55\n      jumpi\n        /* \"#utility.yul\":876:955   */\n      tag_56\n      tag_57\n      jump\t// in\n    tag_56:\n        /* \"#utility.yul\":838:957   */\n    tag_55:\n        /* \"#utility.yul\":1024:1025   */\n      0x00\n        /* \"#utility.yul\":1013:1022   */\n      dup5\n        /* \"#utility.yul\":1009:1026   */\n      add\n        /* \"#utility.yul\":996:1027   */\n      calldataload\n        /* \"#utility.yul\":1054:1072   */\n      0xffffffffffffffff\n        /* \"#utility.yul\":1046:1052   */\n      dup2\n        /* \"#utility.yul\":1043:1073   */\n      gt\n        /* \"#utility.yul\":1040:1157   */\n      iszero\n      tag_58\n      jumpi\n        /* \"#utility.yul\":1076:1155   */\n      tag_59\n      tag_60\n      jump\t// in\n    tag_59:\n        /* \"#utility.yul\":1040:1157   */\n    tag_58:\n        /* \"#utility.yul\":1189:1254   */\n      tag_61\n        /* \"#utility.yul\":1246:1253   */\n      dup7\n        /* \"#utility.yul\":1237:1243   */\n      dup3\n        /* \"#utility.yul\":1226:1235   */\n      dup8\n        /* \"#utility.yul\":1222:1244   */\n      add\n        /* \"#utility.yul\":1189:1254   */\n      tag_39\n      jump\t// in\n    tag_61:\n        /* \"#utility.yul\":1171:1254   */\n      swap4\n      pop\n      swap4\n      pop\n        /* \"#utility.yul\":967:1264   */\n      pop\n        /* \"#utility.yul\":1303:1305   */\n      0x20\n        /* \"#utility.yul\":1329:1382   */\n      tag_62\n        /* \"#utility.yul\":1374:1381   */\n      dup7\n        /* \"#utility.yul\":1365:1371   */\n      dup3\n        /* \"#utility.yul\":1354:1363   */\n      dup8\n        /* \"#utility.yul\":1350:1372   */\n      add\n        /* \"#utility.yul\":1329:1382   */\n      tag_50\n      jump\t// in\n    tag_62:\n        /* \"#utility.yul\":1319:1382   */\n      swap2\n      pop\n        /* \"#utility.yul\":1274:1392   */\n      pop\n        /* \"#utility.yul\":725:1399   */\n      swap3\n      pop\n      swap3\n      pop\n      swap3\n      jump\t// out\n        /* \"#utility.yul\":1405:1769   */\n    tag_63:\n        /* \"#utility.yul\":1493:1496   */\n      0x00\n        /* \"#utility.yul\":1521:1560   */\n      tag_65\n        /* \"#utility.yul\":1554:1559   */\n      dup3\n        /* \"#utility.yul\":1521:1560   */\n      tag_66\n      jump\t// in\n    tag_65:\n        /* \"#utility.yul\":1576:1647   */\n      tag_67\n        /* \"#utility.yul\":1640:1646   */\n      dup2\n        /* \"#utility.yul\":1635:1638   */\n      dup6\n        /* \"#utility.yul\":1576:1647   */\n      tag_68\n      jump\t// in\n    tag_67:\n        /* \"#utility.yul\":1569:1647   */\n      swap4\n      pop\n        /* \"#utility.yul\":1656:1708   */\n      tag_69\n        /* \"#utility.yul\":1701:1707   */\n      dup2\n        /* \"#utility.yul\":1696:1699   */\n      dup6\n        /* \"#utility.yul\":1689:1693   */\n      0x20\n        /* \"#utility.yul\":1682:1687   */\n      dup7\n        /* \"#utility.yul\":1678:1694   */\n      add\n        /* \"#utility.yul\":1656:1708   */\n      tag_70\n      jump\t// in\n    tag_69:\n        /* \"#utility.yul\":1733:1762   */\n      tag_71\n        /* \"#utility.yul\":1755:1761   */\n      dup2\n        /* \"#utility.yul\":1733:1762   */\n      tag_72\n      jump\t// in\n    tag_71:\n        /* \"#utility.yul\":1728:1731   */\n      dup5\n        /* \"#utility.yul\":1724:1763   */\n      add\n        /* \"#utility.yul\":1717:1763   */\n      swap2\n      pop\n        /* \"#utility.yul\":1497:1769   */\n      pop\n        /* \"#utility.yul\":1405:1769   */\n      swap3\n      swap2\n      pop\n      pop\n      jump\t// out\n        /* \"#utility.yul\":1775:1893   */\n    tag_73:\n        /* \"#utility.yul\":1862:1886   */\n      tag_75\n        /* \"#utility.yul\":1880:1885   */\n      dup2\n        /* \"#utility.yul\":1862:1886   */\n      tag_76\n      jump\t// in\n    tag_75:\n        /* \"#utility.yul\":1857:1860   */\n      dup3\n        /* \"#utility.yul\":1850:1887   */\n      mstore\n        /* \"#utility.yul\":1775:1893   */\n      pop\n      pop\n      jump\t// out\n        /* \"#utility.yul\":1899:2322   */\n    tag_17:\n        /* \"#utility.yul\":2040:2044   */\n      0x00\n        /* \"#utility.yul\":2078:2080   */\n      0x40\n        /* \"#utility.yul\":2067:2076   */\n      dup3\n        /* \"#utility.yul\":2063:2081   */\n      add\n        /* \"#utility.yul\":2055:2081   */\n      swap1\n      pop\n        /* \"#utility.yul\":2127:2136   */\n      dup2\n        /* \"#utility.yul\":2121:2125   */\n      dup2\n        /* \"#utility.yul\":2117:2137   */\n      sub\n        /* \"#utility.yul\":2113:2114   */\n      0x00\n        /* \"#utility.yul\":2102:2111   */\n      dup4\n        /* \"#utility.yul\":2098:2115   */\n      add\n        /* \"#utility.yul\":2091:2138   */\n      mstore\n        /* \"#utility.yul\":2155:2233   */\n      tag_78\n        /* \"#utility.yul\":2228:2232   */\n      dup2\n        /* \"#utility.yul\":2219:2225   */\n      dup6\n        /* \"#utility.yul\":2155:2233   */\n      tag_63\n      jump\t// in\n    tag_78:\n        /* \"#utility.yul\":2147:2233   */\n      swap1\n      pop\n        /* \"#utility.yul\":2243:2315   */\n      tag_79\n        /* \"#utility.yul\":2311:2313   */\n      0x20\n        /* \"#utility.yul\":2300:2309   */\n      dup4\n        /* \"#utility.yul\":2296:2314   */\n      add\n        /* \"#utility.yul\":2287:2293   */\n      dup5\n        /* \"#utility.yul\":2243:2315   */\n      tag_73\n      jump\t// in\n    tag_79:\n        /* \"#utility.yul\":1899:2322   */\n      swap4\n      swap3\n      pop\n      pop\n      pop\n      jump\t// out\n        /* \"#utility.yul\":2328:2550   */\n    tag_13:\n        /* \"#utility.yul\":2421:2425   */\n      0x00\n        /* \"#utility.yul\":2459:2461   */\n      0x20\n        /* \"#utility.yul\":2448:2457   */\n      dup3\n        /* \"#utility.yul\":2444:2462   */\n      add\n        /* \"#utility.yul\":2436:2462   */\n      swap1\n      pop\n        /* \"#utility.yul\":2472:2543   */\n      tag_81\n        /* \"#utility.yul\":2540:2541   */\n      0x00\n        /* \"#utility.yul\":2529:2538   */\n      dup4\n        /* \"#utility.yul\":2525:2542   */\n      add\n        /* \"#utility.yul\":2516:2522   */\n      dup5\n        /* \"#utility.yul\":2472:2543   */\n      tag_73\n      jump\t// in\n    tag_81:\n        /* \"#utility.yul\":2328:2550   */\n      swap3\n      swap2\n      pop\n      pop\n      jump\t// out\n        /* \"#utility.yul\":2637:2736   */\n    tag_66:\n        /* \"#utility.yul\":2689:2695   */\n      0x00\n        /* \"#utility.yul\":2723:2728   */\n      dup2\n        /* \"#utility.yul\":2717:2729   */\n      mload\n        /* \"#utility.yul\":2707:2729   */\n      swap1\n      pop\n        /* \"#utility.yul\":2637:2736   */\n      swap2\n      swap1\n      pop\n      jump\t// out\n        /* \"#utility.yul\":2742:2911   */\n    tag_68:\n        /* \"#utility.yul\":2826:2837   */\n      0x00\n        /* \"#utility.yul\":2860:2866   */\n      dup3\n        /* \"#utility.yul\":2855:2858   */\n      dup3\n        /* \"#utility.yul\":2848:2867   */\n      mstore\n        /* \"#utility.yul\":2900:2904   */\n      0x20\n        /* \"#utility.yul\":2895:2898   */\n      dup3\n        /* \"#utility.yul\":2891:2905   */\n      add\n        /* \"#utility.yul\":2876:2905   */\n      swap1\n      pop\n        /* \"#utility.yul\":2742:2911   */\n      swap3\n      swap2\n      pop\n      pop\n      jump\t// out\n        /* \"#utility.yul\":2917:2994   */\n    tag_76:\n        /* \"#utility.yul\":2954:2961   */\n      0x00\n        /* \"#utility.yul\":2983:2988   */\n      dup2\n        /* \"#utility.yul\":2972:2988   */\n      swap1\n      pop\n        /* \"#utility.yul\":2917:2994   */\n      swap2\n      swap1\n      pop\n      jump\t// out\n        /* \"#utility.yul\":3000:3307   */\n    tag_70:\n        /* \"#utility.yul\":3068:3069   */\n      0x00\n        /* \"#utility.yul\":3078:3191   */\n    tag_88:\n        /* \"#utility.yul\":3092:3098   */\n      dup4\n        /* \"#utility.yul\":3089:3090   */\n      dup2\n        /* \"#utility.yul\":3086:3099   */\n      lt\n        /* \"#utility.yul\":3078:3191   */\n      iszero\n      tag_90\n      jumpi\n        /* \"#utility.yul\":3177:3178   */\n      dup1\n        /* \"#utility.yul\":3172:3175   */\n      dup3\n        /* \"#utility.yul\":3168:3179   */\n      add\n        /* \"#utility.yul\":3162:3180   */\n      mload\n        /* \"#utility.yul\":3158:3159   */\n      dup2\n        /* \"#utility.yul\":3153:3156   */\n      dup5\n        /* \"#utility.yul\":3149:3160   */\n      add\n        /* \"#utility.yul\":3142:3181   */\n      mstore\n        /* \"#utility.yul\":3114:3116   */\n      0x20\n        /* \"#utility.yul\":3111:3112   */\n      dup2\n        /* \"#utility.yul\":3107:3117   */\n      add\n        /* \"#utility.yul\":3102:3117   */\n      swap1\n      pop\n        /* \"#utility.yul\":3078:3191   */\n      jump(tag_88)\n    tag_90:\n        /* \"#utility.yul\":3209:3215   */\n      dup4\n        /* \"#utility.yul\":3206:3207   */\n      dup2\n        /* \"#utility.yul\":3203:3216   */\n      gt\n        /* \"#utility.yul\":3200:3301   */\n      iszero\n      tag_91\n      jumpi\n        /* \"#utility.yul\":3289:3290   */\n      0x00\n        /* \"#utility.yul\":3280:3286   */\n      dup5\n        /* \"#utility.yul\":3275:3278   */\n      dup5\n        /* \"#utility.yul\":3271:3287   */\n      add\n        /* \"#utility.yul\":3264:3291   */\n      mstore\n        /* \"#utility.yul\":3200:3301   */\n    tag_91:\n        /* \"#utility.yul\":3049:3307   */\n      pop\n        /* \"#utility.yul\":3000:3307   */\n      pop\n      pop\n      pop\n      jump\t// out\n        /* \"#utility.yul\":3313:3633   */\n    tag_23:\n        /* \"#utility.yul\":3357:3363   */\n      0x00\n        /* \"#utility.yul\":3394:3395   */\n      0x02\n        /* \"#utility.yul\":3388:3392   */\n      dup3\n        /* \"#utility.yul\":3384:3396   */\n      div\n        /* \"#utility.yul\":3374:3396   */\n      swap1\n      pop\n        /* \"#utility.yul\":3441:3442   */\n      0x01\n        /* \"#utility.yul\":3435:3439   */\n      dup3\n        /* \"#utility.yul\":3431:3443   */\n      and\n        /* \"#utility.yul\":3462:3480   */\n      dup1\n        /* \"#utility.yul\":3452:3533   */\n      tag_93\n      jumpi\n        /* \"#utility.yul\":3518:3522   */\n      0x7f\n        /* \"#utility.yul\":3510:3516   */\n      dup3\n        /* \"#utility.yul\":3506:3523   */\n      and\n        /* \"#utility.yul\":3496:3523   */\n      swap2\n      pop\n        /* \"#utility.yul\":3452:3533   */\n    tag_93:\n        /* \"#utility.yul\":3580:3582   */\n      0x20\n        /* \"#utility.yul\":3572:3578   */\n      dup3\n        /* \"#utility.yul\":3569:3583   */\n      lt\n        /* \"#utility.yul\":3549:3567   */\n      dup2\n        /* \"#utility.yul\":3546:3584   */\n      eq\n        /* \"#utility.yul\":3543:3627   */\n      iszero\n      tag_94\n      jumpi\n        /* \"#utility.yul\":3599:3617   */\n      tag_95\n      tag_96\n      jump\t// in\n    tag_95:\n        /* \"#utility.yul\":3543:3627   */\n    tag_94:\n        /* \"#utility.yul\":3364:3633   */\n      pop\n        /* \"#utility.yul\":3313:3633   */\n      swap2\n      swap1\n      pop\n      jump\t// out\n        /* \"#utility.yul\":3639:3819   */\n    tag_96:\n        /* \"#utility.yul\":3687:3764   */\n      0x4e487b7100000000000000000000000000000000000000000000000000000000\n        /* \"#utility.yul\":3684:3685   */\n      0x00\n        /* \"#utility.yul\":3677:3765   */\n      mstore\n        /* \"#utility.yul\":3784:3788   */\n      0x22\n        /* \"#utility.yul\":3781:3782   */\n      0x04\n        /* \"#utility.yul\":3774:3789   */\n      mstore\n        /* \"#utility.yul\":3808:3812   */\n      0x24\n        /* \"#utility.yul\":3805:3806   */\n      0x00\n        /* \"#utility.yul\":3798:3813   */\n      revert\n        /* \"#utility.yul\":3825:3942   */\n    tag_46:\n        /* \"#utility.yul\":3934:3935   */\n      0x00\n        /* \"#utility.yul\":3931:3932   */\n      dup1\n        /* \"#utility.yul\":3924:3936   */\n      revert\n        /* \"#utility.yul\":3948:4065   */\n    tag_43:\n        /* \"#utility.yul\":4057:4058   */\n      0x00\n        /* \"#utility.yul\":4054:4055   */\n      dup1\n        /* \"#utility.yul\":4047:4059   */\n      revert\n        /* \"#utility.yul\":4071:4188   */\n    tag_49:\n        /* \"#utility.yul\":4180:4181   */\n      0x00\n        /* \"#utility.yul\":4177:4178   */\n      dup1\n        /* \"#utility.yul\":4170:4182   */\n      revert\n        /* \"#utility.yul\":4194:4311   */\n    tag_60:\n        /* \"#utility.yul\":4303:4304   */\n      0x00\n        /* \"#utility.yul\":4300:4301   */\n      dup1\n        /* \"#utility.yul\":4293:4305   */\n      revert\n        /* \"#utility.yul\":4317:4434   */\n    tag_57:\n        /* \"#utility.yul\":4426:4427   */\n      0x00\n        /* \"#utility.yul\":4423:4424   */\n      dup1\n        /* \"#utility.yul\":4416:4428   */\n      revert\n        /* \"#utility.yul\":4440:4542   */\n    tag_72:\n        /* \"#utility.yul\":4481:4487   */\n      0x00\n        /* \"#utility.yul\":4532:4534   */\n      0x1f\n        /* \"#utility.yul\":4528:4535   */\n      not\n        /* \"#utility.yul\":4523:4525   */\n      0x1f\n        /* \"#utility.yul\":4516:4521   */\n      dup4\n        /* \"#utility.yul\":4512:4526   */\n      add\n        /* \"#utility.yul\":4508:4536   */\n      and\n        /* \"#utility.yul\":4498:4536   */\n      swap1\n      pop\n        /* \"#utility.yul\":4440:4542   */\n      swap2\n      swap1\n      pop\n      jump\t// out\n        /* \"#utility.yul\":4548:4670   */\n    tag_53:\n        /* \"#utility.yul\":4621:4645   */\n      tag_105\n        /* \"#utility.yul\":4639:4644   */\n      dup2\n        /* \"#utility.yul\":4621:4645   */\n      tag_76\n      jump\t// in\n    tag_105:\n        /* \"#utility.yul\":4614:4619   */\n      dup2\n        /* \"#utility.yul\":4611:4646   */\n      eq\n        /* \"#utility.yul\":4601:4664   */\n      tag_106\n      jumpi\n        /* \"#utility.yul\":4660:4661   */\n      0x00\n        /* \"#utility.yul\":4657:4658   */\n      dup1\n        /* \"#utility.yul\":4650:4662   */\n      revert\n        /* \"#utility.yul\":4601:4664   */\n    tag_106:\n        /* \"#utility.yul\":4548:4670   */\n      pop\n      jump\t// out\n\n    auxdata: 0xa2646970667358221220f0bbe864a3c813ac356c9fcdef275c0bd1f8a142b5c72f146a839b0d83ec7f1e64736f6c63430008070033\n}\n",
				"bytecode": {
					"linkReferences": {},
					"object": "608060405234801561001057600080fd5b5061049a806100206000396000f3fe608060405234801561001057600080fd5b50600436106100415760003560e01c80630e5eeef714610046578063b439548d14610062578063ecf944f814610080575b600080fd5b610060600480360381019061005b9190610276565b61009f565b005b61006a6100c2565b604051610077919061034e565b60405180910390f35b6100886100ce565b60405161009692919061031e565b60405180910390f35b82826000800191906100b2929190610168565b5080600060010181905550505050565b60008060010154905090565b60008060000180546100df906103c2565b80601f016020809104026020016040519081016040528092919081815260200182805461010b906103c2565b80156101585780601f1061012d57610100808354040283529160200191610158565b820191906000526020600020905b81548152906001019060200180831161013b57829003601f168201915b5050505050908060010154905082565b828054610174906103c2565b90600052602060002090601f01602090048101928261019657600085556101dd565b82601f106101af57803560ff19168380011785556101dd565b828001600101855582156101dd579182015b828111156101dc5782358255916020019190600101906101c1565b5b5090506101ea91906101ee565b5090565b5b808211156102075760008160009055506001016101ef565b5090565b60008083601f84011261022157610220610428565b5b8235905067ffffffffffffffff81111561023e5761023d610423565b5b60208301915083600182028301111561025a5761025961042d565b5b9250929050565b6000813590506102708161044d565b92915050565b60008060006040848603121561028f5761028e610437565b5b600084013567ffffffffffffffff8111156102ad576102ac610432565b5b6102b98682870161020b565b935093505060206102cc86828701610261565b9150509250925092565b60006102e182610369565b6102eb8185610374565b93506102fb81856020860161038f565b6103048161043c565b840191505092915050565b61031881610385565b82525050565b6000604082019050818103600083015261033881856102d6565b9050610347602083018461030f565b9392505050565b6000602082019050610363600083018461030f565b92915050565b600081519050919050565b600082825260208201905092915050565b6000819050919050565b60005b838110156103ad578082015181840152602081019050610392565b838111156103bc576000848401525b50505050565b600060028204905060018216806103da57607f821691505b602082108114156103ee576103ed6103f4565b5b50919050565b7f4e487b7100000000000000000000000000000000000000000000000000000000600052602260045260246000fd5b600080fd5b600080fd5b600080fd5b600080fd5b600080fd5b6000601f19601f8301169050919050565b61045681610385565b811461046157600080fd5b5056fea2646970667358221220f0bbe864a3c813ac356c9fcdef275c0bd1f8a142b5c72f146a839b0d83ec7f1e64736f6c63430008070033",
					"opcodes": "PUSH1 0x80 PUSH1 0x40 MSTORE CALLVALUE DUP1 ISZERO PUSH2 0x10 JUMPI PUSH1 0x0 DUP1 REVERT JUMPDEST POP PUSH2 0x49A DUP1 PUSH2 0x20 PUSH1 0x0 CODECOPY PUSH1 0x0 RETURN INVALID PUSH1 0x80 PUSH1 0x40 MSTORE CALLVALUE DUP1 ISZERO PUSH2 0x10 JUMPI PUSH1 0x0 DUP1 REVERT JUMPDEST POP PUSH1 0x4 CALLDATASIZE LT PUSH2 0x41 JUMPI PUSH1 0x0 CALLDATALOAD PUSH1 0xE0 SHR DUP1 PUSH4 0xE5EEEF7 EQ PUSH2 0x46 JUMPI DUP1 PUSH4 0xB439548D EQ PUSH2 0x62 JUMPI DUP1 PUSH4 0xECF944F8 EQ PUSH2 0x80 JUMPI JUMPDEST PUSH1 0x0 DUP1 REVERT JUMPDEST PUSH2 0x60 PUSH1 0x4 DUP1 CALLDATASIZE SUB DUP2 ADD SWAP1 PUSH2 0x5B SWAP2 SWAP1 PUSH2 0x276 JUMP JUMPDEST PUSH2 0x9F JUMP JUMPDEST STOP JUMPDEST PUSH2 0x6A PUSH2 0xC2 JUMP JUMPDEST PUSH1 0x40 MLOAD PUSH2 0x77 SWAP2 SWAP1 PUSH2 0x34E JUMP JUMPDEST PUSH1 0x40 MLOAD DUP1 SWAP2 SUB SWAP1 RETURN JUMPDEST PUSH2 0x88 PUSH2 0xCE JUMP JUMPDEST PUSH1 0x40 MLOAD PUSH2 0x96 SWAP3 SWAP2 SWAP1 PUSH2 0x31E JUMP JUMPDEST PUSH1 0x40 MLOAD DUP1 SWAP2 SUB SWAP1 RETURN JUMPDEST DUP3 DUP3 PUSH1 0x0 DUP1 ADD SWAP2 SWAP1 PUSH2 0xB2 SWAP3 SWAP2 SWAP1 PUSH2 0x168 JUMP JUMPDEST POP DUP1 PUSH1 0x0 PUSH1 0x1 ADD DUP2 SWAP1 SSTORE POP POP POP POP JUMP JUMPDEST PUSH1 0x0 DUP1 PUSH1 0x1 ADD SLOAD SWAP1 POP SWAP1 JUMP JUMPDEST PUSH1 0x0 DUP1 PUSH1 0x0 ADD DUP1 SLOAD PUSH2 0xDF SWAP1 PUSH2 0x3C2 JUMP JUMPDEST DUP1 PUSH1 0x1F ADD PUSH1 0x20 DUP1 SWAP2 DIV MUL PUSH1 0x20 ADD PUSH1 0x40 MLOAD SWAP1 DUP2 ADD PUSH1 0x40 MSTORE DUP1 SWAP3 SWAP2 SWAP1 DUP2 DUP2 MSTORE PUSH1 0x20 ADD DUP3 DUP1 SLOAD PUSH2 0x10B SWAP1 PUSH2 0x3C2 JUMP JUMPDEST DUP1 ISZERO PUSH2 0x158 JUMPI DUP1 PUSH1 0x1F LT PUSH2 0x12D JUMPI PUSH2 0x100 DUP1 DUP4 SLOAD DIV MUL DUP4 MSTORE SWAP2 PUSH1 0x20 ADD SWAP2 PUSH2 0x158 JUMP JUMPDEST DUP3 ADD SWAP2 SWAP1 PUSH1 0x0 MSTORE PUSH1 0x20 PUSH1 0x0 KECCAK256 SWAP1 JUMPDEST DUP2 SLOAD DUP2 MSTORE SWAP1 PUSH1 0x1 ADD SWAP1 PUSH1 0x20 ADD DUP1 DUP4 GT PUSH2 0x13B JUMPI DUP3 SWAP1 SUB PUSH1 0x1F AND DUP3 ADD SWAP2 JUMPDEST POP POP POP POP POP SWAP1 DUP1 PUSH1 0x1 ADD SLOAD SWAP1 POP DUP3 JUMP JUMPDEST DUP3 DUP1 SLOAD PUSH2 0x174 SWAP1 PUSH2 0x3C2 JUMP JUMPDEST SWAP1 PUSH1 0x0 MSTORE PUSH1 0x20 PUSH1 0x0 KECCAK256 SWAP1 PUSH1 0x1F ADD PUSH1 0x20 SWAP1 DIV DUP2 ADD SWAP3 DUP3 PUSH2 0x196 JUMPI PUSH1 0x0 DUP6 SSTORE PUSH2 0x1DD JUMP JUMPDEST DUP3 PUSH1 0x1F LT PUSH2 0x1AF JUMPI DUP1 CALLDATALOAD PUSH1 0xFF NOT AND DUP4 DUP1 ADD OR DUP6 SSTORE PUSH2 0x1DD JUMP JUMPDEST DUP3 DUP1 ADD PUSH1 0x1 ADD DUP6 SSTORE DUP3 ISZERO PUSH2 0x1DD JUMPI SWAP2 DUP3 ADD JUMPDEST DUP3 DUP2 GT ISZERO PUSH2 0x1DC JUMPI DUP3 CALLDATALOAD DUP3 SSTORE SWAP2 PUSH1 0x20 ADD SWAP2 SWAP1 PUSH1 0x1 ADD SWAP1 PUSH2 0x1C1 JUMP JUMPDEST JUMPDEST POP SWAP1 POP PUSH2 0x1EA SWAP2 SWAP1 PUSH2 0x1EE JUMP JUMPDEST POP SWAP1 JUMP JUMPDEST JUMPDEST DUP1 DUP3 GT ISZERO PUSH2 0x207 JUMPI PUSH1 0x0 DUP2 PUSH1 0x0 SWAP1 SSTORE POP PUSH1 0x1 ADD PUSH2 0x1EF JUMP JUMPDEST POP SWAP1 JUMP JUMPDEST PUSH1 0x0 DUP1 DUP4 PUSH1 0x1F DUP5 ADD SLT PUSH2 0x221 JUMPI PUSH2 0x220 PUSH2 0x428 JUMP JUMPDEST JUMPDEST DUP3 CALLDATALOAD SWAP1 POP PUSH8 0xFFFFFFFFFFFFFFFF DUP2 GT ISZERO PUSH2 0x23E JUMPI PUSH2 0x23D PUSH2 0x423 JUMP JUMPDEST JUMPDEST PUSH1 0x20 DUP4 ADD SWAP2 POP DUP4 PUSH1 0x1 DUP3 MUL DUP4 ADD GT ISZERO PUSH2 0x25A JUMPI PUSH2 0x259 PUSH2 0x42D JUMP JUMPDEST JUMPDEST SWAP3 POP SWAP3 SWAP1 POP JUMP JUMPDEST PUSH1 0x0 DUP2 CALLDATALOAD SWAP1 POP PUSH2 0x270 DUP2 PUSH2 0x44D JUMP JUMPDEST SWAP3 SWAP2 POP POP JUMP JUMPDEST PUSH1 0x0 DUP1 PUSH1 0x0 PUSH1 0x40 DUP5 DUP7 SUB SLT ISZERO PUSH2 0x28F JUMPI PUSH2 0x28E PUSH2 0x437 JUMP JUMPDEST JUMPDEST PUSH1 0x0 DUP5 ADD CALLDATALOAD PUSH8 0xFFFFFFFFFFFFFFFF DUP2 GT ISZERO PUSH2 0x2AD JUMPI PUSH2 0x2AC PUSH2 0x432 JUMP JUMPDEST JUMPDEST PUSH2 0x2B9 DUP7 DUP3 DUP8 ADD PUSH2 0x20B JUMP JUMPDEST SWAP4 POP SWAP4 POP POP PUSH1 0x20 PUSH2 0x2CC DUP7 DUP3 DUP8 ADD PUSH2 0x261 JUMP JUMPDEST SWAP2 POP POP SWAP3 POP SWAP3 POP SWAP3 JUMP JUMPDEST PUSH1 0x0 PUSH2 0x2E1 DUP3 PUSH2 0x369 JUMP JUMPDEST PUSH2 0x2EB DUP2 DUP6 PUSH2 0x374 JUMP JUMPDEST SWAP4 POP PUSH2 0x2FB DUP2 DUP6 PUSH1 0x20 DUP7 ADD PUSH2 0x38F JUMP JUMPDEST PUSH2 0x304 DUP2 PUSH2 0x43C JUMP JUMPDEST DUP5 ADD SWAP2 POP POP SWAP3 SWAP2 POP POP JUMP JUMPDEST PUSH2 0x318 DUP2 PUSH2 0x385 JUMP JUMPDEST DUP3 MSTORE POP POP JUMP JUMPDEST PUSH1 0x0 PUSH1 0x40 DUP3 ADD SWAP1 POP DUP2 DUP2 SUB PUSH1 0x0 DUP4 ADD MSTORE PUSH2 0x338 DUP2 DUP6 PUSH2 0x2D6 JUMP JUMPDEST SWAP1 POP PUSH2 0x347 PUSH1 0x20 DUP4 ADD DUP5 PUSH2 0x30F JUMP JUMPDEST SWAP4 SWAP3 POP POP POP JUMP JUMPDEST PUSH1 0x0 PUSH1 0x20 DUP3 ADD SWAP1 POP PUSH2 0x363 PUSH1 0x0 DUP4 ADD DUP5 PUSH2 0x30F JUMP JUMPDEST SWAP3 SWAP2 POP POP JUMP JUMPDEST PUSH1 0x0 DUP2 MLOAD SWAP1 POP SWAP2 SWAP1 POP JUMP JUMPDEST PUSH1 0x0 DUP3 DUP3 MSTORE PUSH1 0x20 DUP3 ADD SWAP1 POP SWAP3 SWAP2 POP POP JUMP JUMPDEST PUSH1 0x0 DUP2 SWAP1 POP SWAP2 SWAP1 POP JUMP JUMPDEST PUSH1 0x0 JUMPDEST DUP4 DUP2 LT ISZERO PUSH2 0x3AD JUMPI DUP1 DUP3 ADD MLOAD DUP2 DUP5 ADD MSTORE PUSH1 0x20 DUP2 ADD SWAP1 POP PUSH2 0x392 JUMP JUMPDEST DUP4 DUP2 GT ISZERO PUSH2 0x3BC JUMPI PUSH1 0x0 DUP5 DUP5 ADD MSTORE JUMPDEST POP POP POP POP JUMP JUMPDEST PUSH1 0x0 PUSH1 0x2 DUP3 DIV SWAP1 POP PUSH1 0x1 DUP3 AND DUP1 PUSH2 0x3DA JUMPI PUSH1 0x7F DUP3 AND SWAP2 POP JUMPDEST PUSH1 0x20 DUP3 LT DUP2 EQ ISZERO PUSH2 0x3EE JUMPI PUSH2 0x3ED PUSH2 0x3F4 JUMP JUMPDEST JUMPDEST POP SWAP2 SWAP1 POP JUMP JUMPDEST PUSH32 0x4E487B7100000000000000000000000000000000000000000000000000000000 PUSH1 0x0 MSTORE PUSH1 0x22 PUSH1 0x4 MSTORE PUSH1 0x24 PUSH1 0x0 REVERT JUMPDEST PUSH1 0x0 DUP1 REVERT JUMPDEST PUSH1 0x0 DUP1 REVERT JUMPDEST PUSH1 0x0 DUP1 REVERT JUMPDEST PUSH1 0x0 DUP1 REVERT JUMPDEST PUSH1 0x0 DUP1 REVERT JUMPDEST PUSH1 0x0 PUSH1 0x1F NOT PUSH1 0x1F DUP4 ADD AND SWAP1 POP SWAP2 SWAP1 POP JUMP JUMPDEST PUSH2 0x456 DUP2 PUSH2 0x385 JUMP JUMPDEST DUP2 EQ PUSH2 0x461 JUMPI PUSH1 0x0 DUP1 REVERT JUMPDEST POP JUMP INVALID LOG2 PUSH5 0x6970667358 0x22 SLT KECCAK256 CREATE 0xBB 0xE8 PUSH5 0xA3C813AC35 PUSH13 0x9FCDEF275C0BD1F8A142B5C72F EQ PUSH11 0x839B0D83EC7F1E64736F6C PUSH4 0x43000807 STOP CALLER "
				},
				"gasEstimates": {
					"creation": {
						"codeDepositCost": "235600",
						"executionCost": "275",
						"totalCost": "235875"
					},
					"external": {
						"addStudent(string,uint256)": "infinite",
						"getStudent()": "2443",
						"students()": "infinite"
					}
				},
				"methodIdentifiers": {
					"addStudent(string,uint256)": "0e5eeef7",
					"getStudent()": "b439548d",
					"students()": "ecf944f8"
				}
			},
			"storageLayout": {
				"storage": [
					{
						"astId": 9,
						"contract": "sibig_learning/learnStruct.sol:learnStruct",
						"label": "students",
						"offset": 0,
						"slot": "0",
						"type": "t_struct(Student)6_storage"
					}
				],
				"types": {
					"t_string_storage": {
						"encoding": "bytes",
						"label": "string",
						"numberOfBytes": "32"
					},
					"t_struct(Student)6_storage": {
						"encoding": "inplace",
						"label": "struct learnStruct.Student",
						"members": [
							{
								"astId": 3,
								"contract": "sibig_learning/learnStruct.sol:learnStruct",
								"label": "name",
								"offset": 0,
								"slot": "0",
								"type": "t_string_storage"
							},
							{
								"astId": 5,
								"contract": "sibig_learning/learnStruct.sol:learnStruct",
								"label": "number_1",
								"offset": 0,
								"slot": "1",
								"type": "t_uint256"
							}
						],
						"numberOfBytes": "64"
					},
					"t_uint256": {
						"encoding": "inplace",
						"label": "uint256",
						"numberOfBytes": "32"
					}
				}
			},
			"userdoc": {
				"kind": "user",
				"methods": {},
				"version": 1
			}
		}
	}
}