{
	"sibig_learning/first prog.sol": {
		"TestContract": {
			"abi": [
				{
					"inputs": [],
					"name": "getNumber",
					"outputs": [
						{
							"internalType": "uint256",
							"name": "",
							"type": "uint256"
						}
					],
					"stateMutability": "view",
					"type": "function"
				},
				{
					"inputs": [],
					"name": "getNumber1",
					"outputs": [
						{
							"internalType": "int256",
							"name": "",
							"type": "int256"
						}
					],
					"stateMutability": "view",
					"type": "function"
				},
				{
					"inputs": [],
					"name": "num",
					"outputs": [
						{
							"internalType": "uint256",
							"name": "",
							"type": "uint256"
						}
					],
					"stateMutability": "view",
					"type": "function"
				},
				{
					"inputs": [],
					"name": "num1",
					"outputs": [
						{
							"internalType": "int256",
							"name": "",
							"type": "int256"
						}
					],
					"stateMutability": "view",
					"type": "function"
				},
				{
					"inputs": [
						{
							"internalType": "uint256",
							"name": "_num",
							"type": "uint256"
						}
					],
					"name": "setNumber",
					"outputs": [],
					"stateMutability": "nonpayable",
					"type": "function"
				},
				{
					"inputs": [
						{
							"internalType": "int256",
							"name": "_num1",
							"type": "int256"
						}
					],
					"name": "setNumber",
					"outputs": [],
					"stateMutability": "nonpayable",
					"type": "function"
				}
			],
			"devdoc": {
				"kind": "dev",
				"methods": {},
				"version": 1
			},
			"evm": {
				"assembly": "    /* \"sibig_learning/first prog.sol\":56:461  contract TestContract {... */\n  mstore(0x40, 0x80)\n  callvalue\n  dup1\n  iszero\n  tag_1\n  jumpi\n  0x00\n  dup1\n  revert\ntag_1:\n  pop\n  dataSize(sub_0)\n  dup1\n  dataOffset(sub_0)\n  0x00\n  codecopy\n  0x00\n  return\nstop\n\nsub_0: assembly {\n        /* \"sibig_learning/first prog.sol\":56:461  contract TestContract {... */\n      mstore(0x40, 0x80)\n      callvalue\n      dup1\n      iszero\n      tag_1\n      jumpi\n      0x00\n      dup1\n      revert\n    tag_1:\n      pop\n      jumpi(tag_2, lt(calldatasize, 0x04))\n      shr(0xe0, calldataload(0x00))\n      dup1\n      0x3b9eac4b\n      eq\n      tag_3\n      jumpi\n      dup1\n      0x3fb5c1cb\n      eq\n      tag_4\n      jumpi\n      dup1\n      0x4e70b1dc\n      eq\n      tag_5\n      jumpi\n      dup1\n      0x9cf27f37\n      eq\n      tag_6\n      jumpi\n      dup1\n      0x9e911f4c\n      eq\n      tag_7\n      jumpi\n      dup1\n      0xf2c9ecd8\n      eq\n      tag_8\n      jumpi\n    tag_2:\n      0x00\n      dup1\n      revert\n        /* \"sibig_learning/first prog.sol\":107:122  int public num1 */\n    tag_3:\n      tag_9\n      tag_10\n      jump\t// in\n    tag_9:\n      mload(0x40)\n      tag_11\n      swap2\n      swap1\n      tag_12\n      jump\t// in\n    tag_11:\n      mload(0x40)\n      dup1\n      swap2\n      sub\n      swap1\n      return\n        /* \"sibig_learning/first prog.sol\":131:202  function setNumber ( uint _num) public ... */\n    tag_4:\n      tag_13\n      0x04\n      dup1\n      calldatasize\n      sub\n      dup2\n      add\n      swap1\n      tag_14\n      swap2\n      swap1\n      tag_15\n      jump\t// in\n    tag_14:\n      tag_16\n      jump\t// in\n    tag_13:\n      stop\n        /* \"sibig_learning/first prog.sol\":85:100  uint public num */\n    tag_5:\n      tag_17\n      tag_18\n      jump\t// in\n    tag_17:\n      mload(0x40)\n      tag_19\n      swap2\n      swap1\n      tag_20\n      jump\t// in\n    tag_19:\n      mload(0x40)\n      dup1\n      swap2\n      sub\n      swap1\n      return\n        /* \"sibig_learning/first prog.sol\":299:372  function setNumber ( int _num1) public ... */\n    tag_6:\n      tag_21\n      0x04\n      dup1\n      calldatasize\n      sub\n      dup2\n      add\n      swap1\n      tag_22\n      swap2\n      swap1\n      tag_23\n      jump\t// in\n    tag_22:\n      tag_24\n      jump\t// in\n    tag_21:\n      stop\n        /* \"sibig_learning/first prog.sol\":380:459  function getNumber1() public view returns(int)... */\n    tag_7:\n      tag_25\n      tag_26\n      jump\t// in\n    tag_25:\n      mload(0x40)\n      tag_27\n      swap2\n      swap1\n      tag_12\n      jump\t// in\n    tag_27:\n      mload(0x40)\n      dup1\n      swap2\n      sub\n      swap1\n      return\n        /* \"sibig_learning/first prog.sol\":208:292  function getNumber() public view returns(uint)... */\n    tag_8:\n      tag_28\n      tag_29\n      jump\t// in\n    tag_28:\n      mload(0x40)\n      tag_30\n      swap2\n      swap1\n      tag_20\n      jump\t// in\n    tag_30:\n      mload(0x40)\n      dup1\n      swap2\n      sub\n      swap1\n      return\n        /* \"sibig_learning/first prog.sol\":107:122  int public num1 */\n    tag_10:\n      sload(0x01)\n      dup2\n      jump\t// out\n        /* \"sibig_learning/first prog.sol\":131:202  function setNumber ( uint _num) public ... */\n    tag_16:\n        /* \"sibig_learning/first prog.sol\":191:195  _num */\n      dup1\n        /* \"sibig_learning/first prog.sol\":185:188  num */\n      0x00\n        /* \"sibig_learning/first prog.sol\":185:195  num = _num */\n      dup2\n      swap1\n      sstore\n      pop\n        /* \"sibig_learning/first prog.sol\":131:202  function setNumber ( uint _num) public ... */\n      pop\n      jump\t// out\n        /* \"sibig_learning/first prog.sol\":85:100  uint public num */\n    tag_18:\n      sload(0x00)\n      dup2\n      jump\t// out\n        /* \"sibig_learning/first prog.sol\":299:372  function setNumber ( int _num1) public ... */\n    tag_24:\n        /* \"sibig_learning/first prog.sol\":360:365  _num1 */\n      dup1\n        /* \"sibig_learning/first prog.sol\":353:357  num1 */\n      0x01\n        /* \"sibig_learning/first prog.sol\":353:365  num1 = _num1 */\n      dup2\n      swap1\n      sstore\n      pop\n        /* \"sibig_learning/first prog.sol\":299:372  function setNumber ( int _num1) public ... */\n      pop\n      jump\t// out\n        /* \"sibig_learning/first prog.sol\":380:459  function getNumber1() public view returns(int)... */\n    tag_26:\n        /* \"sibig_learning/first prog.sol\":422:425  int */\n      0x00\n        /* \"sibig_learning/first prog.sol\":448:452  num1 */\n      sload(0x01)\n        /* \"sibig_learning/first prog.sol\":441:452  return num1 */\n      swap1\n      pop\n        /* \"sibig_learning/first prog.sol\":380:459  function getNumber1() public view returns(int)... */\n      swap1\n      jump\t// out\n        /* \"sibig_learning/first prog.sol\":208:292  function getNumber() public view returns(uint)... */\n    tag_29:\n        /* \"sibig_learning/first prog.sol\":249:253  uint */\n      0x00\n        /* \"sibig_learning/first prog.sol\":282:285  num */\n      dup1\n      sload\n        /* \"sibig_learning/first prog.sol\":276:279  num */\n      sload(0x00)\n        /* \"sibig_learning/first prog.sol\":276:285  num / num */\n      tag_35\n      swap2\n      swap1\n      tag_36\n      jump\t// in\n    tag_35:\n        /* \"sibig_learning/first prog.sol\":269:285  return num / num */\n      swap1\n      pop\n        /* \"sibig_learning/first prog.sol\":208:292  function getNumber() public view returns(uint)... */\n      swap1\n      jump\t// out\n        /* \"#utility.yul\":7:144   */\n    tag_38:\n        /* \"#utility.yul\":52:57   */\n      0x00\n        /* \"#utility.yul\":90:96   */\n      dup2\n        /* \"#utility.yul\":77:97   */\n      calldataload\n        /* \"#utility.yul\":68:97   */\n      swap1\n      pop\n        /* \"#utility.yul\":106:138   */\n      tag_40\n        /* \"#utility.yul\":132:137   */\n      dup2\n        /* \"#utility.yul\":106:138   */\n      tag_41\n      jump\t// in\n    tag_40:\n        /* \"#utility.yul\":7:144   */\n      swap3\n      swap2\n      pop\n      pop\n      jump\t// out\n        /* \"#utility.yul\":150:289   */\n    tag_42:\n        /* \"#utility.yul\":196:201   */\n      0x00\n        /* \"#utility.yul\":234:240   */\n      dup2\n        /* \"#utility.yul\":221:241   */\n      calldataload\n        /* \"#utility.yul\":212:241   */\n      swap1\n      pop\n        /* \"#utility.yul\":250:283   */\n      tag_44\n        /* \"#utility.yul\":277:282   */\n      dup2\n        /* \"#utility.yul\":250:283   */\n      tag_45\n      jump\t// in\n    tag_44:\n        /* \"#utility.yul\":150:289   */\n      swap3\n      swap2\n      pop\n      pop\n      jump\t// out\n        /* \"#utility.yul\":295:622   */\n    tag_23:\n        /* \"#utility.yul\":353:359   */\n      0x00\n        /* \"#utility.yul\":402:404   */\n      0x20\n        /* \"#utility.yul\":390:399   */\n      dup3\n        /* \"#utility.yul\":381:388   */\n      dup5\n        /* \"#utility.yul\":377:400   */\n      sub\n        /* \"#utility.yul\":373:405   */\n      slt\n        /* \"#utility.yul\":370:489   */\n      iszero\n      tag_47\n      jumpi\n        /* \"#utility.yul\":408:487   */\n      tag_48\n      tag_49\n      jump\t// in\n    tag_48:\n        /* \"#utility.yul\":370:489   */\n    tag_47:\n        /* \"#utility.yul\":528:529   */\n      0x00\n        /* \"#utility.yul\":553:605   */\n      tag_50\n        /* \"#utility.yul\":597:604   */\n      dup5\n        /* \"#utility.yul\":588:594   */\n      dup3\n        /* \"#utility.yul\":577:586   */\n      dup6\n        /* \"#utility.yul\":573:595   */\n      add\n        /* \"#utility.yul\":553:605   */\n      tag_38\n      jump\t// in\n    tag_50:\n        /* \"#utility.yul\":543:605   */\n      swap2\n      pop\n        /* \"#utility.yul\":499:615   */\n      pop\n        /* \"#utility.yul\":295:622   */\n      swap3\n      swap2\n      pop\n      pop\n      jump\t// out\n        /* \"#utility.yul\":628:957   */\n    tag_15:\n        /* \"#utility.yul\":687:693   */\n      0x00\n        /* \"#utility.yul\":736:738   */\n      0x20\n        /* \"#utility.yul\":724:733   */\n      dup3\n        /* \"#utility.yul\":715:722   */\n      dup5\n        /* \"#utility.yul\":711:734   */\n      sub\n        /* \"#utility.yul\":707:739   */\n      slt\n        /* \"#utility.yul\":704:823   */\n      iszero\n      tag_52\n      jumpi\n        /* \"#utility.yul\":742:821   */\n      tag_53\n      tag_49\n      jump\t// in\n    tag_53:\n        /* \"#utility.yul\":704:823   */\n    tag_52:\n        /* \"#utility.yul\":862:863   */\n      0x00\n        /* \"#utility.yul\":887:940   */\n      tag_54\n        /* \"#utility.yul\":932:939   */\n      dup5\n        /* \"#utility.yul\":923:929   */\n      dup3\n        /* \"#utility.yul\":912:921   */\n      dup6\n        /* \"#utility.yul\":908:930   */\n      add\n        /* \"#utility.yul\":887:940   */\n      tag_42\n      jump\t// in\n    tag_54:\n        /* \"#utility.yul\":877:940   */\n      swap2\n      pop\n        /* \"#utility.yul\":833:950   */\n      pop\n        /* \"#utility.yul\":628:957   */\n      swap3\n      swap2\n      pop\n      pop\n      jump\t// out\n        /* \"#utility.yul\":963:1078   */\n    tag_55:\n        /* \"#utility.yul\":1048:1071   */\n      tag_57\n        /* \"#utility.yul\":1065:1070   */\n      dup2\n        /* \"#utility.yul\":1048:1071   */\n      tag_58\n      jump\t// in\n    tag_57:\n        /* \"#utility.yul\":1043:1046   */\n      dup3\n        /* \"#utility.yul\":1036:1072   */\n      mstore\n        /* \"#utility.yul\":963:1078   */\n      pop\n      pop\n      jump\t// out\n        /* \"#utility.yul\":1084:1202   */\n    tag_59:\n        /* \"#utility.yul\":1171:1195   */\n      tag_61\n        /* \"#utility.yul\":1189:1194   */\n      dup2\n        /* \"#utility.yul\":1171:1195   */\n      tag_62\n      jump\t// in\n    tag_61:\n        /* \"#utility.yul\":1166:1169   */\n      dup3\n        /* \"#utility.yul\":1159:1196   */\n      mstore\n        /* \"#utility.yul\":1084:1202   */\n      pop\n      pop\n      jump\t// out\n        /* \"#utility.yul\":1208:1426   */\n    tag_12:\n        /* \"#utility.yul\":1299:1303   */\n      0x00\n        /* \"#utility.yul\":1337:1339   */\n      0x20\n        /* \"#utility.yul\":1326:1335   */\n      dup3\n        /* \"#utility.yul\":1322:1340   */\n      add\n        /* \"#utility.yul\":1314:1340   */\n      swap1\n      pop\n        /* \"#utility.yul\":1350:1419   */\n      tag_64\n        /* \"#utility.yul\":1416:1417   */\n      0x00\n        /* \"#utility.yul\":1405:1414   */\n      dup4\n        /* \"#utility.yul\":1401:1418   */\n      add\n        /* \"#utility.yul\":1392:1398   */\n      dup5\n        /* \"#utility.yul\":1350:1419   */\n      tag_55\n      jump\t// in\n    tag_64:\n        /* \"#utility.yul\":1208:1426   */\n      swap3\n      swap2\n      pop\n      pop\n      jump\t// out\n        /* \"#utility.yul\":1432:1654   */\n    tag_20:\n        /* \"#utility.yul\":1525:1529   */\n      0x00\n        /* \"#utility.yul\":1563:1565   */\n      0x20\n        /* \"#utility.yul\":1552:1561   */\n      dup3\n        /* \"#utility.yul\":1548:1566   */\n      add\n        /* \"#utility.yul\":1540:1566   */\n      swap1\n      pop\n        /* \"#utility.yul\":1576:1647   */\n      tag_66\n        /* \"#utility.yul\":1644:1645   */\n      0x00\n        /* \"#utility.yul\":1633:1642   */\n      dup4\n        /* \"#utility.yul\":1629:1646   */\n      add\n        /* \"#utility.yul\":1620:1626   */\n      dup5\n        /* \"#utility.yul\":1576:1647   */\n      tag_59\n      jump\t// in\n    tag_66:\n        /* \"#utility.yul\":1432:1654   */\n      swap3\n      swap2\n      pop\n      pop\n      jump\t// out\n        /* \"#utility.yul\":1741:1926   */\n    tag_36:\n        /* \"#utility.yul\":1781:1782   */\n      0x00\n        /* \"#utility.yul\":1798:1818   */\n      tag_70\n        /* \"#utility.yul\":1816:1817   */\n      dup3\n        /* \"#utility.yul\":1798:1818   */\n      tag_62\n      jump\t// in\n    tag_70:\n        /* \"#utility.yul\":1793:1818   */\n      swap2\n      pop\n        /* \"#utility.yul\":1832:1852   */\n      tag_71\n        /* \"#utility.yul\":1850:1851   */\n      dup4\n        /* \"#utility.yul\":1832:1852   */\n      tag_62\n      jump\t// in\n    tag_71:\n        /* \"#utility.yul\":1827:1852   */\n      swap3\n      pop\n        /* \"#utility.yul\":1871:1872   */\n      dup3\n        /* \"#utility.yul\":1861:1896   */\n      tag_72\n      jumpi\n        /* \"#utility.yul\":1876:1894   */\n      tag_73\n      tag_74\n      jump\t// in\n    tag_73:\n        /* \"#utility.yul\":1861:1896   */\n    tag_72:\n        /* \"#utility.yul\":1918:1919   */\n      dup3\n        /* \"#utility.yul\":1915:1916   */\n      dup3\n        /* \"#utility.yul\":1911:1920   */\n      div\n        /* \"#utility.yul\":1906:1920   */\n      swap1\n      pop\n        /* \"#utility.yul\":1741:1926   */\n      swap3\n      swap2\n      pop\n      pop\n      jump\t// out\n        /* \"#utility.yul\":1932:2008   */\n    tag_58:\n        /* \"#utility.yul\":1968:1975   */\n      0x00\n        /* \"#utility.yul\":1997:2002   */\n      dup2\n        /* \"#utility.yul\":1986:2002   */\n      swap1\n      pop\n        /* \"#utility.yul\":1932:2008   */\n      swap2\n      swap1\n      pop\n      jump\t// out\n        /* \"#utility.yul\":2014:2091   */\n    tag_62:\n        /* \"#utility.yul\":2051:2058   */\n      0x00\n        /* \"#utility.yul\":2080:2085   */\n      dup2\n        /* \"#utility.yul\":2069:2085   */\n      swap1\n      pop\n        /* \"#utility.yul\":2014:2091   */\n      swap2\n      swap1\n      pop\n      jump\t// out\n        /* \"#utility.yul\":2283:2463   */\n    tag_74:\n        /* \"#utility.yul\":2331:2408   */\n      0x4e487b7100000000000000000000000000000000000000000000000000000000\n        /* \"#utility.yul\":2328:2329   */\n      0x00\n        /* \"#utility.yul\":2321:2409   */\n      mstore\n        /* \"#utility.yul\":2428:2432   */\n      0x12\n        /* \"#utility.yul\":2425:2426   */\n      0x04\n        /* \"#utility.yul\":2418:2433   */\n      mstore\n        /* \"#utility.yul\":2452:2456   */\n      0x24\n        /* \"#utility.yul\":2449:2450   */\n      0x00\n        /* \"#utility.yul\":2442:2457   */\n      revert\n        /* \"#utility.yul\":2592:2709   */\n    tag_49:\n        /* \"#utility.yul\":2701:2702   */\n      0x00\n        /* \"#utility.yul\":2698:2699   */\n      dup1\n        /* \"#utility.yul\":2691:2703   */\n      revert\n        /* \"#utility.yul\":2715:2835   */\n    tag_41:\n        /* \"#utility.yul\":2787:2810   */\n      tag_84\n        /* \"#utility.yul\":2804:2809   */\n      dup2\n        /* \"#utility.yul\":2787:2810   */\n      tag_58\n      jump\t// in\n    tag_84:\n        /* \"#utility.yul\":2780:2785   */\n      dup2\n        /* \"#utility.yul\":2777:2811   */\n      eq\n        /* \"#utility.yul\":2767:2829   */\n      tag_85\n      jumpi\n        /* \"#utility.yul\":2825:2826   */\n      0x00\n        /* \"#utility.yul\":2822:2823   */\n      dup1\n        /* \"#utility.yul\":2815:2827   */\n      revert\n        /* \"#utility.yul\":2767:2829   */\n    tag_85:\n        /* \"#utility.yul\":2715:2835   */\n      pop\n      jump\t// out\n        /* \"#utility.yul\":2841:2963   */\n    tag_45:\n        /* \"#utility.yul\":2914:2938   */\n      tag_87\n        /* \"#utility.yul\":2932:2937   */\n      dup2\n        /* \"#utility.yul\":2914:2938   */\n      tag_62\n      jump\t// in\n    tag_87:\n        /* \"#utility.yul\":2907:2912   */\n      dup2\n        /* \"#utility.yul\":2904:2939   */\n      eq\n        /* \"#utility.yul\":2894:2957   */\n      tag_88\n      jumpi\n        /* \"#utility.yul\":2953:2954   */\n      0x00\n        /* \"#utility.yul\":2950:2951   */\n      dup1\n        /* \"#utility.yul\":2943:2955   */\n      revert\n        /* \"#utility.yul\":2894:2957   */\n    tag_88:\n        /* \"#utility.yul\":2841:2963   */\n      pop\n      jump\t// out\n\n    auxdata: 0xa2646970667358221220b85a8a4fb5b7bd30786474a624e7096e964906789ca2d48f582190e5390a148564736f6c63430008070033\n}\n",
				"bytecode": {
					"linkReferences": {},
					"object": "608060405234801561001057600080fd5b5061030c806100206000396000f3fe608060405234801561001057600080fd5b50600436106100625760003560e01c80633b9eac4b146100675780633fb5c1cb146100855780634e70b1dc146100a15780639cf27f37146100bf5780639e911f4c146100db578063f2c9ecd8146100f9575b600080fd5b61006f610117565b60405161007c91906101f9565b60405180910390f35b61009f600480360381019061009a91906101ae565b61011d565b005b6100a9610127565b6040516100b69190610214565b60405180910390f35b6100d960048036038101906100d49190610181565b61012d565b005b6100e3610137565b6040516100f091906101f9565b60405180910390f35b610101610141565b60405161010e9190610214565b60405180910390f35b60015481565b8060008190555050565b60005481565b8060018190555050565b6000600154905090565b60008054600054610152919061022f565b905090565b600081359050610166816102a8565b92915050565b60008135905061017b816102bf565b92915050565b600060208284031215610197576101966102a3565b5b60006101a584828501610157565b91505092915050565b6000602082840312156101c4576101c36102a3565b5b60006101d28482850161016c565b91505092915050565b6101e481610260565b82525050565b6101f38161026a565b82525050565b600060208201905061020e60008301846101db565b92915050565b600060208201905061022960008301846101ea565b92915050565b600061023a8261026a565b91506102458361026a565b92508261025557610254610274565b5b828204905092915050565b6000819050919050565b6000819050919050565b7f4e487b7100000000000000000000000000000000000000000000000000000000600052601260045260246000fd5b600080fd5b6102b181610260565b81146102bc57600080fd5b50565b6102c88161026a565b81146102d357600080fd5b5056fea2646970667358221220b85a8a4fb5b7bd30786474a624e7096e964906789ca2d48f582190e5390a148564736f6c63430008070033",
					"opcodes": "PUSH1 0x80 PUSH1 0x40 MSTORE CALLVALUE DUP1 ISZERO PUSH2 0x10 JUMPI PUSH1 0x0 DUP1 REVERT JUMPDEST POP PUSH2 0x30C DUP1 PUSH2 0x20 PUSH1 0x0 CODECOPY PUSH1 0x0 RETURN INVALID PUSH1 0x80 PUSH1 0x40 MSTORE CALLVALUE DUP1 ISZERO PUSH2 0x10 JUMPI PUSH1 0x0 DUP1 REVERT JUMPDEST POP PUSH1 0x4 CALLDATASIZE LT PUSH2 0x62 JUMPI PUSH1 0x0 CALLDATALOAD PUSH1 0xE0 SHR DUP1 PUSH4 0x3B9EAC4B EQ PUSH2 0x67 JUMPI DUP1 PUSH4 0x3FB5C1CB EQ PUSH2 0x85 JUMPI DUP1 PUSH4 0x4E70B1DC EQ PUSH2 0xA1 JUMPI DUP1 PUSH4 0x9CF27F37 EQ PUSH2 0xBF JUMPI DUP1 PUSH4 0x9E911F4C EQ PUSH2 0xDB JUMPI DUP1 PUSH4 0xF2C9ECD8 EQ PUSH2 0xF9 JUMPI JUMPDEST PUSH1 0x0 DUP1 REVERT JUMPDEST PUSH2 0x6F PUSH2 0x117 JUMP JUMPDEST PUSH1 0x40 MLOAD PUSH2 0x7C SWAP2 SWAP1 PUSH2 0x1F9 JUMP JUMPDEST PUSH1 0x40 MLOAD DUP1 SWAP2 SUB SWAP1 RETURN JUMPDEST PUSH2 0x9F PUSH1 0x4 DUP1 CALLDATASIZE SUB DUP2 ADD SWAP1 PUSH2 0x9A SWAP2 SWAP1 PUSH2 0x1AE JUMP JUMPDEST PUSH2 0x11D JUMP JUMPDEST STOP JUMPDEST PUSH2 0xA9 PUSH2 0x127 JUMP JUMPDEST PUSH1 0x40 MLOAD PUSH2 0xB6 SWAP2 SWAP1 PUSH2 0x214 JUMP JUMPDEST PUSH1 0x40 MLOAD DUP1 SWAP2 SUB SWAP1 RETURN JUMPDEST PUSH2 0xD9 PUSH1 0x4 DUP1 CALLDATASIZE SUB DUP2 ADD SWAP1 PUSH2 0xD4 SWAP2 SWAP1 PUSH2 0x181 JUMP JUMPDEST PUSH2 0x12D JUMP JUMPDEST STOP JUMPDEST PUSH2 0xE3 PUSH2 0x137 JUMP JUMPDEST PUSH1 0x40 MLOAD PUSH2 0xF0 SWAP2 SWAP1 PUSH2 0x1F9 JUMP JUMPDEST PUSH1 0x40 MLOAD DUP1 SWAP2 SUB SWAP1 RETURN JUMPDEST PUSH2 0x101 PUSH2 0x141 JUMP JUMPDEST PUSH1 0x40 MLOAD PUSH2 0x10E SWAP2 SWAP1 PUSH2 0x214 JUMP JUMPDEST PUSH1 0x40 MLOAD DUP1 SWAP2 SUB SWAP1 RETURN JUMPDEST PUSH1 0x1 SLOAD DUP2 JUMP JUMPDEST DUP1 PUSH1 0x0 DUP2 SWAP1 SSTORE POP POP JUMP JUMPDEST PUSH1 0x0 SLOAD DUP2 JUMP JUMPDEST DUP1 PUSH1 0x1 DUP2 SWAP1 SSTORE POP POP JUMP JUMPDEST PUSH1 0x0 PUSH1 0x1 SLOAD SWAP1 POP SWAP1 JUMP JUMPDEST PUSH1 0x0 DUP1 SLOAD PUSH1 0x0 SLOAD PUSH2 0x152 SWAP2 SWAP1 PUSH2 0x22F JUMP JUMPDEST SWAP1 POP SWAP1 JUMP JUMPDEST PUSH1 0x0 DUP2 CALLDATALOAD SWAP1 POP PUSH2 0x166 DUP2 PUSH2 0x2A8 JUMP JUMPDEST SWAP3 SWAP2 POP POP JUMP JUMPDEST PUSH1 0x0 DUP2 CALLDATALOAD SWAP1 POP PUSH2 0x17B DUP2 PUSH2 0x2BF JUMP JUMPDEST SWAP3 SWAP2 POP POP JUMP JUMPDEST PUSH1 0x0 PUSH1 0x20 DUP3 DUP5 SUB SLT ISZERO PUSH2 0x197 JUMPI PUSH2 0x196 PUSH2 0x2A3 JUMP JUMPDEST JUMPDEST PUSH1 0x0 PUSH2 0x1A5 DUP5 DUP3 DUP6 ADD PUSH2 0x157 JUMP JUMPDEST SWAP2 POP POP SWAP3 SWAP2 POP POP JUMP JUMPDEST PUSH1 0x0 PUSH1 0x20 DUP3 DUP5 SUB SLT ISZERO PUSH2 0x1C4 JUMPI PUSH2 0x1C3 PUSH2 0x2A3 JUMP JUMPDEST JUMPDEST PUSH1 0x0 PUSH2 0x1D2 DUP5 DUP3 DUP6 ADD PUSH2 0x16C JUMP JUMPDEST SWAP2 POP POP SWAP3 SWAP2 POP POP JUMP JUMPDEST PUSH2 0x1E4 DUP2 PUSH2 0x260 JUMP JUMPDEST DUP3 MSTORE POP POP JUMP JUMPDEST PUSH2 0x1F3 DUP2 PUSH2 0x26A JUMP JUMPDEST DUP3 MSTORE POP POP JUMP JUMPDEST PUSH1 0x0 PUSH1 0x20 DUP3 ADD SWAP1 POP PUSH2 0x20E PUSH1 0x0 DUP4 ADD DUP5 PUSH2 0x1DB JUMP JUMPDEST SWAP3 SWAP2 POP POP JUMP JUMPDEST PUSH1 0x0 PUSH1 0x20 DUP3 ADD SWAP1 POP PUSH2 0x229 PUSH1 0x0 DUP4 ADD DUP5 PUSH2 0x1EA JUMP JUMPDEST SWAP3 SWAP2 POP POP JUMP JUMPDEST PUSH1 0x0 PUSH2 0x23A DUP3 PUSH2 0x26A JUMP JUMPDEST SWAP2 POP PUSH2 0x245 DUP4 PUSH2 0x26A JUMP JUMPDEST SWAP3 POP DUP3 PUSH2 0x255 JUMPI PUSH2 0x254 PUSH2 0x274 JUMP JUMPDEST JUMPDEST DUP3 DUP3 DIV SWAP1 POP SWAP3 SWAP2 POP POP JUMP JUMPDEST PUSH1 0x0 DUP2 SWAP1 POP SWAP2 SWAP1 POP JUMP JUMPDEST PUSH1 0x0 DUP2 SWAP1 POP SWAP2 SWAP1 POP JUMP JUMPDEST PUSH32 0x4E487B7100000000000000000000000000000000000000000000000000000000 PUSH1 0x0 MSTORE PUSH1 0x12 PUSH1 0x4 MSTORE PUSH1 0x24 PUSH1 0x0 REVERT JUMPDEST PUSH1 0x0 DUP1 REVERT JUMPDEST PUSH2 0x2B1 DUP2 PUSH2 0x260 JUMP JUMPDEST DUP2 EQ PUSH2 0x2BC JUMPI PUSH1 0x0 DUP1 REVERT JUMPDEST POP JUMP JUMPDEST PUSH2 0x2C8 DUP2 PUSH2 0x26A JUMP JUMPDEST DUP2 EQ PUSH2 0x2D3 JUMPI PUSH1 0x0 DUP1 REVERT JUMPDEST POP JUMP INVALID LOG2 PUSH5 0x6970667358 0x22 SLT KECCAK256 0xB8 GAS DUP11 0x4F 0xB5 0xB7 0xBD ADDRESS PUSH25 0x6474A624E7096E964906789CA2D48F582190E5390A14856473 PUSH16 0x6C634300080700330000000000000000 "
				},
				"gasEstimates": {
					"creation": {
						"codeDepositCost": "156000",
						"executionCost": "202",
						"totalCost": "156202"
					},
					"external": {
						"getNumber()": "infinite",
						"getNumber1()": "2503",
						"num()": "2451",
						"num1()": "2407",
						"setNumber(int256)": "22564",
						"setNumber(uint256)": "22520"
					}
				},
				"methodIdentifiers": {
					"getNumber()": "f2c9ecd8",
					"getNumber1()": "9e911f4c",
					"num()": "4e70b1dc",
					"num1()": "3b9eac4b",
					"setNumber(int256)": "9cf27f37",
					"setNumber(uint256)": "3fb5c1cb"
				}
			},
			"storageLayout": {
				"storage": [
					{
						"astId": 3,
						"contract": "sibig_learning/first prog.sol:TestContract",
						"label": "num",
						"offset": 0,
						"slot": "0",
						"type": "t_uint256"
					},
					{
						"astId": 5,
						"contract": "sibig_learning/first prog.sol:TestContract",
						"label": "num1",
						"offset": 0,
						"slot": "1",
						"type": "t_int256"
					}
				],
				"types": {
					"t_int256": {
						"encoding": "inplace",
						"label": "int256",
						"numberOfBytes": "32"
					},
					"t_uint256": {
						"encoding": "inplace",
						"label": "uint256",
						"numberOfBytes": "32"
					}
				}
			},
			"userdoc": {
				"kind": "user",
				"methods": {},
				"version": 1
			}
		}
	}
}