{
	"sibig_learning/SW.sol": {
		"Wallet": {
			"abi": [
				{
					"inputs": [],
					"stateMutability": "nonpayable",
					"type": "constructor"
				},
				{
					"anonymous": false,
					"inputs": [
						{
							"indexed": true,
							"internalType": "address",
							"name": "user",
							"type": "address"
						},
						{
							"indexed": false,
							"internalType": "uint256",
							"name": "allowance",
							"type": "uint256"
						},
						{
							"indexed": false,
							"internalType": "uint256",
							"name": "timeLimit",
							"type": "uint256"
						}
					],
					"name": "AllowanceRenewed",
					"type": "event"
				},
				{
					"anonymous": false,
					"inputs": [
						{
							"indexed": true,
							"internalType": "address",
							"name": "receiver",
							"type": "address"
						},
						{
							"indexed": false,
							"internalType": "uint256",
							"name": "amount",
							"type": "uint256"
						}
					],
					"name": "CoinsSpent",
					"type": "event"
				},
				{
					"inputs": [],
					"name": "getWalletBalance",
					"outputs": [
						{
							"internalType": "uint256",
							"name": "",
							"type": "uint256"
						}
					],
					"stateMutability": "view",
					"type": "function"
				},
				{
					"inputs": [],
					"name": "myAllowance",
					"outputs": [
						{
							"internalType": "uint256",
							"name": "",
							"type": "uint256"
						}
					],
					"stateMutability": "view",
					"type": "function"
				},
				{
					"inputs": [],
					"name": "owner",
					"outputs": [
						{
							"internalType": "address",
							"name": "",
							"type": "address"
						}
					],
					"stateMutability": "view",
					"type": "function"
				},
				{
					"inputs": [
						{
							"internalType": "address",
							"name": "_user",
							"type": "address"
						},
						{
							"internalType": "uint256",
							"name": "_allowance",
							"type": "uint256"
						},
						{
							"internalType": "uint256",
							"name": "_timeLimit",
							"type": "uint256"
						}
					],
					"name": "renewAllowance",
					"outputs": [],
					"stateMutability": "nonpayable",
					"type": "function"
				},
				{
					"inputs": [
						{
							"internalType": "address payable",
							"name": "_receiver",
							"type": "address"
						},
						{
							"internalType": "uint256",
							"name": "_amount",
							"type": "uint256"
						}
					],
					"name": "spendCoins",
					"outputs": [],
					"stateMutability": "nonpayable",
					"type": "function"
				},
				{
					"inputs": [
						{
							"internalType": "address",
							"name": "",
							"type": "address"
						}
					],
					"name": "users",
					"outputs": [
						{
							"internalType": "address",
							"name": "userAddress",
							"type": "address"
						},
						{
							"internalType": "uint256",
							"name": "Allowance",
							"type": "uint256"
						},
						{
							"internalType": "uint256",
							"name": "Validity",
							"type": "uint256"
						}
					],
					"stateMutability": "view",
					"type": "function"
				},
				{
					"stateMutability": "payable",
					"type": "receive"
				}
			],
			"devdoc": {
				"kind": "dev",
				"methods": {},
				"version": 1
			},
			"evm": {
				"assembly": "    /* \"sibig_learning/SW.sol\":93:1579  contract Wallet {... */\n  mstore(0x40, 0x80)\n    /* \"sibig_learning/SW.sol\":553:603  constructor() {... */\n  callvalue\n  dup1\n  iszero\n  tag_1\n  jumpi\n  0x00\n  dup1\n  revert\ntag_1:\n  pop\n    /* \"sibig_learning/SW.sol\":586:596  msg.sender */\n  caller\n    /* \"sibig_learning/SW.sol\":577:596  owner == msg.sender */\n  0xffffffffffffffffffffffffffffffffffffffff\n  and\n    /* \"sibig_learning/SW.sol\":577:582  owner */\n  0x00\n  dup1\n  sload\n  swap1\n  0x0100\n  exp\n  swap1\n  pop\n  pop\n    /* \"sibig_learning/SW.sol\":577:596  owner == msg.sender */\n  pop\n    /* \"sibig_learning/SW.sol\":93:1579  contract Wallet {... */\n  dataSize(sub_0)\n  dup1\n  dataOffset(sub_0)\n  0x00\n  codecopy\n  0x00\n  return\nstop\n\nsub_0: assembly {\n        /* \"sibig_learning/SW.sol\":93:1579  contract Wallet {... */\n      mstore(0x40, 0x80)\n      jumpi(tag_1, lt(calldatasize, 0x04))\n      shr(0xe0, calldataload(0x00))\n      dup1\n      0x260e67a7\n      eq\n      tag_3\n      jumpi\n      dup1\n      0x329a27e7\n      eq\n      tag_4\n      jumpi\n      dup1\n      0x69376af8\n      eq\n      tag_5\n      jumpi\n      dup1\n      0x8da5cb5b\n      eq\n      tag_6\n      jumpi\n      dup1\n      0x978d4e7e\n      eq\n      tag_7\n      jumpi\n      dup1\n      0xa87430ba\n      eq\n      tag_8\n      jumpi\n      jump(tag_2)\n    tag_1:\n      jumpi(tag_2, calldatasize)\n        /* \"sibig_learning/SW.sol\":527:532  owner */\n      stop\n        /* \"sibig_learning/SW.sol\":93:1579  contract Wallet {... */\n    tag_2:\n      0x00\n      dup1\n      revert\n        /* \"sibig_learning/SW.sol\":753:1051  function renewAllowance(... */\n    tag_3:\n      callvalue\n      dup1\n      iszero\n      tag_12\n      jumpi\n      0x00\n      dup1\n      revert\n    tag_12:\n      pop\n      tag_13\n      0x04\n      dup1\n      calldatasize\n      sub\n      dup2\n      add\n      swap1\n      tag_14\n      swap2\n      swap1\n      tag_15\n      jump\t// in\n    tag_14:\n      tag_16\n      jump\t// in\n    tag_13:\n      stop\n        /* \"sibig_learning/SW.sol\":651:749  function getWalletBalance() public view returns (uint) {... */\n    tag_4:\n      callvalue\n      dup1\n      iszero\n      tag_17\n      jumpi\n      0x00\n      dup1\n      revert\n    tag_17:\n      pop\n      tag_18\n      tag_19\n      jump\t// in\n    tag_18:\n      mload(0x40)\n      tag_20\n      swap2\n      swap1\n      tag_21\n      jump\t// in\n    tag_20:\n      mload(0x40)\n      dup1\n      swap2\n      sub\n      swap1\n      return\n        /* \"sibig_learning/SW.sol\":1057:1155  function myAllowance() public view returns(uint) {... */\n    tag_5:\n      callvalue\n      dup1\n      iszero\n      tag_22\n      jumpi\n      0x00\n      dup1\n      revert\n    tag_22:\n      pop\n      tag_23\n      tag_24\n      jump\t// in\n    tag_23:\n      mload(0x40)\n      tag_25\n      swap2\n      swap1\n      tag_21\n      jump\t// in\n    tag_25:\n      mload(0x40)\n      dup1\n      swap2\n      sub\n      swap1\n      return\n        /* \"sibig_learning/SW.sol\":135:155  address public owner */\n    tag_6:\n      callvalue\n      dup1\n      iszero\n      tag_26\n      jumpi\n      0x00\n      dup1\n      revert\n    tag_26:\n      pop\n      tag_27\n      tag_28\n      jump\t// in\n    tag_27:\n      mload(0x40)\n      tag_29\n      swap2\n      swap1\n      tag_30\n      jump\t// in\n    tag_29:\n      mload(0x40)\n      dup1\n      swap2\n      sub\n      swap1\n      return\n        /* \"sibig_learning/SW.sol\":1161:1577  function spendCoins(... */\n    tag_7:\n      callvalue\n      dup1\n      iszero\n      tag_31\n      jumpi\n      0x00\n      dup1\n      revert\n    tag_31:\n      pop\n      tag_32\n      0x04\n      dup1\n      calldatasize\n      sub\n      dup2\n      add\n      swap1\n      tag_33\n      swap2\n      swap1\n      tag_34\n      jump\t// in\n    tag_33:\n      tag_35\n      jump\t// in\n    tag_32:\n      stop\n        /* \"sibig_learning/SW.sol\":161:198  mapping(address => User) public users */\n    tag_8:\n      callvalue\n      dup1\n      iszero\n      tag_36\n      jumpi\n      0x00\n      dup1\n      revert\n    tag_36:\n      pop\n      tag_37\n      0x04\n      dup1\n      calldatasize\n      sub\n      dup2\n      add\n      swap1\n      tag_38\n      swap2\n      swap1\n      tag_39\n      jump\t// in\n    tag_38:\n      tag_40\n      jump\t// in\n    tag_37:\n      mload(0x40)\n      tag_41\n      swap4\n      swap3\n      swap2\n      swap1\n      tag_42\n      jump\t// in\n    tag_41:\n      mload(0x40)\n      dup1\n      swap2\n      sub\n      swap1\n      return\n        /* \"sibig_learning/SW.sol\":753:1051  function renewAllowance(... */\n    tag_16:\n        /* \"sibig_learning/SW.sol\":527:532  owner */\n      0x00\n      dup1\n      sload\n      swap1\n      0x0100\n      exp\n      swap1\n      pop\n      pop\n        /* \"sibig_learning/SW.sol\":880:893  uint validity */\n      0x00\n        /* \"sibig_learning/SW.sol\":914:924  _timeLimit */\n      dup2\n        /* \"sibig_learning/SW.sol\":896:911  block.timestamp */\n      timestamp\n        /* \"sibig_learning/SW.sol\":896:924  block.timestamp + _timeLimit */\n      tag_45\n      swap2\n      swap1\n      tag_46\n      jump\t// in\n    tag_45:\n        /* \"sibig_learning/SW.sol\":880:924  uint validity = block.timestamp + _timeLimit */\n      swap1\n      pop\n        /* \"sibig_learning/SW.sol\":948:981  User(_user, _allowance, validity) */\n      mload(0x40)\n      dup1\n      0x60\n      add\n      0x40\n      mstore\n      dup1\n        /* \"sibig_learning/SW.sol\":953:958  _user */\n      dup6\n        /* \"sibig_learning/SW.sol\":948:981  User(_user, _allowance, validity) */\n      0xffffffffffffffffffffffffffffffffffffffff\n      and\n      dup2\n      mstore\n      0x20\n      add\n        /* \"sibig_learning/SW.sol\":960:970  _allowance */\n      dup5\n        /* \"sibig_learning/SW.sol\":948:981  User(_user, _allowance, validity) */\n      dup2\n      mstore\n      0x20\n      add\n        /* \"sibig_learning/SW.sol\":972:980  validity */\n      dup3\n        /* \"sibig_learning/SW.sol\":948:981  User(_user, _allowance, validity) */\n      dup2\n      mstore\n      pop\n        /* \"sibig_learning/SW.sol\":933:938  users */\n      0x01\n        /* \"sibig_learning/SW.sol\":933:945  users[_user] */\n      0x00\n        /* \"sibig_learning/SW.sol\":939:944  _user */\n      dup7\n        /* \"sibig_learning/SW.sol\":933:945  users[_user] */\n      0xffffffffffffffffffffffffffffffffffffffff\n      and\n      0xffffffffffffffffffffffffffffffffffffffff\n      and\n      dup2\n      mstore\n      0x20\n      add\n      swap1\n      dup2\n      mstore\n      0x20\n      add\n      0x00\n      keccak256\n        /* \"sibig_learning/SW.sol\":933:981  users[_user] = User(_user, _allowance, validity) */\n      0x00\n      dup3\n      add\n      mload\n      dup2\n      0x00\n      add\n      exp(0x0100, 0x00)\n      dup2\n      sload\n      dup2\n      0xffffffffffffffffffffffffffffffffffffffff\n      mul\n      not\n      and\n      swap1\n      dup4\n      0xffffffffffffffffffffffffffffffffffffffff\n      and\n      mul\n      or\n      swap1\n      sstore\n      pop\n      0x20\n      dup3\n      add\n      mload\n      dup2\n      0x01\n      add\n      sstore\n      0x40\n      dup3\n      add\n      mload\n      dup2\n      0x02\n      add\n      sstore\n      swap1\n      pop\n      pop\n        /* \"sibig_learning/SW.sol\":1012:1017  _user */\n      dup4\n        /* \"sibig_learning/SW.sol\":995:1042  AllowanceRenewed(_user, _allowance, _timeLimit) */\n      0xffffffffffffffffffffffffffffffffffffffff\n      and\n      0x7b5d8b8c4a48ab3c4f698feadf9ec108f89b430c109781190da11151c6b66067\n        /* \"sibig_learning/SW.sol\":1019:1029  _allowance */\n      dup5\n        /* \"sibig_learning/SW.sol\":1031:1041  _timeLimit */\n      dup5\n        /* \"sibig_learning/SW.sol\":995:1042  AllowanceRenewed(_user, _allowance, _timeLimit) */\n      mload(0x40)\n      tag_47\n      swap3\n      swap2\n      swap1\n      tag_48\n      jump\t// in\n    tag_47:\n      mload(0x40)\n      dup1\n      swap2\n      sub\n      swap1\n      log2\n        /* \"sibig_learning/SW.sol\":871:1051  {... */\n      pop\n        /* \"sibig_learning/SW.sol\":753:1051  function renewAllowance(... */\n      pop\n      pop\n      pop\n      jump\t// out\n        /* \"sibig_learning/SW.sol\":651:749  function getWalletBalance() public view returns (uint) {... */\n    tag_19:\n        /* \"sibig_learning/SW.sol\":700:704  uint */\n      0x00\n        /* \"sibig_learning/SW.sol\":722:743  address(this).balance */\n      selfbalance\n        /* \"sibig_learning/SW.sol\":715:743  return address(this).balance */\n      swap1\n      pop\n        /* \"sibig_learning/SW.sol\":651:749  function getWalletBalance() public view returns (uint) {... */\n      swap1\n      jump\t// out\n        /* \"sibig_learning/SW.sol\":1057:1155  function myAllowance() public view returns(uint) {... */\n    tag_24:\n        /* \"sibig_learning/SW.sol\":1100:1104  uint */\n      0x00\n        /* \"sibig_learning/SW.sol\":1122:1127  users */\n      0x01\n        /* \"sibig_learning/SW.sol\":1122:1139  users[msg.sender] */\n      0x00\n        /* \"sibig_learning/SW.sol\":1128:1138  msg.sender */\n      caller\n        /* \"sibig_learning/SW.sol\":1122:1139  users[msg.sender] */\n      0xffffffffffffffffffffffffffffffffffffffff\n      and\n      0xffffffffffffffffffffffffffffffffffffffff\n      and\n      dup2\n      mstore\n      0x20\n      add\n      swap1\n      dup2\n      mstore\n      0x20\n      add\n      0x00\n      keccak256\n        /* \"sibig_learning/SW.sol\":1122:1149  users[msg.sender].Allowance */\n      0x01\n      add\n      sload\n        /* \"sibig_learning/SW.sol\":1115:1149  return users[msg.sender].Allowance */\n      swap1\n      pop\n        /* \"sibig_learning/SW.sol\":1057:1155  function myAllowance() public view returns(uint) {... */\n      swap1\n      jump\t// out\n        /* \"sibig_learning/SW.sol\":135:155  address public owner */\n    tag_28:\n      0x00\n      dup1\n      sload\n      swap1\n      0x0100\n      exp\n      swap1\n      div\n      0xffffffffffffffffffffffffffffffffffffffff\n      and\n      dup2\n      jump\t// out\n        /* \"sibig_learning/SW.sol\":1161:1577  function spendCoins(... */\n    tag_35:\n        /* \"sibig_learning/SW.sol\":1263:1280  User storage user */\n      0x00\n        /* \"sibig_learning/SW.sol\":1283:1288  users */\n      0x01\n        /* \"sibig_learning/SW.sol\":1283:1300  users[msg.sender] */\n      0x00\n        /* \"sibig_learning/SW.sol\":1289:1299  msg.sender */\n      caller\n        /* \"sibig_learning/SW.sol\":1283:1300  users[msg.sender] */\n      0xffffffffffffffffffffffffffffffffffffffff\n      and\n      0xffffffffffffffffffffffffffffffffffffffff\n      and\n      dup2\n      mstore\n      0x20\n      add\n      swap1\n      dup2\n      mstore\n      0x20\n      add\n      0x00\n      keccak256\n        /* \"sibig_learning/SW.sol\":1263:1300  User storage user = users[msg.sender] */\n      swap1\n      pop\n        /* \"sibig_learning/SW.sol\":1336:1340  user */\n      dup1\n        /* \"sibig_learning/SW.sol\":1336:1349  user.Validity */\n      0x02\n      add\n      sload\n        /* \"sibig_learning/SW.sol\":1318:1333  block.timestamp */\n      timestamp\n        /* \"sibig_learning/SW.sol\":1318:1349  block.timestamp < user.Validity */\n      lt\n        /* \"sibig_learning/SW.sol\":1310:1372  require(block.timestamp < user.Validity, \"Validity expired!!\") */\n      tag_52\n      jumpi\n      mload(0x40)\n      0x08c379a000000000000000000000000000000000000000000000000000000000\n      dup2\n      mstore\n      0x04\n      add\n      tag_53\n      swap1\n      tag_54\n      jump\t// in\n    tag_53:\n      mload(0x40)\n      dup1\n      swap2\n      sub\n      swap1\n      revert\n    tag_52:\n        /* \"sibig_learning/SW.sol\":1401:1405  user */\n      dup1\n        /* \"sibig_learning/SW.sol\":1401:1415  user.Allowance */\n      0x01\n      add\n      sload\n        /* \"sibig_learning/SW.sol\":1390:1397  _amount */\n      dup3\n        /* \"sibig_learning/SW.sol\":1390:1415  _amount <= user.Allowance */\n      gt\n      iszero\n        /* \"sibig_learning/SW.sol\":1382:1446  require(_amount <= user.Allowance, \"Allowance not sufficient!!\") */\n      tag_55\n      jumpi\n      mload(0x40)\n      0x08c379a000000000000000000000000000000000000000000000000000000000\n      dup2\n      mstore\n      0x04\n      add\n      tag_56\n      swap1\n      tag_57\n      jump\t// in\n    tag_56:\n      mload(0x40)\n      dup1\n      swap2\n      sub\n      swap1\n      revert\n    tag_55:\n        /* \"sibig_learning/SW.sol\":1479:1486  _amount */\n      dup2\n        /* \"sibig_learning/SW.sol\":1461:1465  user */\n      dup2\n        /* \"sibig_learning/SW.sol\":1461:1475  user.Allowance */\n      0x01\n      add\n      0x00\n        /* \"sibig_learning/SW.sol\":1461:1486  user.Allowance -= _amount */\n      dup3\n      dup3\n      sload\n      tag_58\n      swap2\n      swap1\n      tag_59\n      jump\t// in\n    tag_58:\n      swap3\n      pop\n      pop\n      dup2\n      swap1\n      sstore\n      pop\n        /* \"sibig_learning/SW.sol\":1495:1504  _receiver */\n      dup3\n        /* \"sibig_learning/SW.sol\":1495:1513  _receiver.transfer */\n      0xffffffffffffffffffffffffffffffffffffffff\n      and\n        /* \"sibig_learning/SW.sol\":1495:1522  _receiver.transfer(_amount) */\n      0x08fc\n        /* \"sibig_learning/SW.sol\":1514:1521  _amount */\n      dup4\n        /* \"sibig_learning/SW.sol\":1495:1522  _receiver.transfer(_amount) */\n      swap1\n      dup2\n      iszero\n      mul\n      swap1\n      mload(0x40)\n      0x00\n      mload(0x40)\n      dup1\n      dup4\n      sub\n      dup2\n      dup6\n      dup9\n      dup9\n      call\n      swap4\n      pop\n      pop\n      pop\n      pop\n      iszero\n      dup1\n      iszero\n      tag_61\n      jumpi\n      returndatasize\n      0x00\n      dup1\n      returndatacopy\n      revert(0x00, returndatasize)\n    tag_61:\n      pop\n        /* \"sibig_learning/SW.sol\":1547:1556  _receiver */\n      dup3\n        /* \"sibig_learning/SW.sol\":1536:1566  CoinsSpent(_receiver, _amount) */\n      0xffffffffffffffffffffffffffffffffffffffff\n      and\n      0x92c3d05f8ba31385c55d3263a9c7de7c1e17e7da9dba4b20246c3c0cf8df88c2\n        /* \"sibig_learning/SW.sol\":1558:1565  _amount */\n      dup4\n        /* \"sibig_learning/SW.sol\":1536:1566  CoinsSpent(_receiver, _amount) */\n      mload(0x40)\n      tag_62\n      swap2\n      swap1\n      tag_21\n      jump\t// in\n    tag_62:\n      mload(0x40)\n      dup1\n      swap2\n      sub\n      swap1\n      log2\n        /* \"sibig_learning/SW.sol\":1253:1577  {... */\n      pop\n        /* \"sibig_learning/SW.sol\":1161:1577  function spendCoins(... */\n      pop\n      pop\n      jump\t// out\n        /* \"sibig_learning/SW.sol\":161:198  mapping(address => User) public users */\n    tag_40:\n      mstore(0x20, 0x01)\n      dup1\n      0x00\n      mstore\n      keccak256(0x00, 0x40)\n      0x00\n      swap2\n      pop\n      swap1\n      pop\n      dup1\n      0x00\n      add\n      0x00\n      swap1\n      sload\n      swap1\n      0x0100\n      exp\n      swap1\n      div\n      0xffffffffffffffffffffffffffffffffffffffff\n      and\n      swap1\n      dup1\n      0x01\n      add\n      sload\n      swap1\n      dup1\n      0x02\n      add\n      sload\n      swap1\n      pop\n      dup4\n      jump\t// out\n        /* \"#utility.yul\":88:205   */\n    tag_64:\n        /* \"#utility.yul\":197:198   */\n      0x00\n        /* \"#utility.yul\":194:195   */\n      dup1\n        /* \"#utility.yul\":187:199   */\n      revert\n        /* \"#utility.yul\":334:460   */\n    tag_66:\n        /* \"#utility.yul\":371:378   */\n      0x00\n        /* \"#utility.yul\":411:453   */\n      0xffffffffffffffffffffffffffffffffffffffff\n        /* \"#utility.yul\":404:409   */\n      dup3\n        /* \"#utility.yul\":400:454   */\n      and\n        /* \"#utility.yul\":389:454   */\n      swap1\n      pop\n        /* \"#utility.yul\":334:460   */\n      swap2\n      swap1\n      pop\n      jump\t// out\n        /* \"#utility.yul\":466:562   */\n    tag_67:\n        /* \"#utility.yul\":503:510   */\n      0x00\n        /* \"#utility.yul\":532:556   */\n      tag_90\n        /* \"#utility.yul\":550:555   */\n      dup3\n        /* \"#utility.yul\":532:556   */\n      tag_66\n      jump\t// in\n    tag_90:\n        /* \"#utility.yul\":521:556   */\n      swap1\n      pop\n        /* \"#utility.yul\":466:562   */\n      swap2\n      swap1\n      pop\n      jump\t// out\n        /* \"#utility.yul\":568:690   */\n    tag_68:\n        /* \"#utility.yul\":641:665   */\n      tag_92\n        /* \"#utility.yul\":659:664   */\n      dup2\n        /* \"#utility.yul\":641:665   */\n      tag_67\n      jump\t// in\n    tag_92:\n        /* \"#utility.yul\":634:639   */\n      dup2\n        /* \"#utility.yul\":631:666   */\n      eq\n        /* \"#utility.yul\":621:684   */\n      tag_93\n      jumpi\n        /* \"#utility.yul\":680:681   */\n      0x00\n        /* \"#utility.yul\":677:678   */\n      dup1\n        /* \"#utility.yul\":670:682   */\n      revert\n        /* \"#utility.yul\":621:684   */\n    tag_93:\n        /* \"#utility.yul\":568:690   */\n      pop\n      jump\t// out\n        /* \"#utility.yul\":696:835   */\n    tag_69:\n        /* \"#utility.yul\":742:747   */\n      0x00\n        /* \"#utility.yul\":780:786   */\n      dup2\n        /* \"#utility.yul\":767:787   */\n      calldataload\n        /* \"#utility.yul\":758:787   */\n      swap1\n      pop\n        /* \"#utility.yul\":796:829   */\n      tag_95\n        /* \"#utility.yul\":823:828   */\n      dup2\n        /* \"#utility.yul\":796:829   */\n      tag_68\n      jump\t// in\n    tag_95:\n        /* \"#utility.yul\":696:835   */\n      swap3\n      swap2\n      pop\n      pop\n      jump\t// out\n        /* \"#utility.yul\":841:918   */\n    tag_70:\n        /* \"#utility.yul\":878:885   */\n      0x00\n        /* \"#utility.yul\":907:912   */\n      dup2\n        /* \"#utility.yul\":896:912   */\n      swap1\n      pop\n        /* \"#utility.yul\":841:918   */\n      swap2\n      swap1\n      pop\n      jump\t// out\n        /* \"#utility.yul\":924:1046   */\n    tag_71:\n        /* \"#utility.yul\":997:1021   */\n      tag_98\n        /* \"#utility.yul\":1015:1020   */\n      dup2\n        /* \"#utility.yul\":997:1021   */\n      tag_70\n      jump\t// in\n    tag_98:\n        /* \"#utility.yul\":990:995   */\n      dup2\n        /* \"#utility.yul\":987:1022   */\n      eq\n        /* \"#utility.yul\":977:1040   */\n      tag_99\n      jumpi\n        /* \"#utility.yul\":1036:1037   */\n      0x00\n        /* \"#utility.yul\":1033:1034   */\n      dup1\n        /* \"#utility.yul\":1026:1038   */\n      revert\n        /* \"#utility.yul\":977:1040   */\n    tag_99:\n        /* \"#utility.yul\":924:1046   */\n      pop\n      jump\t// out\n        /* \"#utility.yul\":1052:1191   */\n    tag_72:\n        /* \"#utility.yul\":1098:1103   */\n      0x00\n        /* \"#utility.yul\":1136:1142   */\n      dup2\n        /* \"#utility.yul\":1123:1143   */\n      calldataload\n        /* \"#utility.yul\":1114:1143   */\n      swap1\n      pop\n        /* \"#utility.yul\":1152:1185   */\n      tag_101\n        /* \"#utility.yul\":1179:1184   */\n      dup2\n        /* \"#utility.yul\":1152:1185   */\n      tag_71\n      jump\t// in\n    tag_101:\n        /* \"#utility.yul\":1052:1191   */\n      swap3\n      swap2\n      pop\n      pop\n      jump\t// out\n        /* \"#utility.yul\":1197:1816   */\n    tag_15:\n        /* \"#utility.yul\":1274:1280   */\n      0x00\n        /* \"#utility.yul\":1282:1288   */\n      dup1\n        /* \"#utility.yul\":1290:1296   */\n      0x00\n        /* \"#utility.yul\":1339:1341   */\n      0x60\n        /* \"#utility.yul\":1327:1336   */\n      dup5\n        /* \"#utility.yul\":1318:1325   */\n      dup7\n        /* \"#utility.yul\":1314:1337   */\n      sub\n        /* \"#utility.yul\":1310:1342   */\n      slt\n        /* \"#utility.yul\":1307:1426   */\n      iszero\n      tag_103\n      jumpi\n        /* \"#utility.yul\":1345:1424   */\n      tag_104\n      tag_64\n      jump\t// in\n    tag_104:\n        /* \"#utility.yul\":1307:1426   */\n    tag_103:\n        /* \"#utility.yul\":1465:1466   */\n      0x00\n        /* \"#utility.yul\":1490:1543   */\n      tag_105\n        /* \"#utility.yul\":1535:1542   */\n      dup7\n        /* \"#utility.yul\":1526:1532   */\n      dup3\n        /* \"#utility.yul\":1515:1524   */\n      dup8\n        /* \"#utility.yul\":1511:1533   */\n      add\n        /* \"#utility.yul\":1490:1543   */\n      tag_69\n      jump\t// in\n    tag_105:\n        /* \"#utility.yul\":1480:1543   */\n      swap4\n      pop\n        /* \"#utility.yul\":1436:1553   */\n      pop\n        /* \"#utility.yul\":1592:1594   */\n      0x20\n        /* \"#utility.yul\":1618:1671   */\n      tag_106\n        /* \"#utility.yul\":1663:1670   */\n      dup7\n        /* \"#utility.yul\":1654:1660   */\n      dup3\n        /* \"#utility.yul\":1643:1652   */\n      dup8\n        /* \"#utility.yul\":1639:1661   */\n      add\n        /* \"#utility.yul\":1618:1671   */\n      tag_72\n      jump\t// in\n    tag_106:\n        /* \"#utility.yul\":1608:1671   */\n      swap3\n      pop\n        /* \"#utility.yul\":1563:1681   */\n      pop\n        /* \"#utility.yul\":1720:1722   */\n      0x40\n        /* \"#utility.yul\":1746:1799   */\n      tag_107\n        /* \"#utility.yul\":1791:1798   */\n      dup7\n        /* \"#utility.yul\":1782:1788   */\n      dup3\n        /* \"#utility.yul\":1771:1780   */\n      dup8\n        /* \"#utility.yul\":1767:1789   */\n      add\n        /* \"#utility.yul\":1746:1799   */\n      tag_72\n      jump\t// in\n    tag_107:\n        /* \"#utility.yul\":1736:1799   */\n      swap2\n      pop\n        /* \"#utility.yul\":1691:1809   */\n      pop\n        /* \"#utility.yul\":1197:1816   */\n      swap3\n      pop\n      swap3\n      pop\n      swap3\n      jump\t// out\n        /* \"#utility.yul\":1822:1940   */\n    tag_73:\n        /* \"#utility.yul\":1909:1933   */\n      tag_109\n        /* \"#utility.yul\":1927:1932   */\n      dup2\n        /* \"#utility.yul\":1909:1933   */\n      tag_70\n      jump\t// in\n    tag_109:\n        /* \"#utility.yul\":1904:1907   */\n      dup3\n        /* \"#utility.yul\":1897:1934   */\n      mstore\n        /* \"#utility.yul\":1822:1940   */\n      pop\n      pop\n      jump\t// out\n        /* \"#utility.yul\":1946:2168   */\n    tag_21:\n        /* \"#utility.yul\":2039:2043   */\n      0x00\n        /* \"#utility.yul\":2077:2079   */\n      0x20\n        /* \"#utility.yul\":2066:2075   */\n      dup3\n        /* \"#utility.yul\":2062:2080   */\n      add\n        /* \"#utility.yul\":2054:2080   */\n      swap1\n      pop\n        /* \"#utility.yul\":2090:2161   */\n      tag_111\n        /* \"#utility.yul\":2158:2159   */\n      0x00\n        /* \"#utility.yul\":2147:2156   */\n      dup4\n        /* \"#utility.yul\":2143:2160   */\n      add\n        /* \"#utility.yul\":2134:2140   */\n      dup5\n        /* \"#utility.yul\":2090:2161   */\n      tag_73\n      jump\t// in\n    tag_111:\n        /* \"#utility.yul\":1946:2168   */\n      swap3\n      swap2\n      pop\n      pop\n      jump\t// out\n        /* \"#utility.yul\":2174:2292   */\n    tag_74:\n        /* \"#utility.yul\":2261:2285   */\n      tag_113\n        /* \"#utility.yul\":2279:2284   */\n      dup2\n        /* \"#utility.yul\":2261:2285   */\n      tag_67\n      jump\t// in\n    tag_113:\n        /* \"#utility.yul\":2256:2259   */\n      dup3\n        /* \"#utility.yul\":2249:2286   */\n      mstore\n        /* \"#utility.yul\":2174:2292   */\n      pop\n      pop\n      jump\t// out\n        /* \"#utility.yul\":2298:2520   */\n    tag_30:\n        /* \"#utility.yul\":2391:2395   */\n      0x00\n        /* \"#utility.yul\":2429:2431   */\n      0x20\n        /* \"#utility.yul\":2418:2427   */\n      dup3\n        /* \"#utility.yul\":2414:2432   */\n      add\n        /* \"#utility.yul\":2406:2432   */\n      swap1\n      pop\n        /* \"#utility.yul\":2442:2513   */\n      tag_115\n        /* \"#utility.yul\":2510:2511   */\n      0x00\n        /* \"#utility.yul\":2499:2508   */\n      dup4\n        /* \"#utility.yul\":2495:2512   */\n      add\n        /* \"#utility.yul\":2486:2492   */\n      dup5\n        /* \"#utility.yul\":2442:2513   */\n      tag_74\n      jump\t// in\n    tag_115:\n        /* \"#utility.yul\":2298:2520   */\n      swap3\n      swap2\n      pop\n      pop\n      jump\t// out\n        /* \"#utility.yul\":2526:2630   */\n    tag_75:\n        /* \"#utility.yul\":2571:2578   */\n      0x00\n        /* \"#utility.yul\":2600:2624   */\n      tag_117\n        /* \"#utility.yul\":2618:2623   */\n      dup3\n        /* \"#utility.yul\":2600:2624   */\n      tag_66\n      jump\t// in\n    tag_117:\n        /* \"#utility.yul\":2589:2624   */\n      swap1\n      pop\n        /* \"#utility.yul\":2526:2630   */\n      swap2\n      swap1\n      pop\n      jump\t// out\n        /* \"#utility.yul\":2636:2774   */\n    tag_76:\n        /* \"#utility.yul\":2717:2749   */\n      tag_119\n        /* \"#utility.yul\":2743:2748   */\n      dup2\n        /* \"#utility.yul\":2717:2749   */\n      tag_75\n      jump\t// in\n    tag_119:\n        /* \"#utility.yul\":2710:2715   */\n      dup2\n        /* \"#utility.yul\":2707:2750   */\n      eq\n        /* \"#utility.yul\":2697:2768   */\n      tag_120\n      jumpi\n        /* \"#utility.yul\":2764:2765   */\n      0x00\n        /* \"#utility.yul\":2761:2762   */\n      dup1\n        /* \"#utility.yul\":2754:2766   */\n      revert\n        /* \"#utility.yul\":2697:2768   */\n    tag_120:\n        /* \"#utility.yul\":2636:2774   */\n      pop\n      jump\t// out\n        /* \"#utility.yul\":2780:2935   */\n    tag_77:\n        /* \"#utility.yul\":2834:2839   */\n      0x00\n        /* \"#utility.yul\":2872:2878   */\n      dup2\n        /* \"#utility.yul\":2859:2879   */\n      calldataload\n        /* \"#utility.yul\":2850:2879   */\n      swap1\n      pop\n        /* \"#utility.yul\":2888:2929   */\n      tag_122\n        /* \"#utility.yul\":2923:2928   */\n      dup2\n        /* \"#utility.yul\":2888:2929   */\n      tag_76\n      jump\t// in\n    tag_122:\n        /* \"#utility.yul\":2780:2935   */\n      swap3\n      swap2\n      pop\n      pop\n      jump\t// out\n        /* \"#utility.yul\":2941:3431   */\n    tag_34:\n        /* \"#utility.yul\":3017:3023   */\n      0x00\n        /* \"#utility.yul\":3025:3031   */\n      dup1\n        /* \"#utility.yul\":3074:3076   */\n      0x40\n        /* \"#utility.yul\":3062:3071   */\n      dup4\n        /* \"#utility.yul\":3053:3060   */\n      dup6\n        /* \"#utility.yul\":3049:3072   */\n      sub\n        /* \"#utility.yul\":3045:3077   */\n      slt\n        /* \"#utility.yul\":3042:3161   */\n      iszero\n      tag_124\n      jumpi\n        /* \"#utility.yul\":3080:3159   */\n      tag_125\n      tag_64\n      jump\t// in\n    tag_125:\n        /* \"#utility.yul\":3042:3161   */\n    tag_124:\n        /* \"#utility.yul\":3200:3201   */\n      0x00\n        /* \"#utility.yul\":3225:3286   */\n      tag_126\n        /* \"#utility.yul\":3278:3285   */\n      dup6\n        /* \"#utility.yul\":3269:3275   */\n      dup3\n        /* \"#utility.yul\":3258:3267   */\n      dup7\n        /* \"#utility.yul\":3254:3276   */\n      add\n        /* \"#utility.yul\":3225:3286   */\n      tag_77\n      jump\t// in\n    tag_126:\n        /* \"#utility.yul\":3215:3286   */\n      swap3\n      pop\n        /* \"#utility.yul\":3171:3296   */\n      pop\n        /* \"#utility.yul\":3335:3337   */\n      0x20\n        /* \"#utility.yul\":3361:3414   */\n      tag_127\n        /* \"#utility.yul\":3406:3413   */\n      dup6\n        /* \"#utility.yul\":3397:3403   */\n      dup3\n        /* \"#utility.yul\":3386:3395   */\n      dup7\n        /* \"#utility.yul\":3382:3404   */\n      add\n        /* \"#utility.yul\":3361:3414   */\n      tag_72\n      jump\t// in\n    tag_127:\n        /* \"#utility.yul\":3351:3414   */\n      swap2\n      pop\n        /* \"#utility.yul\":3306:3424   */\n      pop\n        /* \"#utility.yul\":2941:3431   */\n      swap3\n      pop\n      swap3\n      swap1\n      pop\n      jump\t// out\n        /* \"#utility.yul\":3437:3766   */\n    tag_39:\n        /* \"#utility.yul\":3496:3502   */\n      0x00\n        /* \"#utility.yul\":3545:3547   */\n      0x20\n        /* \"#utility.yul\":3533:3542   */\n      dup3\n        /* \"#utility.yul\":3524:3531   */\n      dup5\n        /* \"#utility.yul\":3520:3543   */\n      sub\n        /* \"#utility.yul\":3516:3548   */\n      slt\n        /* \"#utility.yul\":3513:3632   */\n      iszero\n      tag_129\n      jumpi\n        /* \"#utility.yul\":3551:3630   */\n      tag_130\n      tag_64\n      jump\t// in\n    tag_130:\n        /* \"#utility.yul\":3513:3632   */\n    tag_129:\n        /* \"#utility.yul\":3671:3672   */\n      0x00\n        /* \"#utility.yul\":3696:3749   */\n      tag_131\n        /* \"#utility.yul\":3741:3748   */\n      dup5\n        /* \"#utility.yul\":3732:3738   */\n      dup3\n        /* \"#utility.yul\":3721:3730   */\n      dup6\n        /* \"#utility.yul\":3717:3739   */\n      add\n        /* \"#utility.yul\":3696:3749   */\n      tag_69\n      jump\t// in\n    tag_131:\n        /* \"#utility.yul\":3686:3749   */\n      swap2\n      pop\n        /* \"#utility.yul\":3642:3759   */\n      pop\n        /* \"#utility.yul\":3437:3766   */\n      swap3\n      swap2\n      pop\n      pop\n      jump\t// out\n        /* \"#utility.yul\":3772:4214   */\n    tag_42:\n        /* \"#utility.yul\":3921:3925   */\n      0x00\n        /* \"#utility.yul\":3959:3961   */\n      0x60\n        /* \"#utility.yul\":3948:3957   */\n      dup3\n        /* \"#utility.yul\":3944:3962   */\n      add\n        /* \"#utility.yul\":3936:3962   */\n      swap1\n      pop\n        /* \"#utility.yul\":3972:4043   */\n      tag_133\n        /* \"#utility.yul\":4040:4041   */\n      0x00\n        /* \"#utility.yul\":4029:4038   */\n      dup4\n        /* \"#utility.yul\":4025:4042   */\n      add\n        /* \"#utility.yul\":4016:4022   */\n      dup7\n        /* \"#utility.yul\":3972:4043   */\n      tag_74\n      jump\t// in\n    tag_133:\n        /* \"#utility.yul\":4053:4125   */\n      tag_134\n        /* \"#utility.yul\":4121:4123   */\n      0x20\n        /* \"#utility.yul\":4110:4119   */\n      dup4\n        /* \"#utility.yul\":4106:4124   */\n      add\n        /* \"#utility.yul\":4097:4103   */\n      dup6\n        /* \"#utility.yul\":4053:4125   */\n      tag_73\n      jump\t// in\n    tag_134:\n        /* \"#utility.yul\":4135:4207   */\n      tag_135\n        /* \"#utility.yul\":4203:4205   */\n      0x40\n        /* \"#utility.yul\":4192:4201   */\n      dup4\n        /* \"#utility.yul\":4188:4206   */\n      add\n        /* \"#utility.yul\":4179:4185   */\n      dup5\n        /* \"#utility.yul\":4135:4207   */\n      tag_73\n      jump\t// in\n    tag_135:\n        /* \"#utility.yul\":3772:4214   */\n      swap5\n      swap4\n      pop\n      pop\n      pop\n      pop\n      jump\t// out\n        /* \"#utility.yul\":4220:4400   */\n    tag_78:\n        /* \"#utility.yul\":4268:4345   */\n      0x4e487b7100000000000000000000000000000000000000000000000000000000\n        /* \"#utility.yul\":4265:4266   */\n      0x00\n        /* \"#utility.yul\":4258:4346   */\n      mstore\n        /* \"#utility.yul\":4365:4369   */\n      0x11\n        /* \"#utility.yul\":4362:4363   */\n      0x04\n        /* \"#utility.yul\":4355:4370   */\n      mstore\n        /* \"#utility.yul\":4389:4393   */\n      0x24\n        /* \"#utility.yul\":4386:4387   */\n      0x00\n        /* \"#utility.yul\":4379:4394   */\n      revert\n        /* \"#utility.yul\":4406:4597   */\n    tag_46:\n        /* \"#utility.yul\":4446:4449   */\n      0x00\n        /* \"#utility.yul\":4465:4485   */\n      tag_138\n        /* \"#utility.yul\":4483:4484   */\n      dup3\n        /* \"#utility.yul\":4465:4485   */\n      tag_70\n      jump\t// in\n    tag_138:\n        /* \"#utility.yul\":4460:4485   */\n      swap2\n      pop\n        /* \"#utility.yul\":4499:4519   */\n      tag_139\n        /* \"#utility.yul\":4517:4518   */\n      dup4\n        /* \"#utility.yul\":4499:4519   */\n      tag_70\n      jump\t// in\n    tag_139:\n        /* \"#utility.yul\":4494:4519   */\n      swap3\n      pop\n        /* \"#utility.yul\":4542:4543   */\n      dup3\n        /* \"#utility.yul\":4539:4540   */\n      dup3\n        /* \"#utility.yul\":4535:4544   */\n      add\n        /* \"#utility.yul\":4528:4544   */\n      swap1\n      pop\n        /* \"#utility.yul\":4563:4566   */\n      dup1\n        /* \"#utility.yul\":4560:4561   */\n      dup3\n        /* \"#utility.yul\":4557:4567   */\n      gt\n        /* \"#utility.yul\":4554:4590   */\n      iszero\n      tag_140\n      jumpi\n        /* \"#utility.yul\":4570:4588   */\n      tag_141\n      tag_78\n      jump\t// in\n    tag_141:\n        /* \"#utility.yul\":4554:4590   */\n    tag_140:\n        /* \"#utility.yul\":4406:4597   */\n      swap3\n      swap2\n      pop\n      pop\n      jump\t// out\n        /* \"#utility.yul\":4603:4935   */\n    tag_48:\n        /* \"#utility.yul\":4724:4728   */\n      0x00\n        /* \"#utility.yul\":4762:4764   */\n      0x40\n        /* \"#utility.yul\":4751:4760   */\n      dup3\n        /* \"#utility.yul\":4747:4765   */\n      add\n        /* \"#utility.yul\":4739:4765   */\n      swap1\n      pop\n        /* \"#utility.yul\":4775:4846   */\n      tag_143\n        /* \"#utility.yul\":4843:4844   */\n      0x00\n        /* \"#utility.yul\":4832:4841   */\n      dup4\n        /* \"#utility.yul\":4828:4845   */\n      add\n        /* \"#utility.yul\":4819:4825   */\n      dup6\n        /* \"#utility.yul\":4775:4846   */\n      tag_73\n      jump\t// in\n    tag_143:\n        /* \"#utility.yul\":4856:4928   */\n      tag_144\n        /* \"#utility.yul\":4924:4926   */\n      0x20\n        /* \"#utility.yul\":4913:4922   */\n      dup4\n        /* \"#utility.yul\":4909:4927   */\n      add\n        /* \"#utility.yul\":4900:4906   */\n      dup5\n        /* \"#utility.yul\":4856:4928   */\n      tag_73\n      jump\t// in\n    tag_144:\n        /* \"#utility.yul\":4603:4935   */\n      swap4\n      swap3\n      pop\n      pop\n      pop\n      jump\t// out\n        /* \"#utility.yul\":4941:5110   */\n    tag_79:\n        /* \"#utility.yul\":5025:5036   */\n      0x00\n        /* \"#utility.yul\":5059:5065   */\n      dup3\n        /* \"#utility.yul\":5054:5057   */\n      dup3\n        /* \"#utility.yul\":5047:5066   */\n      mstore\n        /* \"#utility.yul\":5099:5103   */\n      0x20\n        /* \"#utility.yul\":5094:5097   */\n      dup3\n        /* \"#utility.yul\":5090:5104   */\n      add\n        /* \"#utility.yul\":5075:5104   */\n      swap1\n      pop\n        /* \"#utility.yul\":4941:5110   */\n      swap3\n      swap2\n      pop\n      pop\n      jump\t// out\n        /* \"#utility.yul\":5116:5284   */\n    tag_80:\n        /* \"#utility.yul\":5256:5276   */\n      0x56616c6964697479206578706972656421210000000000000000000000000000\n        /* \"#utility.yul\":5252:5253   */\n      0x00\n        /* \"#utility.yul\":5244:5250   */\n      dup3\n        /* \"#utility.yul\":5240:5254   */\n      add\n        /* \"#utility.yul\":5233:5277   */\n      mstore\n        /* \"#utility.yul\":5116:5284   */\n      pop\n      jump\t// out\n        /* \"#utility.yul\":5290:5656   */\n    tag_81:\n        /* \"#utility.yul\":5432:5435   */\n      0x00\n        /* \"#utility.yul\":5453:5520   */\n      tag_148\n        /* \"#utility.yul\":5517:5519   */\n      0x12\n        /* \"#utility.yul\":5512:5515   */\n      dup4\n        /* \"#utility.yul\":5453:5520   */\n      tag_79\n      jump\t// in\n    tag_148:\n        /* \"#utility.yul\":5446:5520   */\n      swap2\n      pop\n        /* \"#utility.yul\":5529:5622   */\n      tag_149\n        /* \"#utility.yul\":5618:5621   */\n      dup3\n        /* \"#utility.yul\":5529:5622   */\n      tag_80\n      jump\t// in\n    tag_149:\n        /* \"#utility.yul\":5647:5649   */\n      0x20\n        /* \"#utility.yul\":5642:5645   */\n      dup3\n        /* \"#utility.yul\":5638:5650   */\n      add\n        /* \"#utility.yul\":5631:5650   */\n      swap1\n      pop\n        /* \"#utility.yul\":5290:5656   */\n      swap2\n      swap1\n      pop\n      jump\t// out\n        /* \"#utility.yul\":5662:6081   */\n    tag_54:\n        /* \"#utility.yul\":5828:5832   */\n      0x00\n        /* \"#utility.yul\":5866:5868   */\n      0x20\n        /* \"#utility.yul\":5855:5864   */\n      dup3\n        /* \"#utility.yul\":5851:5869   */\n      add\n        /* \"#utility.yul\":5843:5869   */\n      swap1\n      pop\n        /* \"#utility.yul\":5915:5924   */\n      dup2\n        /* \"#utility.yul\":5909:5913   */\n      dup2\n        /* \"#utility.yul\":5905:5925   */\n      sub\n        /* \"#utility.yul\":5901:5902   */\n      0x00\n        /* \"#utility.yul\":5890:5899   */\n      dup4\n        /* \"#utility.yul\":5886:5903   */\n      add\n        /* \"#utility.yul\":5879:5926   */\n      mstore\n        /* \"#utility.yul\":5943:6074   */\n      tag_151\n        /* \"#utility.yul\":6069:6073   */\n      dup2\n        /* \"#utility.yul\":5943:6074   */\n      tag_81\n      jump\t// in\n    tag_151:\n        /* \"#utility.yul\":5935:6074   */\n      swap1\n      pop\n        /* \"#utility.yul\":5662:6081   */\n      swap2\n      swap1\n      pop\n      jump\t// out\n        /* \"#utility.yul\":6087:6263   */\n    tag_82:\n        /* \"#utility.yul\":6227:6255   */\n      0x416c6c6f77616e6365206e6f742073756666696369656e742121000000000000\n        /* \"#utility.yul\":6223:6224   */\n      0x00\n        /* \"#utility.yul\":6215:6221   */\n      dup3\n        /* \"#utility.yul\":6211:6225   */\n      add\n        /* \"#utility.yul\":6204:6256   */\n      mstore\n        /* \"#utility.yul\":6087:6263   */\n      pop\n      jump\t// out\n        /* \"#utility.yul\":6269:6635   */\n    tag_83:\n        /* \"#utility.yul\":6411:6414   */\n      0x00\n        /* \"#utility.yul\":6432:6499   */\n      tag_154\n        /* \"#utility.yul\":6496:6498   */\n      0x1a\n        /* \"#utility.yul\":6491:6494   */\n      dup4\n        /* \"#utility.yul\":6432:6499   */\n      tag_79\n      jump\t// in\n    tag_154:\n        /* \"#utility.yul\":6425:6499   */\n      swap2\n      pop\n        /* \"#utility.yul\":6508:6601   */\n      tag_155\n        /* \"#utility.yul\":6597:6600   */\n      dup3\n        /* \"#utility.yul\":6508:6601   */\n      tag_82\n      jump\t// in\n    tag_155:\n        /* \"#utility.yul\":6626:6628   */\n      0x20\n        /* \"#utility.yul\":6621:6624   */\n      dup3\n        /* \"#utility.yul\":6617:6629   */\n      add\n        /* \"#utility.yul\":6610:6629   */\n      swap1\n      pop\n        /* \"#utility.yul\":6269:6635   */\n      swap2\n      swap1\n      pop\n      jump\t// out\n        /* \"#utility.yul\":6641:7060   */\n    tag_57:\n        /* \"#utility.yul\":6807:6811   */\n      0x00\n        /* \"#utility.yul\":6845:6847   */\n      0x20\n        /* \"#utility.yul\":6834:6843   */\n      dup3\n        /* \"#utility.yul\":6830:6848   */\n      add\n        /* \"#utility.yul\":6822:6848   */\n      swap1\n      pop\n        /* \"#utility.yul\":6894:6903   */\n      dup2\n        /* \"#utility.yul\":6888:6892   */\n      dup2\n        /* \"#utility.yul\":6884:6904   */\n      sub\n        /* \"#utility.yul\":6880:6881   */\n      0x00\n        /* \"#utility.yul\":6869:6878   */\n      dup4\n        /* \"#utility.yul\":6865:6882   */\n      add\n        /* \"#utility.yul\":6858:6905   */\n      mstore\n        /* \"#utility.yul\":6922:7053   */\n      tag_157\n        /* \"#utility.yul\":7048:7052   */\n      dup2\n        /* \"#utility.yul\":6922:7053   */\n      tag_83\n      jump\t// in\n    tag_157:\n        /* \"#utility.yul\":6914:7053   */\n      swap1\n      pop\n        /* \"#utility.yul\":6641:7060   */\n      swap2\n      swap1\n      pop\n      jump\t// out\n        /* \"#utility.yul\":7066:7260   */\n    tag_59:\n        /* \"#utility.yul\":7106:7110   */\n      0x00\n        /* \"#utility.yul\":7126:7146   */\n      tag_159\n        /* \"#utility.yul\":7144:7145   */\n      dup3\n        /* \"#utility.yul\":7126:7146   */\n      tag_70\n      jump\t// in\n    tag_159:\n        /* \"#utility.yul\":7121:7146   */\n      swap2\n      pop\n        /* \"#utility.yul\":7160:7180   */\n      tag_160\n        /* \"#utility.yul\":7178:7179   */\n      dup4\n        /* \"#utility.yul\":7160:7180   */\n      tag_70\n      jump\t// in\n    tag_160:\n        /* \"#utility.yul\":7155:7180   */\n      swap3\n      pop\n        /* \"#utility.yul\":7204:7205   */\n      dup3\n        /* \"#utility.yul\":7201:7202   */\n      dup3\n        /* \"#utility.yul\":7197:7206   */\n      sub\n        /* \"#utility.yul\":7189:7206   */\n      swap1\n      pop\n        /* \"#utility.yul\":7228:7229   */\n      dup2\n        /* \"#utility.yul\":7222:7226   */\n      dup2\n        /* \"#utility.yul\":7219:7230   */\n      gt\n        /* \"#utility.yul\":7216:7253   */\n      iszero\n      tag_161\n      jumpi\n        /* \"#utility.yul\":7233:7251   */\n      tag_162\n      tag_78\n      jump\t// in\n    tag_162:\n        /* \"#utility.yul\":7216:7253   */\n    tag_161:\n        /* \"#utility.yul\":7066:7260   */\n      swap3\n      swap2\n      pop\n      pop\n      jump\t// out\n\n    auxdata: 0xa264697066735822122034505c4b9d147a90d8496bcbd8ecd2224af97f198f9f135d363a6de1a7a941bb64736f6c63430008120033\n}\n",
				"bytecode": {
					"linkReferences": {},
					"object": "608060405234801561001057600080fd5b503373ffffffffffffffffffffffffffffffffffffffff1660008054906101000a905050506108fd806100446000396000f3fe6080604052600436106100595760003560e01c8063260e67a714610065578063329a27e71461008e57806369376af8146100b95780638da5cb5b146100e4578063978d4e7e1461010f578063a87430ba1461013857610060565b3661006057005b600080fd5b34801561007157600080fd5b5061008c60048036038101906100879190610595565b610177565b005b34801561009a57600080fd5b506100a36102b7565b6040516100b091906105f7565b60405180910390f35b3480156100c557600080fd5b506100ce6102bf565b6040516100db91906105f7565b60405180910390f35b3480156100f057600080fd5b506100f9610309565b6040516101069190610621565b60405180910390f35b34801561011b57600080fd5b506101366004803603810190610131919061067a565b61032d565b005b34801561014457600080fd5b5061015f600480360381019061015a91906106ba565b6104b2565b60405161016e939291906106e7565b60405180910390f35b60008054906101000a90505060008142610191919061074d565b905060405180606001604052808573ffffffffffffffffffffffffffffffffffffffff16815260200184815260200182815250600160008673ffffffffffffffffffffffffffffffffffffffff1673ffffffffffffffffffffffffffffffffffffffff16815260200190815260200160002060008201518160000160006101000a81548173ffffffffffffffffffffffffffffffffffffffff021916908373ffffffffffffffffffffffffffffffffffffffff16021790555060208201518160010155604082015181600201559050508373ffffffffffffffffffffffffffffffffffffffff167f7b5d8b8c4a48ab3c4f698feadf9ec108f89b430c109781190da11151c6b6606784846040516102a9929190610781565b60405180910390a250505050565b600047905090565b6000600160003373ffffffffffffffffffffffffffffffffffffffff1673ffffffffffffffffffffffffffffffffffffffff16815260200190815260200160002060010154905090565b60008054906101000a900473ffffffffffffffffffffffffffffffffffffffff1681565b6000600160003373ffffffffffffffffffffffffffffffffffffffff1673ffffffffffffffffffffffffffffffffffffffff1681526020019081526020016000209050806002015442106103b6576040517f08c379a00000000000000000000000000000000000000000000000000000000081526004016103ad90610807565b60405180910390fd5b80600101548211156103fd576040517f08c379a00000000000000000000000000000000000000000000000000000000081526004016103f490610873565b60405180910390fd5b818160010160008282546104119190610893565b925050819055508273ffffffffffffffffffffffffffffffffffffffff166108fc839081150290604051600060405180830381858888f1935050505015801561045e573d6000803e3d6000fd5b508273ffffffffffffffffffffffffffffffffffffffff167f92c3d05f8ba31385c55d3263a9c7de7c1e17e7da9dba4b20246c3c0cf8df88c2836040516104a591906105f7565b60405180910390a2505050565b60016020528060005260406000206000915090508060000160009054906101000a900473ffffffffffffffffffffffffffffffffffffffff16908060010154908060020154905083565b600080fd5b600073ffffffffffffffffffffffffffffffffffffffff82169050919050565b600061052c82610501565b9050919050565b61053c81610521565b811461054757600080fd5b50565b60008135905061055981610533565b92915050565b6000819050919050565b6105728161055f565b811461057d57600080fd5b50565b60008135905061058f81610569565b92915050565b6000806000606084860312156105ae576105ad6104fc565b5b60006105bc8682870161054a565b93505060206105cd86828701610580565b92505060406105de86828701610580565b9150509250925092565b6105f18161055f565b82525050565b600060208201905061060c60008301846105e8565b92915050565b61061b81610521565b82525050565b60006020820190506106366000830184610612565b92915050565b600061064782610501565b9050919050565b6106578161063c565b811461066257600080fd5b50565b6000813590506106748161064e565b92915050565b60008060408385031215610691576106906104fc565b5b600061069f85828601610665565b92505060206106b085828601610580565b9150509250929050565b6000602082840312156106d0576106cf6104fc565b5b60006106de8482850161054a565b91505092915050565b60006060820190506106fc6000830186610612565b61070960208301856105e8565b61071660408301846105e8565b949350505050565b7f4e487b7100000000000000000000000000000000000000000000000000000000600052601160045260246000fd5b60006107588261055f565b91506107638361055f565b925082820190508082111561077b5761077a61071e565b5b92915050565b600060408201905061079660008301856105e8565b6107a360208301846105e8565b9392505050565b600082825260208201905092915050565b7f56616c6964697479206578706972656421210000000000000000000000000000600082015250565b60006107f16012836107aa565b91506107fc826107bb565b602082019050919050565b60006020820190508181036000830152610820816107e4565b9050919050565b7f416c6c6f77616e6365206e6f742073756666696369656e742121000000000000600082015250565b600061085d601a836107aa565b915061086882610827565b602082019050919050565b6000602082019050818103600083015261088c81610850565b9050919050565b600061089e8261055f565b91506108a98361055f565b92508282039050818111156108c1576108c061071e565b5b9291505056fea264697066735822122034505c4b9d147a90d8496bcbd8ecd2224af97f198f9f135d363a6de1a7a941bb64736f6c63430008120033",
					"opcodes": "PUSH1 0x80 PUSH1 0x40 MSTORE CALLVALUE DUP1 ISZERO PUSH2 0x10 JUMPI PUSH1 0x0 DUP1 REVERT JUMPDEST POP CALLER PUSH20 0xFFFFFFFFFFFFFFFFFFFFFFFFFFFFFFFFFFFFFFFF AND PUSH1 0x0 DUP1 SLOAD SWAP1 PUSH2 0x100 EXP SWAP1 POP POP POP PUSH2 0x8FD DUP1 PUSH2 0x44 PUSH1 0x0 CODECOPY PUSH1 0x0 RETURN INVALID PUSH1 0x80 PUSH1 0x40 MSTORE PUSH1 0x4 CALLDATASIZE LT PUSH2 0x59 JUMPI PUSH1 0x0 CALLDATALOAD PUSH1 0xE0 SHR DUP1 PUSH4 0x260E67A7 EQ PUSH2 0x65 JUMPI DUP1 PUSH4 0x329A27E7 EQ PUSH2 0x8E JUMPI DUP1 PUSH4 0x69376AF8 EQ PUSH2 0xB9 JUMPI DUP1 PUSH4 0x8DA5CB5B EQ PUSH2 0xE4 JUMPI DUP1 PUSH4 0x978D4E7E EQ PUSH2 0x10F JUMPI DUP1 PUSH4 0xA87430BA EQ PUSH2 0x138 JUMPI PUSH2 0x60 JUMP JUMPDEST CALLDATASIZE PUSH2 0x60 JUMPI STOP JUMPDEST PUSH1 0x0 DUP1 REVERT JUMPDEST CALLVALUE DUP1 ISZERO PUSH2 0x71 JUMPI PUSH1 0x0 DUP1 REVERT JUMPDEST POP PUSH2 0x8C PUSH1 0x4 DUP1 CALLDATASIZE SUB DUP2 ADD SWAP1 PUSH2 0x87 SWAP2 SWAP1 PUSH2 0x595 JUMP JUMPDEST PUSH2 0x177 JUMP JUMPDEST STOP JUMPDEST CALLVALUE DUP1 ISZERO PUSH2 0x9A JUMPI PUSH1 0x0 DUP1 REVERT JUMPDEST POP PUSH2 0xA3 PUSH2 0x2B7 JUMP JUMPDEST PUSH1 0x40 MLOAD PUSH2 0xB0 SWAP2 SWAP1 PUSH2 0x5F7 JUMP JUMPDEST PUSH1 0x40 MLOAD DUP1 SWAP2 SUB SWAP1 RETURN JUMPDEST CALLVALUE DUP1 ISZERO PUSH2 0xC5 JUMPI PUSH1 0x0 DUP1 REVERT JUMPDEST POP PUSH2 0xCE PUSH2 0x2BF JUMP JUMPDEST PUSH1 0x40 MLOAD PUSH2 0xDB SWAP2 SWAP1 PUSH2 0x5F7 JUMP JUMPDEST PUSH1 0x40 MLOAD DUP1 SWAP2 SUB SWAP1 RETURN JUMPDEST CALLVALUE DUP1 ISZERO PUSH2 0xF0 JUMPI PUSH1 0x0 DUP1 REVERT JUMPDEST POP PUSH2 0xF9 PUSH2 0x309 JUMP JUMPDEST PUSH1 0x40 MLOAD PUSH2 0x106 SWAP2 SWAP1 PUSH2 0x621 JUMP JUMPDEST PUSH1 0x40 MLOAD DUP1 SWAP2 SUB SWAP1 RETURN JUMPDEST CALLVALUE DUP1 ISZERO PUSH2 0x11B JUMPI PUSH1 0x0 DUP1 REVERT JUMPDEST POP PUSH2 0x136 PUSH1 0x4 DUP1 CALLDATASIZE SUB DUP2 ADD SWAP1 PUSH2 0x131 SWAP2 SWAP1 PUSH2 0x67A JUMP JUMPDEST PUSH2 0x32D JUMP JUMPDEST STOP JUMPDEST CALLVALUE DUP1 ISZERO PUSH2 0x144 JUMPI PUSH1 0x0 DUP1 REVERT JUMPDEST POP PUSH2 0x15F PUSH1 0x4 DUP1 CALLDATASIZE SUB DUP2 ADD SWAP1 PUSH2 0x15A SWAP2 SWAP1 PUSH2 0x6BA JUMP JUMPDEST PUSH2 0x4B2 JUMP JUMPDEST PUSH1 0x40 MLOAD PUSH2 0x16E SWAP4 SWAP3 SWAP2 SWAP1 PUSH2 0x6E7 JUMP JUMPDEST PUSH1 0x40 MLOAD DUP1 SWAP2 SUB SWAP1 RETURN JUMPDEST PUSH1 0x0 DUP1 SLOAD SWAP1 PUSH2 0x100 EXP SWAP1 POP POP PUSH1 0x0 DUP2 TIMESTAMP PUSH2 0x191 SWAP2 SWAP1 PUSH2 0x74D JUMP JUMPDEST SWAP1 POP PUSH1 0x40 MLOAD DUP1 PUSH1 0x60 ADD PUSH1 0x40 MSTORE DUP1 DUP6 PUSH20 0xFFFFFFFFFFFFFFFFFFFFFFFFFFFFFFFFFFFFFFFF AND DUP2 MSTORE PUSH1 0x20 ADD DUP5 DUP2 MSTORE PUSH1 0x20 ADD DUP3 DUP2 MSTORE POP PUSH1 0x1 PUSH1 0x0 DUP7 PUSH20 0xFFFFFFFFFFFFFFFFFFFFFFFFFFFFFFFFFFFFFFFF AND PUSH20 0xFFFFFFFFFFFFFFFFFFFFFFFFFFFFFFFFFFFFFFFF AND DUP2 MSTORE PUSH1 0x20 ADD SWAP1 DUP2 MSTORE PUSH1 0x20 ADD PUSH1 0x0 KECCAK256 PUSH1 0x0 DUP3 ADD MLOAD DUP2 PUSH1 0x0 ADD PUSH1 0x0 PUSH2 0x100 EXP DUP2 SLOAD DUP2 PUSH20 0xFFFFFFFFFFFFFFFFFFFFFFFFFFFFFFFFFFFFFFFF MUL NOT AND SWAP1 DUP4 PUSH20 0xFFFFFFFFFFFFFFFFFFFFFFFFFFFFFFFFFFFFFFFF AND MUL OR SWAP1 SSTORE POP PUSH1 0x20 DUP3 ADD MLOAD DUP2 PUSH1 0x1 ADD SSTORE PUSH1 0x40 DUP3 ADD MLOAD DUP2 PUSH1 0x2 ADD SSTORE SWAP1 POP POP DUP4 PUSH20 0xFFFFFFFFFFFFFFFFFFFFFFFFFFFFFFFFFFFFFFFF AND PUSH32 0x7B5D8B8C4A48AB3C4F698FEADF9EC108F89B430C109781190DA11151C6B66067 DUP5 DUP5 PUSH1 0x40 MLOAD PUSH2 0x2A9 SWAP3 SWAP2 SWAP1 PUSH2 0x781 JUMP JUMPDEST PUSH1 0x40 MLOAD DUP1 SWAP2 SUB SWAP1 LOG2 POP POP POP POP JUMP JUMPDEST PUSH1 0x0 SELFBALANCE SWAP1 POP SWAP1 JUMP JUMPDEST PUSH1 0x0 PUSH1 0x1 PUSH1 0x0 CALLER PUSH20 0xFFFFFFFFFFFFFFFFFFFFFFFFFFFFFFFFFFFFFFFF AND PUSH20 0xFFFFFFFFFFFFFFFFFFFFFFFFFFFFFFFFFFFFFFFF AND DUP2 MSTORE PUSH1 0x20 ADD SWAP1 DUP2 MSTORE PUSH1 0x20 ADD PUSH1 0x0 KECCAK256 PUSH1 0x1 ADD SLOAD SWAP1 POP SWAP1 JUMP JUMPDEST PUSH1 0x0 DUP1 SLOAD SWAP1 PUSH2 0x100 EXP SWAP1 DIV PUSH20 0xFFFFFFFFFFFFFFFFFFFFFFFFFFFFFFFFFFFFFFFF AND DUP2 JUMP JUMPDEST PUSH1 0x0 PUSH1 0x1 PUSH1 0x0 CALLER PUSH20 0xFFFFFFFFFFFFFFFFFFFFFFFFFFFFFFFFFFFFFFFF AND PUSH20 0xFFFFFFFFFFFFFFFFFFFFFFFFFFFFFFFFFFFFFFFF AND DUP2 MSTORE PUSH1 0x20 ADD SWAP1 DUP2 MSTORE PUSH1 0x20 ADD PUSH1 0x0 KECCAK256 SWAP1 POP DUP1 PUSH1 0x2 ADD SLOAD TIMESTAMP LT PUSH2 0x3B6 JUMPI PUSH1 0x40 MLOAD PUSH32 0x8C379A000000000000000000000000000000000000000000000000000000000 DUP2 MSTORE PUSH1 0x4 ADD PUSH2 0x3AD SWAP1 PUSH2 0x807 JUMP JUMPDEST PUSH1 0x40 MLOAD DUP1 SWAP2 SUB SWAP1 REVERT JUMPDEST DUP1 PUSH1 0x1 ADD SLOAD DUP3 GT ISZERO PUSH2 0x3FD JUMPI PUSH1 0x40 MLOAD PUSH32 0x8C379A000000000000000000000000000000000000000000000000000000000 DUP2 MSTORE PUSH1 0x4 ADD PUSH2 0x3F4 SWAP1 PUSH2 0x873 JUMP JUMPDEST PUSH1 0x40 MLOAD DUP1 SWAP2 SUB SWAP1 REVERT JUMPDEST DUP2 DUP2 PUSH1 0x1 ADD PUSH1 0x0 DUP3 DUP3 SLOAD PUSH2 0x411 SWAP2 SWAP1 PUSH2 0x893 JUMP JUMPDEST SWAP3 POP POP DUP2 SWAP1 SSTORE POP DUP3 PUSH20 0xFFFFFFFFFFFFFFFFFFFFFFFFFFFFFFFFFFFFFFFF AND PUSH2 0x8FC DUP4 SWAP1 DUP2 ISZERO MUL SWAP1 PUSH1 0x40 MLOAD PUSH1 0x0 PUSH1 0x40 MLOAD DUP1 DUP4 SUB DUP2 DUP6 DUP9 DUP9 CALL SWAP4 POP POP POP POP ISZERO DUP1 ISZERO PUSH2 0x45E JUMPI RETURNDATASIZE PUSH1 0x0 DUP1 RETURNDATACOPY RETURNDATASIZE PUSH1 0x0 REVERT JUMPDEST POP DUP3 PUSH20 0xFFFFFFFFFFFFFFFFFFFFFFFFFFFFFFFFFFFFFFFF AND PUSH32 0x92C3D05F8BA31385C55D3263A9C7DE7C1E17E7DA9DBA4B20246C3C0CF8DF88C2 DUP4 PUSH1 0x40 MLOAD PUSH2 0x4A5 SWAP2 SWAP1 PUSH2 0x5F7 JUMP JUMPDEST PUSH1 0x40 MLOAD DUP1 SWAP2 SUB SWAP1 LOG2 POP POP POP JUMP JUMPDEST PUSH1 0x1 PUSH1 0x20 MSTORE DUP1 PUSH1 0x0 MSTORE PUSH1 0x40 PUSH1 0x0 KECCAK256 PUSH1 0x0 SWAP2 POP SWAP1 POP DUP1 PUSH1 0x0 ADD PUSH1 0x0 SWAP1 SLOAD SWAP1 PUSH2 0x100 EXP SWAP1 DIV PUSH20 0xFFFFFFFFFFFFFFFFFFFFFFFFFFFFFFFFFFFFFFFF AND SWAP1 DUP1 PUSH1 0x1 ADD SLOAD SWAP1 DUP1 PUSH1 0x2 ADD SLOAD SWAP1 POP DUP4 JUMP JUMPDEST PUSH1 0x0 DUP1 REVERT JUMPDEST PUSH1 0x0 PUSH20 0xFFFFFFFFFFFFFFFFFFFFFFFFFFFFFFFFFFFFFFFF DUP3 AND SWAP1 POP SWAP2 SWAP1 POP JUMP JUMPDEST PUSH1 0x0 PUSH2 0x52C DUP3 PUSH2 0x501 JUMP JUMPDEST SWAP1 POP SWAP2 SWAP1 POP JUMP JUMPDEST PUSH2 0x53C DUP2 PUSH2 0x521 JUMP JUMPDEST DUP2 EQ PUSH2 0x547 JUMPI PUSH1 0x0 DUP1 REVERT JUMPDEST POP JUMP JUMPDEST PUSH1 0x0 DUP2 CALLDATALOAD SWAP1 POP PUSH2 0x559 DUP2 PUSH2 0x533 JUMP JUMPDEST SWAP3 SWAP2 POP POP JUMP JUMPDEST PUSH1 0x0 DUP2 SWAP1 POP SWAP2 SWAP1 POP JUMP JUMPDEST PUSH2 0x572 DUP2 PUSH2 0x55F JUMP JUMPDEST DUP2 EQ PUSH2 0x57D JUMPI PUSH1 0x0 DUP1 REVERT JUMPDEST POP JUMP JUMPDEST PUSH1 0x0 DUP2 CALLDATALOAD SWAP1 POP PUSH2 0x58F DUP2 PUSH2 0x569 JUMP JUMPDEST SWAP3 SWAP2 POP POP JUMP JUMPDEST PUSH1 0x0 DUP1 PUSH1 0x0 PUSH1 0x60 DUP5 DUP7 SUB SLT ISZERO PUSH2 0x5AE JUMPI PUSH2 0x5AD PUSH2 0x4FC JUMP JUMPDEST JUMPDEST PUSH1 0x0 PUSH2 0x5BC DUP7 DUP3 DUP8 ADD PUSH2 0x54A JUMP JUMPDEST SWAP4 POP POP PUSH1 0x20 PUSH2 0x5CD DUP7 DUP3 DUP8 ADD PUSH2 0x580 JUMP JUMPDEST SWAP3 POP POP PUSH1 0x40 PUSH2 0x5DE DUP7 DUP3 DUP8 ADD PUSH2 0x580 JUMP JUMPDEST SWAP2 POP POP SWAP3 POP SWAP3 POP SWAP3 JUMP JUMPDEST PUSH2 0x5F1 DUP2 PUSH2 0x55F JUMP JUMPDEST DUP3 MSTORE POP POP JUMP JUMPDEST PUSH1 0x0 PUSH1 0x20 DUP3 ADD SWAP1 POP PUSH2 0x60C PUSH1 0x0 DUP4 ADD DUP5 PUSH2 0x5E8 JUMP JUMPDEST SWAP3 SWAP2 POP POP JUMP JUMPDEST PUSH2 0x61B DUP2 PUSH2 0x521 JUMP JUMPDEST DUP3 MSTORE POP POP JUMP JUMPDEST PUSH1 0x0 PUSH1 0x20 DUP3 ADD SWAP1 POP PUSH2 0x636 PUSH1 0x0 DUP4 ADD DUP5 PUSH2 0x612 JUMP JUMPDEST SWAP3 SWAP2 POP POP JUMP JUMPDEST PUSH1 0x0 PUSH2 0x647 DUP3 PUSH2 0x501 JUMP JUMPDEST SWAP1 POP SWAP2 SWAP1 POP JUMP JUMPDEST PUSH2 0x657 DUP2 PUSH2 0x63C JUMP JUMPDEST DUP2 EQ PUSH2 0x662 JUMPI PUSH1 0x0 DUP1 REVERT JUMPDEST POP JUMP JUMPDEST PUSH1 0x0 DUP2 CALLDATALOAD SWAP1 POP PUSH2 0x674 DUP2 PUSH2 0x64E JUMP JUMPDEST SWAP3 SWAP2 POP POP JUMP JUMPDEST PUSH1 0x0 DUP1 PUSH1 0x40 DUP4 DUP6 SUB SLT ISZERO PUSH2 0x691 JUMPI PUSH2 0x690 PUSH2 0x4FC JUMP JUMPDEST JUMPDEST PUSH1 0x0 PUSH2 0x69F DUP6 DUP3 DUP7 ADD PUSH2 0x665 JUMP JUMPDEST SWAP3 POP POP PUSH1 0x20 PUSH2 0x6B0 DUP6 DUP3 DUP7 ADD PUSH2 0x580 JUMP JUMPDEST SWAP2 POP POP SWAP3 POP SWAP3 SWAP1 POP JUMP JUMPDEST PUSH1 0x0 PUSH1 0x20 DUP3 DUP5 SUB SLT ISZERO PUSH2 0x6D0 JUMPI PUSH2 0x6CF PUSH2 0x4FC JUMP JUMPDEST JUMPDEST PUSH1 0x0 PUSH2 0x6DE DUP5 DUP3 DUP6 ADD PUSH2 0x54A JUMP JUMPDEST SWAP2 POP POP SWAP3 SWAP2 POP POP JUMP JUMPDEST PUSH1 0x0 PUSH1 0x60 DUP3 ADD SWAP1 POP PUSH2 0x6FC PUSH1 0x0 DUP4 ADD DUP7 PUSH2 0x612 JUMP JUMPDEST PUSH2 0x709 PUSH1 0x20 DUP4 ADD DUP6 PUSH2 0x5E8 JUMP JUMPDEST PUSH2 0x716 PUSH1 0x40 DUP4 ADD DUP5 PUSH2 0x5E8 JUMP JUMPDEST SWAP5 SWAP4 POP POP POP POP JUMP JUMPDEST PUSH32 0x4E487B7100000000000000000000000000000000000000000000000000000000 PUSH1 0x0 MSTORE PUSH1 0x11 PUSH1 0x4 MSTORE PUSH1 0x24 PUSH1 0x0 REVERT JUMPDEST PUSH1 0x0 PUSH2 0x758 DUP3 PUSH2 0x55F JUMP JUMPDEST SWAP2 POP PUSH2 0x763 DUP4 PUSH2 0x55F JUMP JUMPDEST SWAP3 POP DUP3 DUP3 ADD SWAP1 POP DUP1 DUP3 GT ISZERO PUSH2 0x77B JUMPI PUSH2 0x77A PUSH2 0x71E JUMP JUMPDEST JUMPDEST SWAP3 SWAP2 POP POP JUMP JUMPDEST PUSH1 0x0 PUSH1 0x40 DUP3 ADD SWAP1 POP PUSH2 0x796 PUSH1 0x0 DUP4 ADD DUP6 PUSH2 0x5E8 JUMP JUMPDEST PUSH2 0x7A3 PUSH1 0x20 DUP4 ADD DUP5 PUSH2 0x5E8 JUMP JUMPDEST SWAP4 SWAP3 POP POP POP JUMP JUMPDEST PUSH1 0x0 DUP3 DUP3 MSTORE PUSH1 0x20 DUP3 ADD SWAP1 POP SWAP3 SWAP2 POP POP JUMP JUMPDEST PUSH32 0x56616C6964697479206578706972656421210000000000000000000000000000 PUSH1 0x0 DUP3 ADD MSTORE POP JUMP JUMPDEST PUSH1 0x0 PUSH2 0x7F1 PUSH1 0x12 DUP4 PUSH2 0x7AA JUMP JUMPDEST SWAP2 POP PUSH2 0x7FC DUP3 PUSH2 0x7BB JUMP JUMPDEST PUSH1 0x20 DUP3 ADD SWAP1 POP SWAP2 SWAP1 POP JUMP JUMPDEST PUSH1 0x0 PUSH1 0x20 DUP3 ADD SWAP1 POP DUP2 DUP2 SUB PUSH1 0x0 DUP4 ADD MSTORE PUSH2 0x820 DUP2 PUSH2 0x7E4 JUMP JUMPDEST SWAP1 POP SWAP2 SWAP1 POP JUMP JUMPDEST PUSH32 0x416C6C6F77616E6365206E6F742073756666696369656E742121000000000000 PUSH1 0x0 DUP3 ADD MSTORE POP JUMP JUMPDEST PUSH1 0x0 PUSH2 0x85D PUSH1 0x1A DUP4 PUSH2 0x7AA JUMP JUMPDEST SWAP2 POP PUSH2 0x868 DUP3 PUSH2 0x827 JUMP JUMPDEST PUSH1 0x20 DUP3 ADD SWAP1 POP SWAP2 SWAP1 POP JUMP JUMPDEST PUSH1 0x0 PUSH1 0x20 DUP3 ADD SWAP1 POP DUP2 DUP2 SUB PUSH1 0x0 DUP4 ADD MSTORE PUSH2 0x88C DUP2 PUSH2 0x850 JUMP JUMPDEST SWAP1 POP SWAP2 SWAP1 POP JUMP JUMPDEST PUSH1 0x0 PUSH2 0x89E DUP3 PUSH2 0x55F JUMP JUMPDEST SWAP2 POP PUSH2 0x8A9 DUP4 PUSH2 0x55F JUMP JUMPDEST SWAP3 POP DUP3 DUP3 SUB SWAP1 POP DUP2 DUP2 GT ISZERO PUSH2 0x8C1 JUMPI PUSH2 0x8C0 PUSH2 0x71E JUMP JUMPDEST JUMPDEST SWAP3 SWAP2 POP POP JUMP INVALID LOG2 PUSH5 0x6970667358 0x22 SLT KECCAK256 CALLVALUE POP 0x5C 0x4B SWAP14 EQ PUSH27 0x90D8496BCBD8ECD2224AF97F198F9F135D363A6DE1A7A941BB6473 PUSH16 0x6C634300081200330000000000000000 "
				},
				"gasEstimates": {
					"creation": {
						"codeDepositCost": "460200",
						"executionCost": "2632",
						"totalCost": "462832"
					},
					"external": {
						"getWalletBalance()": "339",
						"myAllowance()": "2554",
						"owner()": "2555",
						"renewAllowance(address,uint256,uint256)": "infinite",
						"spendCoins(address,uint256)": "infinite",
						"users(address)": "infinite"
					}
				},
				"methodIdentifiers": {
					"getWalletBalance()": "329a27e7",
					"myAllowance()": "69376af8",
					"owner()": "8da5cb5b",
					"renewAllowance(address,uint256,uint256)": "260e67a7",
					"spendCoins(address,uint256)": "978d4e7e",
					"users(address)": "a87430ba"
				}
			},
			"storageLayout": {
				"storage": [
					{
						"astId": 3,
						"contract": "sibig_learning/SW.sol:Wallet",
						"label": "owner",
						"offset": 0,
						"slot": "0",
						"type": "t_address"
					},
					{
						"astId": 8,
						"contract": "sibig_learning/SW.sol:Wallet",
						"label": "users",
						"offset": 0,
						"slot": "1",
						"type": "t_mapping(t_address,t_struct(User)15_storage)"
					}
				],
				"types": {
					"t_address": {
						"encoding": "inplace",
						"label": "address",
						"numberOfBytes": "20"
					},
					"t_mapping(t_address,t_struct(User)15_storage)": {
						"encoding": "mapping",
						"key": "t_address",
						"label": "mapping(address => struct Wallet.User)",
						"numberOfBytes": "32",
						"value": "t_struct(User)15_storage"
					},
					"t_struct(User)15_storage": {
						"encoding": "inplace",
						"label": "struct Wallet.User",
						"members": [
							{
								"astId": 10,
								"contract": "sibig_learning/SW.sol:Wallet",
								"label": "userAddress",
								"offset": 0,
								"slot": "0",
								"type": "t_address"
							},
							{
								"astId": 12,
								"contract": "sibig_learning/SW.sol:Wallet",
								"label": "Allowance",
								"offset": 0,
								"slot": "1",
								"type": "t_uint256"
							},
							{
								"astId": 14,
								"contract": "sibig_learning/SW.sol:Wallet",
								"label": "Validity",
								"offset": 0,
								"slot": "2",
								"type": "t_uint256"
							}
						],
						"numberOfBytes": "96"
					},
					"t_uint256": {
						"encoding": "inplace",
						"label": "uint256",
						"numberOfBytes": "32"
					}
				}
			},
			"userdoc": {
				"kind": "user",
				"methods": {},
				"version": 1
			}
		}
	}
}