{
	"sibig_learning/first prog.sol": {
		"TestContract": {
			"abi": [
				{
					"inputs": [],
					"name": "getNumber",
					"outputs": [
						{
							"internalType": "uint256",
							"name": "",
							"type": "uint256"
						}
					],
					"stateMutability": "view",
					"type": "function"
				},
				{
					"inputs": [],
					"name": "getNumber1",
					"outputs": [
						{
							"internalType": "int256",
							"name": "",
							"type": "int256"
						}
					],
					"stateMutability": "view",
					"type": "function"
				},
				{
					"inputs": [],
					"name": "num",
					"outputs": [
						{
							"internalType": "uint256",
							"name": "",
							"type": "uint256"
						}
					],
					"stateMutability": "view",
					"type": "function"
				},
				{
					"inputs": [],
					"name": "num1",
					"outputs": [
						{
							"internalType": "int256",
							"name": "",
							"type": "int256"
						}
					],
					"stateMutability": "view",
					"type": "function"
				},
				{
					"inputs": [],
					"name": "num2",
					"outputs": [
						{
							"internalType": "uint256",
							"name": "",
							"type": "uint256"
						}
					],
					"stateMutability": "view",
					"type": "function"
				},
				{
					"inputs": [
						{
							"internalType": "uint256",
							"name": "_num",
							"type": "uint256"
						},
						{
							"internalType": "uint256",
							"name": "_num2",
							"type": "uint256"
						}
					],
					"name": "setNumber",
					"outputs": [],
					"stateMutability": "nonpayable",
					"type": "function"
				},
				{
					"inputs": [
						{
							"internalType": "int256",
							"name": "_num1",
							"type": "int256"
						}
					],
					"name": "setNumber",
					"outputs": [],
					"stateMutability": "nonpayable",
					"type": "function"
				}
			],
			"devdoc": {
				"kind": "dev",
				"methods": {},
				"version": 1
			},
			"evm": {
				"assembly": "    /* \"sibig_learning/first prog.sol\":56:521  contract TestContract {... */\n  mstore(0x40, 0x80)\n  callvalue\n  dup1\n  iszero\n  tag_1\n  jumpi\n  0x00\n  dup1\n  revert\ntag_1:\n  pop\n  dataSize(sub_0)\n  dup1\n  dataOffset(sub_0)\n  0x00\n  codecopy\n  0x00\n  return\nstop\n\nsub_0: assembly {\n        /* \"sibig_learning/first prog.sol\":56:521  contract TestContract {... */\n      mstore(0x40, 0x80)\n      callvalue\n      dup1\n      iszero\n      tag_1\n      jumpi\n      0x00\n      dup1\n      revert\n    tag_1:\n      pop\n      jumpi(tag_2, lt(calldatasize, 0x04))\n      shr(0xe0, calldataload(0x00))\n      dup1\n      0x6b19e8c7\n      gt\n      tag_10\n      jumpi\n      dup1\n      0x6b19e8c7\n      eq\n      tag_6\n      jumpi\n      dup1\n      0x9cf27f37\n      eq\n      tag_7\n      jumpi\n      dup1\n      0x9e911f4c\n      eq\n      tag_8\n      jumpi\n      dup1\n      0xf2c9ecd8\n      eq\n      tag_9\n      jumpi\n      jump(tag_2)\n    tag_10:\n      dup1\n      0x15d4266c\n      eq\n      tag_3\n      jumpi\n      dup1\n      0x3b9eac4b\n      eq\n      tag_4\n      jumpi\n      dup1\n      0x4e70b1dc\n      eq\n      tag_5\n      jumpi\n    tag_2:\n      0x00\n      dup1\n      revert\n        /* \"sibig_learning/first prog.sol\":130:146  uint public num2 */\n    tag_3:\n      tag_11\n      tag_12\n      jump\t// in\n    tag_11:\n      mload(0x40)\n      tag_13\n      swap2\n      swap1\n      tag_14\n      jump\t// in\n    tag_13:\n      mload(0x40)\n      dup1\n      swap2\n      sub\n      swap1\n      return\n        /* \"sibig_learning/first prog.sol\":107:122  int public num1 */\n    tag_4:\n      tag_15\n      tag_16\n      jump\t// in\n    tag_15:\n      mload(0x40)\n      tag_17\n      swap2\n      swap1\n      tag_18\n      jump\t// in\n    tag_17:\n      mload(0x40)\n      dup1\n      swap2\n      sub\n      swap1\n      return\n        /* \"sibig_learning/first prog.sol\":85:100  uint public num */\n    tag_5:\n      tag_19\n      tag_20\n      jump\t// in\n    tag_19:\n      mload(0x40)\n      tag_21\n      swap2\n      swap1\n      tag_14\n      jump\t// in\n    tag_21:\n      mload(0x40)\n      dup1\n      swap2\n      sub\n      swap1\n      return\n        /* \"sibig_learning/first prog.sol\":156:262  function setNumber ( uint _num, uint _num2) public ... */\n    tag_6:\n      tag_22\n      0x04\n      dup1\n      calldatasize\n      sub\n      dup2\n      add\n      swap1\n      tag_23\n      swap2\n      swap1\n      tag_24\n      jump\t// in\n    tag_23:\n      tag_25\n      jump\t// in\n    tag_22:\n      stop\n        /* \"sibig_learning/first prog.sol\":359:432  function setNumber ( int _num1) public ... */\n    tag_7:\n      tag_26\n      0x04\n      dup1\n      calldatasize\n      sub\n      dup2\n      add\n      swap1\n      tag_27\n      swap2\n      swap1\n      tag_28\n      jump\t// in\n    tag_27:\n      tag_29\n      jump\t// in\n    tag_26:\n      stop\n        /* \"sibig_learning/first prog.sol\":440:519  function getNumber1() public view returns(int)... */\n    tag_8:\n      tag_30\n      tag_31\n      jump\t// in\n    tag_30:\n      mload(0x40)\n      tag_32\n      swap2\n      swap1\n      tag_18\n      jump\t// in\n    tag_32:\n      mload(0x40)\n      dup1\n      swap2\n      sub\n      swap1\n      return\n        /* \"sibig_learning/first prog.sol\":268:352  function getNumber() public view returns(uint)... */\n    tag_9:\n      tag_33\n      tag_34\n      jump\t// in\n    tag_33:\n      mload(0x40)\n      tag_35\n      swap2\n      swap1\n      tag_14\n      jump\t// in\n    tag_35:\n      mload(0x40)\n      dup1\n      swap2\n      sub\n      swap1\n      return\n        /* \"sibig_learning/first prog.sol\":130:146  uint public num2 */\n    tag_12:\n      sload(0x02)\n      dup2\n      jump\t// out\n        /* \"sibig_learning/first prog.sol\":107:122  int public num1 */\n    tag_16:\n      sload(0x01)\n      dup2\n      jump\t// out\n        /* \"sibig_learning/first prog.sol\":85:100  uint public num */\n    tag_20:\n      sload(0x00)\n      dup2\n      jump\t// out\n        /* \"sibig_learning/first prog.sol\":156:262  function setNumber ( uint _num, uint _num2) public ... */\n    tag_25:\n        /* \"sibig_learning/first prog.sol\":228:232  _num */\n      dup2\n        /* \"sibig_learning/first prog.sol\":222:225  num */\n      0x00\n        /* \"sibig_learning/first prog.sol\":222:232  num = _num */\n      dup2\n      swap1\n      sstore\n      pop\n        /* \"sibig_learning/first prog.sol\":249:254  _num2 */\n      dup1\n        /* \"sibig_learning/first prog.sol\":242:246  num2 */\n      0x02\n        /* \"sibig_learning/first prog.sol\":242:254  num2 = _num2 */\n      dup2\n      swap1\n      sstore\n      pop\n        /* \"sibig_learning/first prog.sol\":156:262  function setNumber ( uint _num, uint _num2) public ... */\n      pop\n      pop\n      jump\t// out\n        /* \"sibig_learning/first prog.sol\":359:432  function setNumber ( int _num1) public ... */\n    tag_29:\n        /* \"sibig_learning/first prog.sol\":420:425  _num1 */\n      dup1\n        /* \"sibig_learning/first prog.sol\":413:417  num1 */\n      0x01\n        /* \"sibig_learning/first prog.sol\":413:425  num1 = _num1 */\n      dup2\n      swap1\n      sstore\n      pop\n        /* \"sibig_learning/first prog.sol\":359:432  function setNumber ( int _num1) public ... */\n      pop\n      jump\t// out\n        /* \"sibig_learning/first prog.sol\":440:519  function getNumber1() public view returns(int)... */\n    tag_31:\n        /* \"sibig_learning/first prog.sol\":482:485  int */\n      0x00\n        /* \"sibig_learning/first prog.sol\":508:512  num1 */\n      sload(0x01)\n        /* \"sibig_learning/first prog.sol\":501:512  return num1 */\n      swap1\n      pop\n        /* \"sibig_learning/first prog.sol\":440:519  function getNumber1() public view returns(int)... */\n      swap1\n      jump\t// out\n        /* \"sibig_learning/first prog.sol\":268:352  function getNumber() public view returns(uint)... */\n    tag_34:\n        /* \"sibig_learning/first prog.sol\":309:313  uint */\n      0x00\n        /* \"sibig_learning/first prog.sol\":342:345  num */\n      dup1\n      sload\n        /* \"sibig_learning/first prog.sol\":336:339  num */\n      sload(0x00)\n        /* \"sibig_learning/first prog.sol\":336:345  num / num */\n      tag_40\n      swap2\n      swap1\n      tag_41\n      jump\t// in\n    tag_40:\n        /* \"sibig_learning/first prog.sol\":329:345  return num / num */\n      swap1\n      pop\n        /* \"sibig_learning/first prog.sol\":268:352  function getNumber() public view returns(uint)... */\n      swap1\n      jump\t// out\n        /* \"#utility.yul\":7:144   */\n    tag_43:\n        /* \"#utility.yul\":52:57   */\n      0x00\n        /* \"#utility.yul\":90:96   */\n      dup2\n        /* \"#utility.yul\":77:97   */\n      calldataload\n        /* \"#utility.yul\":68:97   */\n      swap1\n      pop\n        /* \"#utility.yul\":106:138   */\n      tag_45\n        /* \"#utility.yul\":132:137   */\n      dup2\n        /* \"#utility.yul\":106:138   */\n      tag_46\n      jump\t// in\n    tag_45:\n        /* \"#utility.yul\":7:144   */\n      swap3\n      swap2\n      pop\n      pop\n      jump\t// out\n        /* \"#utility.yul\":150:289   */\n    tag_47:\n        /* \"#utility.yul\":196:201   */\n      0x00\n        /* \"#utility.yul\":234:240   */\n      dup2\n        /* \"#utility.yul\":221:241   */\n      calldataload\n        /* \"#utility.yul\":212:241   */\n      swap1\n      pop\n        /* \"#utility.yul\":250:283   */\n      tag_49\n        /* \"#utility.yul\":277:282   */\n      dup2\n        /* \"#utility.yul\":250:283   */\n      tag_50\n      jump\t// in\n    tag_49:\n        /* \"#utility.yul\":150:289   */\n      swap3\n      swap2\n      pop\n      pop\n      jump\t// out\n        /* \"#utility.yul\":295:622   */\n    tag_28:\n        /* \"#utility.yul\":353:359   */\n      0x00\n        /* \"#utility.yul\":402:404   */\n      0x20\n        /* \"#utility.yul\":390:399   */\n      dup3\n        /* \"#utility.yul\":381:388   */\n      dup5\n        /* \"#utility.yul\":377:400   */\n      sub\n        /* \"#utility.yul\":373:405   */\n      slt\n        /* \"#utility.yul\":370:489   */\n      iszero\n      tag_52\n      jumpi\n        /* \"#utility.yul\":408:487   */\n      tag_53\n      tag_54\n      jump\t// in\n    tag_53:\n        /* \"#utility.yul\":370:489   */\n    tag_52:\n        /* \"#utility.yul\":528:529   */\n      0x00\n        /* \"#utility.yul\":553:605   */\n      tag_55\n        /* \"#utility.yul\":597:604   */\n      dup5\n        /* \"#utility.yul\":588:594   */\n      dup3\n        /* \"#utility.yul\":577:586   */\n      dup6\n        /* \"#utility.yul\":573:595   */\n      add\n        /* \"#utility.yul\":553:605   */\n      tag_43\n      jump\t// in\n    tag_55:\n        /* \"#utility.yul\":543:605   */\n      swap2\n      pop\n        /* \"#utility.yul\":499:615   */\n      pop\n        /* \"#utility.yul\":295:622   */\n      swap3\n      swap2\n      pop\n      pop\n      jump\t// out\n        /* \"#utility.yul\":628:1102   */\n    tag_24:\n        /* \"#utility.yul\":696:702   */\n      0x00\n        /* \"#utility.yul\":704:710   */\n      dup1\n        /* \"#utility.yul\":753:755   */\n      0x40\n        /* \"#utility.yul\":741:750   */\n      dup4\n        /* \"#utility.yul\":732:739   */\n      dup6\n        /* \"#utility.yul\":728:751   */\n      sub\n        /* \"#utility.yul\":724:756   */\n      slt\n        /* \"#utility.yul\":721:840   */\n      iszero\n      tag_57\n      jumpi\n        /* \"#utility.yul\":759:838   */\n      tag_58\n      tag_54\n      jump\t// in\n    tag_58:\n        /* \"#utility.yul\":721:840   */\n    tag_57:\n        /* \"#utility.yul\":879:880   */\n      0x00\n        /* \"#utility.yul\":904:957   */\n      tag_59\n        /* \"#utility.yul\":949:956   */\n      dup6\n        /* \"#utility.yul\":940:946   */\n      dup3\n        /* \"#utility.yul\":929:938   */\n      dup7\n        /* \"#utility.yul\":925:947   */\n      add\n        /* \"#utility.yul\":904:957   */\n      tag_47\n      jump\t// in\n    tag_59:\n        /* \"#utility.yul\":894:957   */\n      swap3\n      pop\n        /* \"#utility.yul\":850:967   */\n      pop\n        /* \"#utility.yul\":1006:1008   */\n      0x20\n        /* \"#utility.yul\":1032:1085   */\n      tag_60\n        /* \"#utility.yul\":1077:1084   */\n      dup6\n        /* \"#utility.yul\":1068:1074   */\n      dup3\n        /* \"#utility.yul\":1057:1066   */\n      dup7\n        /* \"#utility.yul\":1053:1075   */\n      add\n        /* \"#utility.yul\":1032:1085   */\n      tag_47\n      jump\t// in\n    tag_60:\n        /* \"#utility.yul\":1022:1085   */\n      swap2\n      pop\n        /* \"#utility.yul\":977:1095   */\n      pop\n        /* \"#utility.yul\":628:1102   */\n      swap3\n      pop\n      swap3\n      swap1\n      pop\n      jump\t// out\n        /* \"#utility.yul\":1108:1223   */\n    tag_61:\n        /* \"#utility.yul\":1193:1216   */\n      tag_63\n        /* \"#utility.yul\":1210:1215   */\n      dup2\n        /* \"#utility.yul\":1193:1216   */\n      tag_64\n      jump\t// in\n    tag_63:\n        /* \"#utility.yul\":1188:1191   */\n      dup3\n        /* \"#utility.yul\":1181:1217   */\n      mstore\n        /* \"#utility.yul\":1108:1223   */\n      pop\n      pop\n      jump\t// out\n        /* \"#utility.yul\":1229:1347   */\n    tag_65:\n        /* \"#utility.yul\":1316:1340   */\n      tag_67\n        /* \"#utility.yul\":1334:1339   */\n      dup2\n        /* \"#utility.yul\":1316:1340   */\n      tag_68\n      jump\t// in\n    tag_67:\n        /* \"#utility.yul\":1311:1314   */\n      dup3\n        /* \"#utility.yul\":1304:1341   */\n      mstore\n        /* \"#utility.yul\":1229:1347   */\n      pop\n      pop\n      jump\t// out\n        /* \"#utility.yul\":1353:1571   */\n    tag_18:\n        /* \"#utility.yul\":1444:1448   */\n      0x00\n        /* \"#utility.yul\":1482:1484   */\n      0x20\n        /* \"#utility.yul\":1471:1480   */\n      dup3\n        /* \"#utility.yul\":1467:1485   */\n      add\n        /* \"#utility.yul\":1459:1485   */\n      swap1\n      pop\n        /* \"#utility.yul\":1495:1564   */\n      tag_70\n        /* \"#utility.yul\":1561:1562   */\n      0x00\n        /* \"#utility.yul\":1550:1559   */\n      dup4\n        /* \"#utility.yul\":1546:1563   */\n      add\n        /* \"#utility.yul\":1537:1543   */\n      dup5\n        /* \"#utility.yul\":1495:1564   */\n      tag_61\n      jump\t// in\n    tag_70:\n        /* \"#utility.yul\":1353:1571   */\n      swap3\n      swap2\n      pop\n      pop\n      jump\t// out\n        /* \"#utility.yul\":1577:1799   */\n    tag_14:\n        /* \"#utility.yul\":1670:1674   */\n      0x00\n        /* \"#utility.yul\":1708:1710   */\n      0x20\n        /* \"#utility.yul\":1697:1706   */\n      dup3\n        /* \"#utility.yul\":1693:1711   */\n      add\n        /* \"#utility.yul\":1685:1711   */\n      swap1\n      pop\n        /* \"#utility.yul\":1721:1792   */\n      tag_72\n        /* \"#utility.yul\":1789:1790   */\n      0x00\n        /* \"#utility.yul\":1778:1787   */\n      dup4\n        /* \"#utility.yul\":1774:1791   */\n      add\n        /* \"#utility.yul\":1765:1771   */\n      dup5\n        /* \"#utility.yul\":1721:1792   */\n      tag_65\n      jump\t// in\n    tag_72:\n        /* \"#utility.yul\":1577:1799   */\n      swap3\n      swap2\n      pop\n      pop\n      jump\t// out\n        /* \"#utility.yul\":1886:2071   */\n    tag_41:\n        /* \"#utility.yul\":1926:1927   */\n      0x00\n        /* \"#utility.yul\":1943:1963   */\n      tag_76\n        /* \"#utility.yul\":1961:1962   */\n      dup3\n        /* \"#utility.yul\":1943:1963   */\n      tag_68\n      jump\t// in\n    tag_76:\n        /* \"#utility.yul\":1938:1963   */\n      swap2\n      pop\n        /* \"#utility.yul\":1977:1997   */\n      tag_77\n        /* \"#utility.yul\":1995:1996   */\n      dup4\n        /* \"#utility.yul\":1977:1997   */\n      tag_68\n      jump\t// in\n    tag_77:\n        /* \"#utility.yul\":1972:1997   */\n      swap3\n      pop\n        /* \"#utility.yul\":2016:2017   */\n      dup3\n        /* \"#utility.yul\":2006:2041   */\n      tag_78\n      jumpi\n        /* \"#utility.yul\":2021:2039   */\n      tag_79\n      tag_80\n      jump\t// in\n    tag_79:\n        /* \"#utility.yul\":2006:2041   */\n    tag_78:\n        /* \"#utility.yul\":2063:2064   */\n      dup3\n        /* \"#utility.yul\":2060:2061   */\n      dup3\n        /* \"#utility.yul\":2056:2065   */\n      div\n        /* \"#utility.yul\":2051:2065   */\n      swap1\n      pop\n        /* \"#utility.yul\":1886:2071   */\n      swap3\n      swap2\n      pop\n      pop\n      jump\t// out\n        /* \"#utility.yul\":2077:2153   */\n    tag_64:\n        /* \"#utility.yul\":2113:2120   */\n      0x00\n        /* \"#utility.yul\":2142:2147   */\n      dup2\n        /* \"#utility.yul\":2131:2147   */\n      swap1\n      pop\n        /* \"#utility.yul\":2077:2153   */\n      swap2\n      swap1\n      pop\n      jump\t// out\n        /* \"#utility.yul\":2159:2236   */\n    tag_68:\n        /* \"#utility.yul\":2196:2203   */\n      0x00\n        /* \"#utility.yul\":2225:2230   */\n      dup2\n        /* \"#utility.yul\":2214:2230   */\n      swap1\n      pop\n        /* \"#utility.yul\":2159:2236   */\n      swap2\n      swap1\n      pop\n      jump\t// out\n        /* \"#utility.yul\":2428:2608   */\n    tag_80:\n        /* \"#utility.yul\":2476:2553   */\n      0x4e487b7100000000000000000000000000000000000000000000000000000000\n        /* \"#utility.yul\":2473:2474   */\n      0x00\n        /* \"#utility.yul\":2466:2554   */\n      mstore\n        /* \"#utility.yul\":2573:2577   */\n      0x12\n        /* \"#utility.yul\":2570:2571   */\n      0x04\n        /* \"#utility.yul\":2563:2578   */\n      mstore\n        /* \"#utility.yul\":2597:2601   */\n      0x24\n        /* \"#utility.yul\":2594:2595   */\n      0x00\n        /* \"#utility.yul\":2587:2602   */\n      revert\n        /* \"#utility.yul\":2737:2854   */\n    tag_54:\n        /* \"#utility.yul\":2846:2847   */\n      0x00\n        /* \"#utility.yul\":2843:2844   */\n      dup1\n        /* \"#utility.yul\":2836:2848   */\n      revert\n        /* \"#utility.yul\":2860:2980   */\n    tag_46:\n        /* \"#utility.yul\":2932:2955   */\n      tag_90\n        /* \"#utility.yul\":2949:2954   */\n      dup2\n        /* \"#utility.yul\":2932:2955   */\n      tag_64\n      jump\t// in\n    tag_90:\n        /* \"#utility.yul\":2925:2930   */\n      dup2\n        /* \"#utility.yul\":2922:2956   */\n      eq\n        /* \"#utility.yul\":2912:2974   */\n      tag_91\n      jumpi\n        /* \"#utility.yul\":2970:2971   */\n      0x00\n        /* \"#utility.yul\":2967:2968   */\n      dup1\n        /* \"#utility.yul\":2960:2972   */\n      revert\n        /* \"#utility.yul\":2912:2974   */\n    tag_91:\n        /* \"#utility.yul\":2860:2980   */\n      pop\n      jump\t// out\n        /* \"#utility.yul\":2986:3108   */\n    tag_50:\n        /* \"#utility.yul\":3059:3083   */\n      tag_93\n        /* \"#utility.yul\":3077:3082   */\n      dup2\n        /* \"#utility.yul\":3059:3083   */\n      tag_68\n      jump\t// in\n    tag_93:\n        /* \"#utility.yul\":3052:3057   */\n      dup2\n        /* \"#utility.yul\":3049:3084   */\n      eq\n        /* \"#utility.yul\":3039:3102   */\n      tag_94\n      jumpi\n        /* \"#utility.yul\":3098:3099   */\n      0x00\n        /* \"#utility.yul\":3095:3096   */\n      dup1\n        /* \"#utility.yul\":3088:3100   */\n      revert\n        /* \"#utility.yul\":3039:3102   */\n    tag_94:\n        /* \"#utility.yul\":2986:3108   */\n      pop\n      jump\t// out\n\n    auxdata: 0xa2646970667358221220aab3e66dfbc98846d038ec0fa2b1268ca98f493e3e188dccea22dfeb20746bf964736f6c63430008070033\n}\n",
				"bytecode": {
					"linkReferences": {},
					"object": "608060405234801561001057600080fd5b50610366806100206000396000f3fe608060405234801561001057600080fd5b506004361061007d5760003560e01c80636b19e8c71161005b5780636b19e8c7146100dc5780639cf27f37146100f85780639e911f4c14610114578063f2c9ecd8146101325761007d565b806315d4266c146100825780633b9eac4b146100a05780634e70b1dc146100be575b600080fd5b61008a610150565b604051610097919061026e565b60405180910390f35b6100a8610156565b6040516100b59190610253565b60405180910390f35b6100c661015c565b6040516100d3919061026e565b60405180910390f35b6100f660048036038101906100f191906101f5565b610162565b005b610112600480360381019061010d91906101c8565b610174565b005b61011c61017e565b6040516101299190610253565b60405180910390f35b61013a610188565b604051610147919061026e565b60405180910390f35b60025481565b60015481565b60005481565b81600081905550806002819055505050565b8060018190555050565b6000600154905090565b600080546000546101999190610289565b905090565b6000813590506101ad81610302565b92915050565b6000813590506101c281610319565b92915050565b6000602082840312156101de576101dd6102fd565b5b60006101ec8482850161019e565b91505092915050565b6000806040838503121561020c5761020b6102fd565b5b600061021a858286016101b3565b925050602061022b858286016101b3565b9150509250929050565b61023e816102ba565b82525050565b61024d816102c4565b82525050565b60006020820190506102686000830184610235565b92915050565b60006020820190506102836000830184610244565b92915050565b6000610294826102c4565b915061029f836102c4565b9250826102af576102ae6102ce565b5b828204905092915050565b6000819050919050565b6000819050919050565b7f4e487b7100000000000000000000000000000000000000000000000000000000600052601260045260246000fd5b600080fd5b61030b816102ba565b811461031657600080fd5b50565b610322816102c4565b811461032d57600080fd5b5056fea2646970667358221220aab3e66dfbc98846d038ec0fa2b1268ca98f493e3e188dccea22dfeb20746bf964736f6c63430008070033",
					"opcodes": "PUSH1 0x80 PUSH1 0x40 MSTORE CALLVALUE DUP1 ISZERO PUSH2 0x10 JUMPI PUSH1 0x0 DUP1 REVERT JUMPDEST POP PUSH2 0x366 DUP1 PUSH2 0x20 PUSH1 0x0 CODECOPY PUSH1 0x0 RETURN INVALID PUSH1 0x80 PUSH1 0x40 MSTORE CALLVALUE DUP1 ISZERO PUSH2 0x10 JUMPI PUSH1 0x0 DUP1 REVERT JUMPDEST POP PUSH1 0x4 CALLDATASIZE LT PUSH2 0x7D JUMPI PUSH1 0x0 CALLDATALOAD PUSH1 0xE0 SHR DUP1 PUSH4 0x6B19E8C7 GT PUSH2 0x5B JUMPI DUP1 PUSH4 0x6B19E8C7 EQ PUSH2 0xDC JUMPI DUP1 PUSH4 0x9CF27F37 EQ PUSH2 0xF8 JUMPI DUP1 PUSH4 0x9E911F4C EQ PUSH2 0x114 JUMPI DUP1 PUSH4 0xF2C9ECD8 EQ PUSH2 0x132 JUMPI PUSH2 0x7D JUMP JUMPDEST DUP1 PUSH4 0x15D4266C EQ PUSH2 0x82 JUMPI DUP1 PUSH4 0x3B9EAC4B EQ PUSH2 0xA0 JUMPI DUP1 PUSH4 0x4E70B1DC EQ PUSH2 0xBE JUMPI JUMPDEST PUSH1 0x0 DUP1 REVERT JUMPDEST PUSH2 0x8A PUSH2 0x150 JUMP JUMPDEST PUSH1 0x40 MLOAD PUSH2 0x97 SWAP2 SWAP1 PUSH2 0x26E JUMP JUMPDEST PUSH1 0x40 MLOAD DUP1 SWAP2 SUB SWAP1 RETURN JUMPDEST PUSH2 0xA8 PUSH2 0x156 JUMP JUMPDEST PUSH1 0x40 MLOAD PUSH2 0xB5 SWAP2 SWAP1 PUSH2 0x253 JUMP JUMPDEST PUSH1 0x40 MLOAD DUP1 SWAP2 SUB SWAP1 RETURN JUMPDEST PUSH2 0xC6 PUSH2 0x15C JUMP JUMPDEST PUSH1 0x40 MLOAD PUSH2 0xD3 SWAP2 SWAP1 PUSH2 0x26E JUMP JUMPDEST PUSH1 0x40 MLOAD DUP1 SWAP2 SUB SWAP1 RETURN JUMPDEST PUSH2 0xF6 PUSH1 0x4 DUP1 CALLDATASIZE SUB DUP2 ADD SWAP1 PUSH2 0xF1 SWAP2 SWAP1 PUSH2 0x1F5 JUMP JUMPDEST PUSH2 0x162 JUMP JUMPDEST STOP JUMPDEST PUSH2 0x112 PUSH1 0x4 DUP1 CALLDATASIZE SUB DUP2 ADD SWAP1 PUSH2 0x10D SWAP2 SWAP1 PUSH2 0x1C8 JUMP JUMPDEST PUSH2 0x174 JUMP JUMPDEST STOP JUMPDEST PUSH2 0x11C PUSH2 0x17E JUMP JUMPDEST PUSH1 0x40 MLOAD PUSH2 0x129 SWAP2 SWAP1 PUSH2 0x253 JUMP JUMPDEST PUSH1 0x40 MLOAD DUP1 SWAP2 SUB SWAP1 RETURN JUMPDEST PUSH2 0x13A PUSH2 0x188 JUMP JUMPDEST PUSH1 0x40 MLOAD PUSH2 0x147 SWAP2 SWAP1 PUSH2 0x26E JUMP JUMPDEST PUSH1 0x40 MLOAD DUP1 SWAP2 SUB SWAP1 RETURN JUMPDEST PUSH1 0x2 SLOAD DUP2 JUMP JUMPDEST PUSH1 0x1 SLOAD DUP2 JUMP JUMPDEST PUSH1 0x0 SLOAD DUP2 JUMP JUMPDEST DUP2 PUSH1 0x0 DUP2 SWAP1 SSTORE POP DUP1 PUSH1 0x2 DUP2 SWAP1 SSTORE POP POP POP JUMP JUMPDEST DUP1 PUSH1 0x1 DUP2 SWAP1 SSTORE POP POP JUMP JUMPDEST PUSH1 0x0 PUSH1 0x1 SLOAD SWAP1 POP SWAP1 JUMP JUMPDEST PUSH1 0x0 DUP1 SLOAD PUSH1 0x0 SLOAD PUSH2 0x199 SWAP2 SWAP1 PUSH2 0x289 JUMP JUMPDEST SWAP1 POP SWAP1 JUMP JUMPDEST PUSH1 0x0 DUP2 CALLDATALOAD SWAP1 POP PUSH2 0x1AD DUP2 PUSH2 0x302 JUMP JUMPDEST SWAP3 SWAP2 POP POP JUMP JUMPDEST PUSH1 0x0 DUP2 CALLDATALOAD SWAP1 POP PUSH2 0x1C2 DUP2 PUSH2 0x319 JUMP JUMPDEST SWAP3 SWAP2 POP POP JUMP JUMPDEST PUSH1 0x0 PUSH1 0x20 DUP3 DUP5 SUB SLT ISZERO PUSH2 0x1DE JUMPI PUSH2 0x1DD PUSH2 0x2FD JUMP JUMPDEST JUMPDEST PUSH1 0x0 PUSH2 0x1EC DUP5 DUP3 DUP6 ADD PUSH2 0x19E JUMP JUMPDEST SWAP2 POP POP SWAP3 SWAP2 POP POP JUMP JUMPDEST PUSH1 0x0 DUP1 PUSH1 0x40 DUP4 DUP6 SUB SLT ISZERO PUSH2 0x20C JUMPI PUSH2 0x20B PUSH2 0x2FD JUMP JUMPDEST JUMPDEST PUSH1 0x0 PUSH2 0x21A DUP6 DUP3 DUP7 ADD PUSH2 0x1B3 JUMP JUMPDEST SWAP3 POP POP PUSH1 0x20 PUSH2 0x22B DUP6 DUP3 DUP7 ADD PUSH2 0x1B3 JUMP JUMPDEST SWAP2 POP POP SWAP3 POP SWAP3 SWAP1 POP JUMP JUMPDEST PUSH2 0x23E DUP2 PUSH2 0x2BA JUMP JUMPDEST DUP3 MSTORE POP POP JUMP JUMPDEST PUSH2 0x24D DUP2 PUSH2 0x2C4 JUMP JUMPDEST DUP3 MSTORE POP POP JUMP JUMPDEST PUSH1 0x0 PUSH1 0x20 DUP3 ADD SWAP1 POP PUSH2 0x268 PUSH1 0x0 DUP4 ADD DUP5 PUSH2 0x235 JUMP JUMPDEST SWAP3 SWAP2 POP POP JUMP JUMPDEST PUSH1 0x0 PUSH1 0x20 DUP3 ADD SWAP1 POP PUSH2 0x283 PUSH1 0x0 DUP4 ADD DUP5 PUSH2 0x244 JUMP JUMPDEST SWAP3 SWAP2 POP POP JUMP JUMPDEST PUSH1 0x0 PUSH2 0x294 DUP3 PUSH2 0x2C4 JUMP JUMPDEST SWAP2 POP PUSH2 0x29F DUP4 PUSH2 0x2C4 JUMP JUMPDEST SWAP3 POP DUP3 PUSH2 0x2AF JUMPI PUSH2 0x2AE PUSH2 0x2CE JUMP JUMPDEST JUMPDEST DUP3 DUP3 DIV SWAP1 POP SWAP3 SWAP2 POP POP JUMP JUMPDEST PUSH1 0x0 DUP2 SWAP1 POP SWAP2 SWAP1 POP JUMP JUMPDEST PUSH1 0x0 DUP2 SWAP1 POP SWAP2 SWAP1 POP JUMP JUMPDEST PUSH32 0x4E487B7100000000000000000000000000000000000000000000000000000000 PUSH1 0x0 MSTORE PUSH1 0x12 PUSH1 0x4 MSTORE PUSH1 0x24 PUSH1 0x0 REVERT JUMPDEST PUSH1 0x0 DUP1 REVERT JUMPDEST PUSH2 0x30B DUP2 PUSH2 0x2BA JUMP JUMPDEST DUP2 EQ PUSH2 0x316 JUMPI PUSH1 0x0 DUP1 REVERT JUMPDEST POP JUMP JUMPDEST PUSH2 0x322 DUP2 PUSH2 0x2C4 JUMP JUMPDEST DUP2 EQ PUSH2 0x32D JUMPI PUSH1 0x0 DUP1 REVERT JUMPDEST POP JUMP INVALID LOG2 PUSH5 0x6970667358 0x22 SLT KECCAK256 0xAA 0xB3 0xE6 PUSH14 0xFBC98846D038EC0FA2B1268CA98F 0x49 RETURNDATACOPY RETURNDATACOPY XOR DUP14 0xCC 0xEA 0x22 0xDF 0xEB KECCAK256 PUSH21 0x6BF964736F6C634300080700330000000000000000 "
				},
				"gasEstimates": {
					"creation": {
						"codeDepositCost": "174000",
						"executionCost": "220",
						"totalCost": "174220"
					},
					"external": {
						"getNumber()": "infinite",
						"getNumber1()": "2481",
						"num()": "2474",
						"num1()": "2452",
						"num2()": "2430",
						"setNumber(int256)": "22542",
						"setNumber(uint256,uint256)": "infinite"
					}
				},
				"methodIdentifiers": {
					"getNumber()": "f2c9ecd8",
					"getNumber1()": "9e911f4c",
					"num()": "4e70b1dc",
					"num1()": "3b9eac4b",
					"num2()": "15d4266c",
					"setNumber(int256)": "9cf27f37",
					"setNumber(uint256,uint256)": "6b19e8c7"
				}
			},
			"storageLayout": {
				"storage": [
					{
						"astId": 3,
						"contract": "sibig_learning/first prog.sol:TestContract",
						"label": "num",
						"offset": 0,
						"slot": "0",
						"type": "t_uint256"
					},
					{
						"astId": 5,
						"contract": "sibig_learning/first prog.sol:TestContract",
						"label": "num1",
						"offset": 0,
						"slot": "1",
						"type": "t_int256"
					},
					{
						"astId": 7,
						"contract": "sibig_learning/first prog.sol:TestContract",
						"label": "num2",
						"offset": 0,
						"slot": "2",
						"type": "t_uint256"
					}
				],
				"types": {
					"t_int256": {
						"encoding": "inplace",
						"label": "int256",
						"numberOfBytes": "32"
					},
					"t_uint256": {
						"encoding": "inplace",
						"label": "uint256",
						"numberOfBytes": "32"
					}
				}
			},
			"userdoc": {
				"kind": "user",
				"methods": {},
				"version": 1
			}
		}
	}
}